S01B00006275696C642F72656C656173652F7A69676265652E73333714
S21400400008100020996F000025B200003DF1020064
S2140040103DF102002DB2000035B200003DF1020075
S2140040203DF102003DF102003DF102003DF10200CB
S21400403039B20000A83004003DF102003DF1020054
S2140040403DF102003DF102003DF10200B16A0000C0
S2140040503DF102003DF102003DF102003DF102009B
S2140040603DF102003DF1020039B700003DF10200CB
S2140040703DF102003DF102003DF102003DF102007B
S2140040803DF102003DF102003DF102003DF102006B
S2140040903DF102003DF102003DF102003DF102005B
S2140040A03DF1020061730000457300003DF102001F
S2140040B03DF102003DF102003DF10200150B020049
S2140040C01D4B0300194B030079020200334B03001B
S2140040D0214B0300D50A0200254B030009EF01001F
S2140040E0550B02003DF102003DF102003DF10200D9
S2140040F03DF102003DF102003DF102003DF10200FB
S2140041003DF102003DF102003DF102003DF10200EA
S2140041103DF102003DF102003DF102003DF10200DA
S2140041203DF102003DF102003DF102003DF10200CA
S2080041303DF1020056
S214004134F0B5114A114C124E00F00105E3695F0711
S21400414413D40DB9334213D103EA00078F4207D1C3
S2140041540B4A1A40002A14BF6FF001000020F0BD7D
S214004164013AEBD16FF00200F9E74FF0FF30F6E7C3
S2140041746FF00100F3E700BF80969800000003503C
S214004184020001000B4B70B5D96911F480310DD1D2
S21400419401244FF48072084E084DF46020462C64C7
S2140041A41A61FFF7C5FF3464EC6070BD6FF0010060
S2140041B4FBE700BF0000035000100350002003502C
S2140041C438B541F6713301220C4C0021E569E363EE
S2140041D40B4B05F48035DA600223606121202361ED
S2140041E4FFF7A6FF10B92120FFF7A2FF0122054B17
S2140041F4DA600DB10023E36338BD00BF000003504E
S214004204001003500020035070B5134C6061E3693E
S2140042145B071ED40E4656F8043B8D18A361AE42C7
S2140042240BD10423002121202361FFF781FF58B915
S214004234BDE870402120FFF77BBF08210846FFF742
S21400424477FF10B10423236170BD56F8043BA361C5
S214004254E5E74FF0FF30F7E7000003502DE9F84399
S214004264154641F67132164B8946DF69DA63012238
S214004274064603F58053DFF8508007F48037DA608B
S21400428455B9284601220F4BDA601FB10022A3F568
S2140042940053DA63BDE8F88306F5005404EA08041C
S2140042A4A41BAC4228BF2C46494622463046FFF79C
S2140042B4ABFF0028E6D12644A1442D1BE0E700BF4F
S2100042C4000003500020035000E0FFFF45
S2140042D02DE9F04F4FF0FD0BC9B09A460DF11B09C2
S2140042E09DF8503108AFCDF80C90CDF808B0019786
S2140042F0059303890446009383790E4690464188C9
S2140043008288407811F052F9054650B10090A38893
S214004310002062883A4911F08DFC284649B0BDE875
S214004320F08F99F800002DF049FF38B12846A38891
S2140043306288344911F07EFC8D25EEE75A463946F0
S21400434099F800002DF0E2FE8346002851D0529BDB
S2140043501BB1BDF84C3198424BD8002399F8009019
S2140043600793A9F14102012A5FFA8BF123D8384658
S2140043700139254ADFF898C05FFA81FE734513DBE2
S214004380059B04210792C3B907AF18221F489FED6B
S2140043901A7B02FB060420460A460830394684ED9E
S2140043A0027B16F06FF911E010F8011F013351403F
S2140043B00CFB01F2E2E7059B33B123464A4638463A
S2140043C000960FF075F8A8E70829DED9B8F1000FB7
S2140043D001D088F80090BAF1000F01D0AAF800B01A
S2140043E0529B002B99D05A46184608A916F04AF94F
S2140043F093E7012591E700BF0000000000000000E1
S214004400A3D90300D8D90300C59D1C8180100020C5
S21400441093010001000000002DE9F04F93B0CDE9B4
S2140044200A32DDE91C530E9353EC102BCDE908013C
S214004430104619468DED060B1E9E15F0ADFB80B19D
S214004440DDE906014FF0FF32C54B15F0CDFB40B954
S214004450DDE906014FF0FF326FF4801315F0A6FB7E
S21400446070B1DDE908019DED060B0E9B1E96CDE9A9
S2140044701C53DDE90A3213B0BDE8F04F00F088B9EE
S2140044800022DDE90601002315F090FB002800F06D
S2140044903381DDE906A303F1004BCBF30A5016F493
S2140044A08063A0F2FF3008BF06250F9315F0A2F830
S2140044B09BA3D3E9002315F007F99BA3D3E90023B8
S2140044C014F04CFFCBF31304894644F07F5180462A
S2140044D00022A44B504641F4401114F03DFF94A333
S2140044E0D3E9002315F0F0F802460B46404649464D
S2140044F014F034FF15F082FB044615F07BF88EA30B
S214004500D3E900238046894615F0DEF80022964B54
S21400451014F024FF15F072FB89A3D3E900230746A5
S2140045204946404615F0D0F880463846894615F08C
S21400453061F885A3D3E9002315F0C6F802460B46BA
S2140045404046494614F008FF02460B46CDE90C23C8
S21400455015F0BAF8DDE90C23804689461046194660
S21400456014F0FCFE0022CDE91001804B404649467F
S21400457015F0D4F900227E4B14F0F0FE02460B46EE
S2140045804046494615F0CAF900227A4B14F0E6FE7A
S21400459002460B464046494615F0C0F9DDE90C23B5
S2140045A08046894600204FF0804114F0D5FE024632
S2140045B00B464046494614F0D1FE02460B46DDE95E
S2140045C0100115F0ABF907F2FF3700226A4B14F022
S2140045D0C5FE00223B0515F077F852465B4680463E
S2140045E0894615F001FB002840F08980CDE90C894A
S2140045F004F16303C62B8CBF0527042731051BD5A2
S21400460053A3D3E900235046594615F0E3FA002891
S2140046107FD051A3D3E900235046594615F0C6FA79
S214004620002876D00027A542C6BF2C1B04F1FF3514
S21400463000253C4646F480660E9B9F422CBF4FF0FA
S2140046400008A3EB070816F0020903D0002F18BFD6
S2140046504FF000083CB1DDE90C235046594615F0F2
S2140046605DF982468B46DDE906010022002315F03F
S2140046709DFA10B10BF100439B46DDE9080126F4D4
S2140046800063CDE90183DDE90A324BEC10AB0095FF
S21400469000F07EF802465FB3DDE9091316F0200F3E
S2140046A000F10105089E0CBF65204520B047DDE9F6
S2140046B008010523002205930A23002CCDE90232C7
S2140046C007F1FF374FEAD473B8BF64422A46019316
S2140046D004970A9B00942FF08FFB0246B9F1000F57
S2140046E006D00B9BC41A0B9B1A190E9BA34245D8E7
S2140046F0104613B0BDE8F08FDDE906ABCDE600222C
S214004700404649461A4B15F009F9013CCDE90C0123
S2140047106EE7002D90D00F9B002B8DD0013D8BE7D0
S214004720FB799F501344D33FB3C8608B288AC63F9B
S21400473061436F63A787D23F71A379094F930A40FD
S2140047401655B5BBB16B0240EF39FAFE422EE63F76
S2140047502D431CEBE2361A3F0000000080842E41F9
S214004760FFFFEF7F0000F83F0000E03F00002C4016
S21400477000002440000018400000F03F2020DDE943
S2140047800913089DA8470134ADE700BF00000000EC
S2140047902DE9F04F5BEC10AB97B0CDE90501DDE9F4
S2140047A02058CDE90723504652465B465946229F7D
S2140047B015F0F2F970B90323CDE902870193AA4BED
S2140047C00093DDE90501DDE907232FF047FA17B06E
S2140047D0BDE8F08F4FF0FF326FF480135046594615
S2140047E015F0E4F928B10423CDE9028701939F4B25
S2140047F0E6E74FF0FF32504659469D4B15F0F4F968
S21400480068B19C4A07F00403002B08BF03229A4BAA
S2140048101CBF13460422CDE902870192D0E750461A
S2140048208DA3D3E90023594615F0DEF938B98CA3D9
S214004830D3E900235046594615F0B8F968B1DDE9CA
S2140048400723DDE905014BEC10ABCDE92187209568
S21400485017B0BDE8F04FFFF7DFBD0022002350463B
S214004860594615F0A3F9002800F091805B465246A1
S2140048700020002114F070FD012382468B46099328
S21400488017F4806400F08580092D40F285800024AE
S21400489030210EABA5F109020134202C03F8011BD0
S2140048A0A5EB040901D09442F6D15946504615F0BE
S2140048B0A5F9724B054603EBC90393ED007B8DED1E
S2140048C00A7B14F097FE02460B465046594614F0F3
S2140048D043FDDDE90A2314F0F7FE02460B46CDE958
S2140048E00C2315F0B3F9064614F074FE02460B4688
S2140048F0DDE90C0114F030FD02460B46CDE90C2331
S21400490000225F4B15F070F9002848D0013630467B
S21400491014F060FE02460B46DDE90A0115F050F978
S21400492008B100260135B9F1000F45D1284614F02C
S21400493061FE02460B465046594614F00DFD002215
S2140049404F4B15F033F910B9E90700D501350A21A8
S2140049500EAB1A19202C0AD095FBF1F001FB10556E
S214004960303502F8015B013405460028F2D107F025
S2140049700302012A55D1B8F1000F52D0099A12B994
S21400498017F00C0F01D008F1FF38302240E00990F4
S21400499076E74FF0060988E7A946002485E7002257
S2140049A0DDE90C01364B15F001F90028BBD10EB13C
S2140049B0F007B8D50136B6E70A210EAB1A19202C37
S2140049C00DD0B6FBF1F001FB1063092E03F13003A6
S2140049D009F1FF3904F1010402F8013B11D8302136
S2140049E0A1440EAA202CB2D04C4504F101030AD1F2
S2140049F004F158020DEB02042E2204F8202C1C466B
S214004A00A5E70646DBE7A1541C46EBE71A5501343A
S214004A10444506D2202CF9D1CDE9028701940EAB8D
S214004A20CEE6202CF8D0099B3BB12D2204F158038A
S214004A306B4403F8202C0134EEE77A0704D504F122
S214004A4058032B226B44F4E73B07E5D504F15803E3
S214004A5020226B44EDE700BF0000000065CDCD418D
S214004A600000000065CDCDC1C6F60300CAF60300FF
S214004A70FFFFEF7FBDF60300C2F60300D83F040039
S214004A800000E03F0000000070B58EB02C22002130
S214004A9003A815F067FC64234FF002320893CDE9B3
S214004AA005230B2301218DF834305B4B8DF8101055
S214004AB01D880D4040F0A980084633F0F9F90A2217
S214004AC0564B574C1A704FF42873ADF812304FF00F
S214004AD0FF332360534B54491B8820460B82534BAD
S214004AE0534A1B68CD828B61524B0D621B884B82EA
S214004AF0514B1B68CB611CF0A3F820B14FF41B711F
S214004B004E4834F06DFA052120682FF068FB20B17E
S214004B1040F27D21494834F063FA206814F0D8FB4F
S214004B20474B206819682FF01DFC0C2533F028FE33
S214004B306843099033F024FE68430DEB05010790A7
S214004B40206816F0D1FA20B140F295213B4834F0A7
S214004B5047FA25681EF0ACFA0022014628462FF0D8
S214004B6079FC20B140F29721344834F039FA40F20B
S214004B700353344D344E2B80052396F90000AB705A
S214004B807F2801D11CF052F93378EB7033F0F8FD32
S214004B9000EB80008000A88033F0F2FD0023C00008
S214004BA04FF0FF31E880AB604FF0FF3018A3D3E939
S214004BB0002333F0CFFA254920682FF004FC206844
S214004BC002A930F020F820B14FF434711B4834F0BD
S214004BD007FA042220680DEB02012FF098FB042848
S214004BE004D040F2D721154834F0FAF901A9012083
S214004BF02EF099FF06F05AFB01201CF09BFD2AF0D0
S214004C00F9FF1CF0C1FD1CF0A9F80EB070BD00BF86
S214004C100A0020FF42030000EE540020135C002030
S214004C20144F002086590400B86200208C590400F6
S214004C30D97E030084590400885904008F2F04008D
S214004C4000600020084F0020826500204D7F030092
S214004C500348044B834202D0034B03B11847704706
S214004C60B0650020B065002000000000064B074934
S214004C70C91A891048BF0131491003D0044B0BB143
S214004C8001481847704700BFB0650020B065002097
S214004C900000000010B5064C237843B9FFF7D8FF94
S214004CA0044B13B10448AFF300800123237010BDFA
S214004CB0B0150020000000000C7D040008B5044B71
S214004CC01BB104490448AFF30080BDE80840CDE7B7
S214004CD000000000B41500200C7D0400A3F5803A07
S214004CE0704700BF154B002B08BF114B9D46FFF7C2
S214004CF0F5FF00218B460F461148124A121A15F08E
S214004D0031FB0C4B002B00D098470B4B002B00D0F0
S214004D1098470020002104000D000B4815F068FE9F
S214004D2015F0F8FA200029002AF00AF815F04EFED1
S214004D30000008000000000000000000081000202E
S214004D4008100020685C002059AA010007B5012160
S214004D5020200DF1070200F033FE58B10223012196
S214004D6020200DF107028DF8073000F039FE03B061
S214004D705DF804FB9DF807100229F8D002220948C6
S214004D8014F0DEF9022301210DF1070220208DF830
S214004D90073000F025FE29F057FF4FF4FA6000F0C8
S214004DA01FFDE4E70894030038B500F081FF0128F2
S214004DB005D000F07DFF022801D000F091FF064DDF
S214004DC02B783BB900F074FF0128044602D129F085
S214004DD0AEFF2C7038BD00BFCC55002070B50C4619
S214004DE0088800F069FD94F844300546834214D0E4
S214004DF004F11C06304629F036FF84F8445029F0AA
S214004E0036FF3221A064304629F028FF94F844107B
S214004E100248BDE8704014F093B970BD30940300AA
S214004E2010B50446008800F047FDA37884F84400D7
S214004E30834202BF0123E3702371074B04F11C0079
S214004E40C4E9073400F012FE224620880349BDE874
S214004E50104000F049BD00BF33EA0200DD4D0000FF
S214004E6070B5C37804460D461646002B32D1C1B144
S214004E701F4814F065F9E36CA6600BB1E06D984727
S214004E80E368F61A63699E4221D2217E19480131F1
S214004E90C9B2217614F054F9A36D13B1217EE06DEA
S214004EA09847E57029F0E3FE0DB32379FBB9A268B5
S214004EB0238A801A83421AD201230F48237114F0E2
S214004EC03FF9236D9BB1E06DBDE8704018470123A4
S214004ED02376E6E70029E4D1084814F031F9636D3B
S214004EE0E6602571002BDCD0E06D9847D9E770BDF1
S214004EF04D9403005E9403008C94030079940300A1
S214004F00F8B51E46838804460D4617460BB18680C4
S214004F10F8BD8178008829F0ADFD0123E370084BC9
S214004F20E5802781A680C4E903340C34204600F0CF
S214004F309DFD29462046BDE8F84029F08FBE00BFFB
S214004F407FEA020010B501790446B1FA81F10088C3
S214004F50490929F006FE21796088B1FA81F14909EC
S214004F6029F0FFFD034B1A68A24204BF00221A6014
S214004F7010BD00BFCC15002070B543790446A3B120
S214004F8000880E4E04F10805336813B10C4B1B78ED
S214004F906BB1217929F0E5FD64210A4B3460A360EA
S214004FA02846BDE8704029F059BE4088E9E7064823
S214004FB014F0C6F8054B3221A360F1E7CC150020AB
S214004FC0CD550020454F0000A2940300794F000005
S214004FD010B50446E0B10F4814F0B2F8012363712F
S214004FE0A37953B92179208829F0BBFD236B7BB1C7
S214004FF0606B0121BDE8104018472046FFF7A2FF6E
S21400500004F1080029F02FFE2046FFF7B5FFEDE774
S21400501010BD00BFD894030010B50446F8B1104880
S21400502014F08EF800236371A3796BB92179208878
S214005030B1FA81F1490929F094FD236B7BB1606BCD
S2140050400021BDE8104018472046FFF77BFF04F11B
S214005050080029F008FE2046FFF78EFFEDE710BD9A
S214005060E394030010B5044668B1074814F068F8E6
S214005070637920461BB1BDE81040FFF7CDBFBDE801
S2140050801040FFF7A5BF10BDEF94030010B50E4CFF
S2140050900E48214614F054F882210D4814F050F8BA
S2140050A082210220A21E00F09BFC014630B134F89B
S2140050B0022C0848BDE8104014F042B80648BDE887
S2140050C0104014F03DB800BF5A500020FE94030074
S2140050D019950300249503006895030038B50E4C17
S2140050E082212246022000F06BFCA51C014650B12E
S2140050F022880A4814F024F844222846084915F065
S214005100C1FA4323238035F8021C064A0648BDE848
S214005110384014F015B800BF5850002073950300AF
S214005120F39503005A500020D195030010B50446AD
S2140051300146084814F004F8012C074805D129F068
S214005140F6FCBDE8104001F027B8BDE8104029F095
S214005150F0BC00BF379603008C5F002070B50024BB
S214005160184D194E3378A34217DC0024174D184EFD
S2140051703378A34217DC0024164D174E3378A3422B
S21400518017DC00F095FD0128144818D129F0CFFC53
S214005190BDE87040124800F09DBD2846FFF740FE6F
S2140051A001346035DEE7284629F0A7FC01343435A3
S2140051B0DEE7284629F0DAFC01343835DEE729F048
S2140051C0B8FCE5E7E41E0020D2550020C4200020ED
S2140051D0D3550020B41C0020D15500208C5F002041
S2140051E02D5100002DE9F04F85B0FFF777FFBA4B41
S2140051F003A8039329F0DEFC054614F0AFFFB74C76
S214005200C2B21F2A627004D9B54813F099FF00F0A5
S214005210DBFA2946A01C15F035FA03A829F0CAFCCB
S214005220054614F09BFFC2B21F2A84F8212001D93C
S214005230AC48EAE7294604F1220015F023FA03A851
S21400524029F0B8FC002504462678002E6FD1DFF83A
S214005250D092DFF8D0A2DFF8A882FFF77FFF99F898
S21400526000309AF8002098F800109F4813F068FF66
S2140052709AF8003098F800509C4F1D4499F800307A
S2140052803C461D44EDB2012D38BF01253B464FF488
S21400529082714FF6FF720136B5421E7059809A80B1
S2140052A003F10C03F7DC924B90498C48A36000F0A6
S2140052B0C5FDE079A26800EB400002EB800000F03C
S2140052C0C9FBE2798A4B0132E27100261C46DFF800
S2140052D034B298F80030B34200F3DB8100274FF079
S2140052E00C0B844A814E9AF8000098F80010B842D9
S2140052F000F3E08100274FF0700808440BFB0066BF
S214005300DFF824A299F80030BB4200F3EF8129466B
S214005310764800F00DFC039B6F491A468B4240F01E
S214005320F481754805B0BDE8F04F13F009BF532E61
S2140053300FD163784C2B40F0F980A378502B40F0C7
S214005340F58001226D4B1A7003A829F033FC044641
S2140053507AE729D8412EF7D9423E102EF4D801A379
S21400536053F826F0D55300000556000049530000B8
S21400537049530000495300004953000049530000B8
S2140053805B540000495300004953000011540000CC
S214005390BB53000049530000495300004953000026
S2140053A04953000099550000692ECDD1601C29F0A4
S2140053B00EFC80B229F044FCC6E7514B0120197858
S2140053C00023504A994202F1A402BDDD02F8A20C65
S2140053D00133F7E7601C00F0DBFA0646E01C29F014
S2140053E018FC01210246304600F020FA60224648AA
S2140053F0464C03785A43A118A6524FF4FA620A8222
S2140054004FF448724A61424A0A65013303709BE7CB
S214005410601C00F0BDFA0022342780463D4E11463F
S21400542000F004FA30783C4D07FB00F325F80380C3
S214005430EA18E3781046693B18BF0123937029F0F9
S2140054405CFB3378354A03FB0755002115600125C0
S214005450516015742B44337076E7601C00F098FAA0
S21400546000221146804600F0E1F93422294E2A4FE8
S214005470307802FB00F327F80380F918E378084633
S214005480693B18BF01238B7029F037FB194A0023AC
S2140054901146906BB0B901EB83113423327802FBCE
S2140054A003738B635DB91D4A2B46114652F8040BF5
S2140054B070B93422307800FB027241F8232033782A
S2140054C00133C8E70133042B02F14002E1D1E9E7DA
S2140054D00133042BEAD1F2E75A500020AC5E0020DC
S2140054E0569603006D9603007D960300D0150020A7
S2140054F04816002018190020BA960300CD55002043
S214005500D0550020181A0020D2550020E41E002096
S2140055109FEB0200D3550020C42000208C5F0020A3
S214005520CE550020CF550020C8170020601C00F084
S2140055302FFA0746E01C29F06CFB0121024638468C
S21400554000F074F96023754E754C3278A4205343EE
S214005550E118E7524FF44873724F0B824B613B7869
S214005560DFF8E0C158430CEB00010CF800304FF4B4
S2140055700070488003200871887102EB420004EB3B
S214005580401432200133DBB201324B718C6081F85B
S214005590A00032703B70D7E6601C00F0F9F90022DC
S2140055A04FF038088146604F114600F03FF93B78CF
S2140055B05E4E08FB03F326F803904FF00109F2183D
S2140055C082F80490E3786BB1E01C00F0E1F9002269
S2140055D00446114600F02AF93B7808FB03635C801A
S2140055E083F806905248534A037899015354397801
S2140055F002EB8314C1EBC10206EBC20262634A1CD3
S2140056003A7002E7601C00F0C3F90746E01C00F0A1
S214005610BFF9002206461146384600F007F9002278
S21400562038241146304600F001F93F483F4A0378D7
S2140056304FF0010E04FB03FC02EB0C0122F80C7089
S2140056404FF0000C81F804E081F806C003EB0E0171
S214005650C9B24C43171916539C1C04707024364E5E
S21400566087F806C0307887F804E04443334FC3EB2E
S214005670C303C1EBC10107EB040C02EBC3033855AF
S21400568002EBC1027044CCF80430CCF8082030702D
S2140056905AE636B117F8053C03EB430304EB8304E4
S2140056A0BC603946584600F0F5FF01360BF1A40BF6
S2140056B00C370EE63944481E0BFB00600BFB0161FD
S2140056C0C079019200EB400004EB800410468C6029
S2140056D000F0F2FD98F80010194839440BFB016100
S2140056E000F040FD019A01374032FCE516F8053C13
S2140056F0314603EB430304EB830408FB07A0B460C6
S21400570000F0B6FC01370C36FCE513F8011D002945
S2140057107FF402AE3B2102F8011CFDE5D2550020C5
S214005720E41E0020D0550020D1550020B41C0020D7
S214005730CF55002018190020CE550020C81700208D
S214005740A81C0020181A002007B5022101200DF120
S214005750060200F035F938B9044813F0F1FCBDF83C
S214005760060003B05DF804FB0020FAE7D7960300B6
S21400577007B50221ADF806000DF10602012000F083
S2140057802FF9014610B1034813F0DAFC03B05DF8B8
S21400579004FB00BFF896030010B5FFF7D5FF0446DC
S2140057A00146074813F0CCFC0121064813F0C8FC5C
S2140057B024B9BDE810400120FFF7DABF10BD00BFD6
S2140057C0289703003A97030008B5044813F0B8FC7E
S2140057D000F016F929F038FA29F033FA509703004A
S2140057E038B50446084D094B28462B6000F03EF9B4
S2140057F0002C18BF21462846BDE8384008BF4FF4A5
S214005800967129F02BBA00BFC8210020EDEB0200EC
S21400581010B5044C237823B9034833F08DFB0123DD
S214005820237010BDD55500200433040073B506461A
S2140058300D461446FFF7ECFF0E4A330AD35C8DF88C
S21400584005608DF804307DB1012C04D0032C09D0FE
S2140058500022012101E02246022101A801F054FCA9
S21400586002B070BD0022F7E704212A460DEB0100C6
S214005870F4E700BF8630040007B5064A030AD35C87
S2140058808DF8050001A88DF8043001F071FC03B016
S2140058905DF804FB8630040007B5064A030AD35CAD
S2140058A08DF8050001A88DF8043001F08DFC03B0DA
S2140058B05DF804FB8630040007B50A4A030AD35C89
S2140058C08DF805008DF8043000230DF1030101A8C2
S2140058D08DF8033001F0A4FC9DF8030003B05DF8DA
S2140058E004FB00BF863004002DE9F043214C85B050
S2140058F0064688469146FFF78BFF23781BB901F0D2
S214005900E7FB012323701C4A330AD35C30228DF850
S2140059100C300023194F8DF80D6002FB03F4395D3F
S214005920E51901BB01233B554FF0FF3304F110008E
S21400593013493844AB606E80C5F80480C5F80C90F7
S21400594008F0D4FB04F10801042239440D4B0095FD
S21400595003A801F093FCA96802460B4813F0F0FB7D
S21400596005B0BDE8F0830133102BD6D1074813F0FD
S214005970E7FBF5E7D455002086300400F021002030
S214005980F3EB020005EC02005D9703008B97030023
S21400599080B10278A2F14103032B0BD8407830384F
S2140059A0C0B2082806D8054B134413F8413C40EA19
S2140059B0032070474FF6FF70704700BF8630040024
S2140059C008B50B4642B101460448006802F09AFD4D
S2140059D0BDE8084029F02EB9022008BDF85F002077
S2140059E008B50B4642B101460448006802F012FFB3
S2140059F0BDE8084029F01EB9022008BDF85F002067
S214005A00F0B50026124F8DB0FF2300930A223346CE
S214005A10386802A929F0A3FEC0B102AB1D4603EB0D
S214005A20800404E055F8043BB34228BF5E1CAC4239
S214005A303868E9D9296803F073F80028F2D02D28D1
S214005A40F0D00DB0BDE8F04029F0F4B80DB0F0BDD0
S214005A50F85F002028B1034B0360034B436000232C
S214005A608360704719000003A05F0020FF2307B57E
S214005A700021044A0093083008F0BCFA03B05DF831
S214005A8004FB00BF57EC02000B46044902460868B8
S214005A900349097808B129F0F1B87047F8240020C6
S214005AA0D7550020F8B50C4618B122210E4833F021
S214005AB097FA246823685E795F8830463946FFF790
S214005AC0E3FF08B98120F8BD8568002DFAD0A368E9
S214005AD0E27C39463046A84704460028F2D12DF02D
S214005AE0D7F82046EFE700BFB3970300F8B5154692
S214005AF00D4A044610680D4A0B46117850B12246EE
S214005B0029F0BCF8034628B100210C27C678B1421C
S214005B1001DB0020F8BD07FB01F45A681019125B80
S214005B20AA42F7D00131F2E7F8240020D75500202A
S214005B302DE9F74F04460D460026454B454F1860A5
S214005B40454B197033010021F85C01360FF01CFB41
S214005B500C2EF7D10C2D28BF0C254FF0000901950F
S214005B603C4EDFF800A13D4DDFF8FC80019B4B4525
S214005B7002DC03B0BDE8F08F23784FF0000B3370E3
S214005B8063887380A388B380A379C6F80880B3714E
S214005B90E379C8F8005088F804304FF00003A7688F
S214005BA0A8F80630E3795B450ADC012116F8100BED
S214005BB00FF0EAFA08F1080809F101090C34D5E7F4
S214005BC04FF0000338886B812880FB784FF0000C7C
S214005BD02B81BA78C5F804A0002A00920CBF802258
S214005BE040222A7379680AF10C02634513DC03EB42
S214005BF043030AEB830ABB6843B1009A4FF6FF7172
S214005C00B2FA82F2164B52092CF0D2FF14350BF181
S214005C10010B0C37C6E7B1F800E00CF1010C22F8D6
S214005C200CEC91F802E00C3202F816EC91F804E065
S214005C300C3102F815EC11F809ECBEF1010F14BF97
S214005C404FF0100E4FF0110E02F814ECCDE700BF27
S214005C50F8240020F83B0020D7550020FC2A00201E
S214005C60A55A0000FC2400207C2D0020014B186063
S214005C70704700BFF424002070B5128805460E4613
S214005C80FFF734FF044670B102790499806814F077
S214005C90BBFB064B1B680BB9002070BD314628467F
S214005CA022889847F8E78620F7E700BFF42400200C
S214005CB008B50EF005FB022806D0012806D0044BD6
S214005CC018784000C0B208BD0120FCE70220FAE7C1
S214005CD0D6550020014B1860704700BFF024002006
S214005CE0034B1A781AB901221A700AF049BB70479A
S214005CF0D65500200022064B10B51A70054B1C68BE
S214005D002CB1FFF7D5FF2346BDE81040184710BD5D
S214005D10D6550020F024002037B50446002832D09F
S214005D200EF0CEFA022830D160892DF013FBE07910
S214005D30237A003818BF0120012B637A08BF40F091
S214005D4008000BB140F0100063890BB140F004006E
S214005D50257CA188A2790DB1E36873B90C4B0FF0CE
S214005D60EFFD217808460FF067FE2CF01AFE00289B
S214005D7014BF0320002003B030BDCDE90035054B2D
S214005D800FF0DEFDEDE70220F5E70120F3E700BFA8
S214005D90F0E50300B9B5030008B50CF04FFC01466A
S214005DA030B1044813F0CCF9BDE808400CF0EABF67
S214005DB008BD00BF25980300034B044A5B7C012105
S214005DC003201370FFF70CBE8C5F0020D855002010
S214005DD010B50446FFF7F0FFB4F57F4F0BD1002453
S214005DE00A4B1A8813449C70FFF750F92046BDE80A
S214005DF01040FFF7F5BC4FF601739C4204D1BDE896
S214005E001040034828F07BBE10BD00BF585000204D
S214005E108C5F002010B5074C012122460320FFF7B7
S214005E20CFFD28B92378044A003B18BF01235374DA
S214005E3010BD00BFD85500208C5F00200822F8B5A2
S214005E404A4B32241A7030229A705A71DA714FF423
S214005E5000125C70DC709C71454C3625C464454C61
S214005E6042640465444C01228465444C1D71C4653B
S214005E70434C1D724466434C85188466424CC56785
S214005E800467424C424D4467202480F8784080F8EE
S214005E90844000F12104C0F888403E4CC0F8805091
S214005EA0C0F88C403C4C80F84820C0F894403B4CEE
S214005EB080F85420C0F8984080F86020384C80F86D
S214005EC06C2080F8902080F89C20C0F8B830354BC5
S214005ED0C0F8A440C0F8BC300F24022380F8A840C5
S214005EE080F8C030304C314BC0F8AC40C0F8C430FD
S214005EF02F4C304BC0F8B040C0F8C830092482237D
S214005F002D4D80F8B44080F8CC302C7C2B4BC0F85C
S214005F10A000C0F8D03044B1294B80F8D820C0F893
S214005F20D43005F11103C0F8DC304FF0000CCA790C
S214005F308E6802EB42039F00443006EB830326F88C
S214005F4007C0586001200C349870DC701318CB71B1
S214005F50FFF760FFFFF7ACFE012806D12B7C23B1CC
S214005F60BDE8F840144828F0CABDF8BDD955002051
S214005F70A0300400010020009F3004000200200032
S214005F809E300400030020009D3004000400420000
S214005F9005004200070030009C300400120010018B
S214005FA000404200FDFF21008A3004009A300400C1
S214005FB00600420000FF44018C5F0020585000207D
S214005FC001FF1001437B044A0121137000780E3054
S214005FD0C0B2FFF705BD00BFE355002038B5044644
S214005FE00078054D0E302A460121C0B2FFF7E8FCC6
S214005FF008B92B78637338BDE3550020024B53F87D
S214006000200028F022BF00BFDC2D0020012908B5A3
S21400601006D0022907D049B928F00EFF002008BD97
S21400602028F00DFFFAE728F00DFFF7E7024813F017
S21400603087F80120F3E700BF5298030011461A467E
S214006040024B53F82000FFF7E1BF00BFDC2D002015
S214006050002310B5044683810364A0F8443048301A
S214006060FFF704FD014BC4E9123410BD31EE020007
S21400607038B504460B781A4A43700D4642F823009A
S214006080FFF7E6FF2046FFF7A9FF4FF44013236112
S2140060900123144A2375A261134A84F82030E26172
S2140060A0124A84F82C306262114A84F83830A262B0
S2140060B004F10C0222630F4A04F10D036263E363EA
S2140060C0EA79A86802EB420300EB830110344C60C7
S2140060D0094C40F82340094B8B60531CEB7138BDCC
S2140060E0DC2D0020E2550020080020002A65002054
S2140060F000FF300001FF1001020101043D600000B6
S21400610070B50D460646144613460A460146114823
S21400611013F016F825B92046BDE87040FFF758BEC4
S214006120072D05D121463046BDE8704000F078BA0C
S214006130062D05D121463046BDE8704000F076B801
S214006140B5F5817F05D121463046BDE87040FFF7A2
S21400615055BF70BD6E9803000148FFF787BD00BFAE
S214006160016100004FF4C01330B5036001230371D2
S214006170074B8C688360CA7902EB420304EB830505
S2140061806860044844F82300531CCB7130BD00BF40
S214006190A13004000400010138B50024044D55F870
S2140061A0040B08B128F05FFE01340A2CF7D138BD85
S2140061B0042E00200229024608B50ED004D839B9AC
S2140061C0104628F07BFE06E04029F9D0412907D189
S2140061D0104628F069FE002008BD28F079FEFAE790
S2140061E0014812F0ADFFF6E7A198030011461A46E3
S2140061F0024B53F82000FFF7DDBF00BF042E00203F
S214006200426B094B52791A7082785A70C2789A702B
S214006210826B12B190F83C20DA70007804210930C5
S214006220014AC0B2FFF7DCBBE4550020024B53F82E
S214006230200028F069BE00BF042E002038B50446B2
S2140062400078084D09302A460421C0B2FFF7B8FB93
S21400625030B96B78A370AB78E370EB7884F83C3099
S21400626038BD00BFE455002038B504460078114D0F
S21400627009302A460421C0B2FFF7A2FBC8B9A378AA
S2140062802A78022B0CD004D863B9204628F016FED4
S21400629001E0FF2B0AD02046BDE8384028F0E3BDD9
S2140062A0002AF2D1204628F0FFFDF4E7002AF9D1B3
S2140062B0EBE738BDE4550020F8B504460B78224AD3
S2140062C00D4642F823004370FFF7B8FF636B1F4A82
S2140062D05C631A632046FFF7C7FF204628F0C3FD1D
S2140062E04FF4801363600123626BA06B0532E2609B
S2140062F0174A23722261A21C2375A26160B1154A57
S21400630084F82030E261E21C6262134A84F82C3082
S21400631004F13C03A26223630627E979AE6801EB29
S2140063204103002826F8237006EB83020CBF0223E5
S2140063300423D37001239370084B043493604B1CE2
S2140063405460EB71F8BD00BF042E0020E5EE02009D
S2140063500340300101FF300102FF1001ED61000033
S21400636002464179D37808480139042B00EB8110A6
S21400637008D8012B04D80BB928F096BD28F09EBD8E
S21400638028F0A6BD704700BF1819002002464179C4
S214006390D37808480139042B00EB811008D8012B6C
S2140063A004D80BB928F08ABD28F07EBD28F090BD31
S2140063B0704700BF1819002030B587B004464579ED
S2140063C0FFF776FC012822D1E2786B1E042A1ED83D
S2140063D0DFE802F00431031F2800104663784FF40C
S2140063E080728DF804304FF48273ADF806300623C1
S2140063F0ADF8083001238DF80B3000238DF80A0025
S21400640001A8CDE903238DF81430FFF785FC07B00B
S21400641030BD0A4A02EB83135B6B5B79181E18BF0C
S2140064200120DBE7054A02EB83135B6B5B79B3FA6B
S21400643083F04009D2E70020D0E700BF18190020FB
S21400644030B587B004464579FFF732FC012829D1DC
S214006450E3786A1E042B25D8DFE803F00B0B0B034A
S2140064602600164B03EB82135B6B5B79003B18BF71
S214006470012362788DF80A308DF804204FF482727A
S2140064800123ADF8062006228DF80B30ADF8082063
S21400649000234FF4807201A8CDE903238DF8143051
S2140064A0FFF73AFC07B030BD044B03EB82135B6B7F
S2140064B05B79B3FA83F35B09DBE700BF18190020AA
S2140064C010B586B00446FFF7F3FB012812D16378B7
S2140064D0094A8DF804304FF48273ADF806304FF455
S2140064E08073CDE90223002301A804938DF81430AD
S2140064F0FFF712FC06B010BD0800070110B586B005
S2140065000446FFF7D5FB012820D16278104B8DF8A2
S21400651004204FF4827294F8A01094F8A1005970E9
S2140065201870ADF8062004934FF4807202230949D0
S21400653001A88DF81430CDE90212FFF7EDFB94F8B0
S214006540A130013B18BF012384F8A13006B010BD6E
S214006550E85500200800050110B583780446E3B12D
S2140065600379022B06D143790C48013B00EB8310DC
S21400657028F0AEFCA379022B02D12046FFF71CFFC1
S2140065802046FFF7BBFF02236078A4F86C30552244
S214006590BDE81040122128F093BB10BD181900204A
S2140065A04388094A082113808388538083681B8A9E
S2140065B0938090F8A03093718379D371007804307B
S2140065C0C0B2FFF70DBA00BFDA50002038B50D464E
S2140065D004460178104812F0B3FD4FF602739D4250
S2140065E00CD163791BB10D4A12789A4201D201236D
S2140065F063712046BDE83840FFF7D2BFB5F57F4F40
S214006600F7D1204628F0E2FCA378022B0CBF01222B
S2140066100022A3689A70ECE7B7980300CF550020D5
S214006620024B53F82000FFF7D1BF00BF2C2E0020EE
S21400663038B504460078134D04302A460821C0B207
S214006640FFF7BEF920B1BDE838400F4812F078BD1C
S2140066502B8863806B88E978A380AA88A3681A824F
S214006660AB7984F8A030EB79A37119B1074B1B788E
S2140066708B4205D2064812F063FD2378013363711E
S21400668038BD00BFDA500020D1980300CF55002057
S214006690FA980300F8B504460B78484A0D4642F8C7
S2140066A023004370FFF7C4FFA268454B0226D3645D
S2140066B0444BA11C5365444B44481365444B04F1BA
S2140066C00C0CC2E916344FF44013E36001236161F9
S2140066D0E1624049103221632265211D3E4AA163D2
S2140066E03E49626504F1A002A061E163E265E01C38
S2140066F0611D3B4A206261643A483B492266A21DFE
S2140067002374237784F8283084F8343084F84030B3
S214006710A16484F84C6084F8583084F86430606271
S214006720A266E879AA6800EB400102EB8107C7F889
S21400673004C04FF0060C2D4F42F82170C118C9B2A4
S21400674001EB410142F821C002EB8107002179608C
S214006750274F84F880302767264F84F89830A7673D
S214006760254F264BE767264F84F8746084F88C60C4
S214006770C4F89C3004F16C06831CC4F88470C4F81A
S2140067809060204F204EDBB203EB4303C4F89460C6
S214006790C4F8887002EB83067034746008261B4CBD
S2140067A042F82340C31CDBB203EB430302EB830433
S2140067B0043042F823606160E871F8BD2C2E00209A
S2140067C039EF02007BEF020059650000100030012F
S2140067D02FEF020001FF300104FF200102FF20011D
S2140067E005FF300100FF300103FF2101070001080B
S2140067F04A002100A230040051001000A43004001A
S214006800A5300400550021006F0018001200010496
S21400681000239B6AB3F5804F03D21968064A91425B
S21400682003D00023037083607047012202709A68C9
S2140068309B694260F7E700BF07B0CD5E024B034A94
S2140068401A6029F04BBF00BF0000002002020FF0C4
S21400685073B53F4B04461A781AB102221A7002B07A
S21400686070BDCDE900220028F9D001261E7032F056
S214006870C5FA384D384B186017F044FA2B785BB9D8
S21400688002F0F2F940B935480823354A3549006820
S21400689001F038FE00B92E70334B5A68E260334A76
S2140068A09A601A6E22605A6E6260D3F87021A260F7
S2140068B01B6E5C042CD52E4AD368D807FCD42D4B0F
S2140068C01A68531C29D04FF4801393402A4A136643
S2140068D00423294C4FF0804223664FF480632366DE
S2140068E0102323664FF400536846236601A92266E8
S2140068F0636628F083FB009B2366019B63662B7808
S214006900002BACD0164B1A6822665B686366A6E757
S2140069101A4AD368D907FCD4D1E7194B1B78002B49
S214006920D6D1184B5A68144B12B94FF480121A6617
S214006930154A526812B94FF400121A66134B5B6878
S214006940002BC5D14FF480020B4B1A66C0E700BF80
S214006950EB550020EC550020642E0020F85F002048
S214006960682E0020007108000080004455CEAC0060
S21400697000000440C45F0020009000440000045063
S214006980EA5500200080055000C005500000065063
S21400699038B5224D04462B78012B02D001232B70EC
S2140069A038BD0028FCD028F04EFB013009D028F076
S2140069B04AFB40F20113984203D0194AD368DB071A
S2140069C0FCD42268174B1A6662685A66A268C3F837
S2140069D07021E268D40744BF00229A60124B1A68FE
S2140069E0013213D1114A127882B911494968C80791
S2140069F048BF1A600F4A5268D10744BF01221A6086
S214006A000D4A5268D20744BF02221A6017F082F974
S214006A100A4B186832F0EDF90023C0E7EB5500206A
S214006A200000044000800044C45F0020EA550020B7
S214006A300080055000C0055000000650642E00205F
S214006A4070B50024A36AB3F5804F23D21A68134B9F
S214006A509A421FD1124E337813F0FD0518D14FF429
S214006A6080341048FFF7F4FE032004F0CBF90E4BF9
S214006A700320DC6004F0AAF90C4B1C61AB6ADB69EE
S214006A80984704460748FFF783FF0CB90123337085
S214006A90204670BD4FF48174FAE700BF07B0CD5EA4
S214006AA0EA550020542E002000A000440090004428
S214006AB013B5204B1B7803B9FEE700231E4CCDE927
S214006AC000336A4608231D49206801F01BFDF8B90B
S214006AD01B4AD2F84031D2F840211F2B4FF0010359
S214006AE011D9203A9340019A1A43019208236A4624
S214006AF01249206801F08EFE124B134A1A6029F0E4
S214006B00EDFD02B010BD9340009A1A430092EDE7E7
S214006B102D28F1D10A4AD2F84031D2F840211F2B55
S214006B204FF0010385BF203A93409340019398BFEE
S214006B300093DBE7EB550020F85F002000710800AB
S214006B4000800044000000200B020FF038B500253E
S214006B50AB6A0446B3F5804F10D21B6BB3F5804F7B
S214006B600CD20748FFF774FEAB6A20461B6B5B68C7
S214006B709847BDE838400248FFF70ABF38BD00BF57
S214006B80702E002013B50024A36A0190B3F5804F41
S214006B9013D21B6BB3F5804F0FD20948FFF758FE90
S214006BA0A36A01211B6B01A89B6998470446044809
S214006BB0FFF7EEFE204602B010BD4FF48174F9E7F1
S214006BC0702E002070B50026B36A0446B3F5804FD9
S214006BD00D4612D21B6BB3F5804F0ED20848FFF756
S214006BE037FEB36A20461B6B29469B6998470446C6
S214006BF00348FFF7CDFE204670BD4FF48174FAE7D8
S214006C00702E002070B50026B36A0446B3F5804F98
S214006C100D4612D21B6BB3F5804F0ED20848FFF715
S214006C2017FEB36A20461B6B2946DB699847044665
S214006C300348FFF7ADFE204670BD4FF48174FAE7B7
S214006C40702E0020F8B50027BB6A0446B3F5804FC7
S214006C500D46164611D21B6B7BB10948FFF7F8FDAF
S214006C60BB6A20461B6B324629465B6A9847044639
S214006C700348FFF78DFE2046F8BD4FF40174FAE78F
S214006C80702E002070B50026B36A0446B3F5804F18
S214006C900D4612D21B6BB3F5804F0ED20848FFF795
S214006CA0D7FDB36A20461B6B29469B6A9847044665
S214006CB00348FFF76DFE204670BD4FF40174FAE7F7
S214006CC0702E0020F0B50027BB6A0446B3F5804F4F
S214006CD00D461646ADF5337D20D21B6BB3F5804FBF
S214006CE01CD21048FFF7B4FDBB6A20461B6B40F26F
S214006CF0C1225B6A01A99847044630B10948FFF7EC
S214006D0047FE20460DF5337DF0BD836A32461B6B89
S214006D102946DB6A01A898470446EFE74FF401745A
S214006D20EFE700BF702E002010B50024A36AB3F56D
S214006D30804F10D21B6BB3F5804F0CD20748FFF77D
S214006D4087FDA36A1B6B1B6B984704460348FFF737
S214006D501FFE204610BD0124FBE700BF702E00205A
S214006D60F0B58FB0044601A80E461546FFF7EEFEB6
S214006D709DF80C30012B12D1B5F5402F27D8B4F56D
S214006D80402F24D86319B3F5402F20D821462A4631
S214006D90304613F077FC002420460FB0F0BD0027E5
S214006DA0BB6AB3F5804F15D21B6BB3F5804F11D27B
S214006DB00A48FFF74DFDBB6A2A461B6B3146204644
S214006DC05B6B984704460548FFF7E2FDE4E740F2B0
S214006DD00244E1E740F20114DEE700BF702E002017
S214006DE0F0B58FB0044601A80E461546FFF7AEFE76
S214006DF09DF80C30012B1FD1B5F5402F06D8B4F501
S214006E00402F03D86319B3F5402F13D940F202443C
S214006E1020460FB0F0BDE258013225D104339D4222
S214006E20F9D82A463146204628F03DF90028EDD00C
S214006E300024EDE70023F2E70027BB6AB3F5804F96
S214006E4015D21B6BB3F5804F11D20A48FFF700FD31
S214006E50BB6A2A461B6B314620469B6B9847044606
S214006E600448FFF795FDD3E740F20344D0E740F22D
S214006E700114CDE7702E002070B58EB0044601A830
S214006E800D46FFF763FE9DF80C30012B22D144EA35
S214006E900503C3F30C03002B33D1B5F5402F04D9FB
S214006EA040F2024420460EB070BDB4F5402FF7D82D
S214006EB02544B5F5402FF3D8204604F5005428F0B5
S214006EC0EBF8AC4202D00028F6D1E9E70028E7D07C
S214006ED00024E7E70026B36AB3F5804F14D21B6B95
S214006EE0B3F5804F10D20A48FFF7B2FCB36A2946C2
S214006EF01B6B2046DB6B984704460548FFF748FDAA
S214006F00D0E740F20444CDE740F20114CAE700BFE0
S214006F10702E0020BFF34F8F0549064BCA6802F457
S214006F20E0621343CB60BFF34F8F00BFFDE700BFA7
S214006F3000ED00E00400FA0570B5D0B1C9B10E4E00
S214006F40431E013913F8014F2046325D02F003025A
S214006F50012A11F8012F08BF04F12000B55C05F0E6
S214006F600305012D08BF2032801A01D1002CE9D17B
S214006F7070BD0120FCE700BF755804000348044AB2
S214006F800449121A921028F0DAB800BF3441000003
S214006F90D0420000045D002008B5154B83F30A8834
S214006FA000F030F8FFF7EAFF124B13498B4212D37A
S214006FB00020124B12498B4218D3FDF793FE186837
S214006FC050F82240586840F82240013298688242C1
S214006FD0F5D30C33EAE70022F8E71C6844F82200F1
S214006FE001325C68A242F8D30833E4E70022F8E7EF
S214006FF008000020147D0400207D0400207D04008D
S214007000207D0400124B134A70B59A60D3F888208E
S214007010114D42F47002C3F888206FF0010205F5A6
S2140070200054226641F2FF7262660222C3F8D02044
S214007030BFF34F8FBFF36F8F4FF44036032003F03C
S214007040E1FE0320E66003F0C1FE2E6170BD00BFC6
S21400705000ED00E00040000000800044014B186096
S214007060704700BFCC5F0020054B1860054B1B6FB8
S21400707003F00703032B01D130F018B8704700BFA8
S214007080D45F0020008000502DE9F04104464FF008
S21400709001080C250D4E0CB9BDE8F08194FAA4F059
S2140070A0B0FA80F00F2808FA00F2C8BF103824EAB9
S2140070B00204CABF05FB006205FB0062B4325768D3
S2140070C0002FE8D09168C0B2B847E4E7802E0020D1
S2140070D008B50C4831F030FF192003F085FE28B1C2
S2140070E0192003F08FFE192003F070FE1A2003F01B
S2140070F07BFE28B11A2003F085FE1A2003F066FEF8
S214007100002008BD043304002DE9F0410E46174662
S214007110054618B30F2923D80378DBB1013BDBB251
S214007120022B19D8104AD35C6A78D340DB0717D5F0
S2140071300E4BD3F81043ACB931F060FE80463A46A9
S2140071402846314602F0BEFB404631F052FE20464D
S214007150BDE8F0817F23E7E70023E5E72224F6E792
S2140071602124F4E70224F2E7F830040000C00350BC
S21400717010B5044610B30378E3B1013BDBB2022B33
S2140071801AD8104AD35C6278D340DB0718D531F0A2
S21400719035FE0122617823788A4030214B4341F244
S2140071A0100103F1A04303F570335A5031F021FE6D
S2140071B0002010BD7F23E6E70023E4E72220F8E75F
S2140071C02120F6E7F830040010B5044610B3037823
S2140071D0E3B1013BDBB2022B1AD8104AD35C6278CB
S2140071E0D340DB0718D531F009FE012261782378F9
S2140071F08A4030214B4342F2100103F1A04303F5CD
S21400720070335A5031F0F5FD002010BD7F23E6E7BD
S2140072100023E4E72220F8E72120F6E7F830040010
S21400722038B50D46044618B311B30378E3B1013BF5
S214007230DBB2022B1AD8104AD35C6278D340DB0745
S21400724018D531F0DBFD30222378534303F1A043F9
S21400725003F570335B696278D34003F001032B704B
S21400726031F0C7FD002038BD7F23E6E70023E4E7C2
S2140072702220F8E72120F6E7F83004002DE9F04157
S2140072800D4616469846044600284FD000294DD095
S2140072900178002940D04B1EDBB2022B3ED8254A8F
S2140072A0D25C6378DA40D20701D4FF2940D1022E9F
S2140072B001D9042E3CD131F0A1FD23780746FF2BDF
S2140072C005D032462046296802F042FB28602B682B
S2140072D0013309D12378FF2B06D1174B6078D3F8FA
S2140072E0241428F06BFC286029684B1C18D00C234B
S2140072F0124A03FB0122069BC2F80480936023789F
S214007300FF2B04D001230E4A8B40C2F824343846A3
S21400731031F06FFD002007E07F22C2E70022C0E7C1
S214007320384631F066FD2D20BDE8F0812220FBE7CF
S2140073302120F9E7F830040000C00350802E00201A
S21400734000D0035008B502F0B3FA044B00F05530F5
S214007350C3F82004BDE80840FFF796BE00E00350DF
S21400736008B502F0A5FA044B00F0AA30C3F82004D2
S214007370BDE80840FFF788BE00E003502DE9F04F57
S214007380144605460E469B46C36B87B001225B69D2
S21400739002A960689847EB6B01225B6903A9304637
S2140073A0984702A828F0CAFA074648B10023A375F2
S2140073B063754FF0FF33A360002007B0BDE8F08F81
S2140073C003A828F0C8FA0123A375237E04EBC303A1
S2140073D0DE611F846368B3420ED1206003A828F0E4
S2140073E0DCFA4FF0FF332075A360237D043B022BAD
S2140073F026D80023A375DFE723681A1A53425341A1
S214007400A37503A828F0C9FA237D834218BFA77581
S21400741003A828F0A4FA074602A828F0A0FA874294
S21400742018BF002303A818BFA37528F0A0FA0746C4
S21400743002A828F09CFA87421CBF0023A375D4E755
S21400744003A828F08CFA80B1EB6B022230465B6909
S21400745004A9984704A828F091FA0346207D03283B
S21400746039D8DFE800F03838040903A8F3E7CC225F
S214007470237E04EBC3031A8401F06EFC109B187085
S21400748003A8277E28F05FFA04EBC70787F82200D8
S214007490237E03A804EBC303B3F8209093F822706E
S2140074A028F05DFA804603A828F061FA8246B8F113
S2140074B0000F15D0EB6B022230465B6904A9984793
S2140074C004A828F020FA6075637D6BB90023A375C5
S2140074D04FF0000838E0227E04EBC2021384CBE7AC
S2140074E003A828F0FBF9EEE794F81680B8F1000F31
S2140074F0EED0B9F1000F09D1DFB10123E375637E49
S214007500002B4FD1012F42D1677614E06B6C06EB4F
S2140075100A015A4286EA010010421CBF0022A275E8
S2140075205A1E0A409B1A9945D0D8A37D002BE3D15A
S214007530CEE7E37D43B94FF000084B46524631464E
S214007540284627F046FFA060A27D12B123694B446F
S21400755023611A49237E097899422AD90133237672
S214007560BBF1000F27D032B3E37D23B3B8F1000F91
S21400757021D1032F1FD0A1684B1C1CD0109B224684
S214007580009328460123FFF7F9FEA07513E095F84F
S214007590343063B9EB6A0133CFD1032FCDD1012349
S2140075A0A376C8E7012FCFD0032FC4D1F7E79846BC
S2140075B0C3E70023A375A07DFFE600BF1C310400CF
S2140075C02DE9F04F0E46984600238BB004464FF048
S2140075D0FF31104617468DF8133001F0A7FBB6F5BD
S2140075E0801F20D2314605AA04F1080028F0F8F8DA
S2140075F0451C014603D1237CBBB92D2010E038463C
S21400760001F094FB0122394620460DF1130327F0C2
S21400761032FF0028EFD09DF8133088F800300020A5
S2140076200BB0BDE8F08FB01CE5D1E56A691C36D119
S2140076302046616A27F013FE0546B31C18BF0123D7
S214007640DFF8CC900193636A626C0293236805A905
S21400765002FB053AE36B05225B695046984705A88E
S21400766028F007FA28F02AFA504628F032FA4FF0A7
S214007670000B824601464B1C05D0636C81EA0A0269
S2140076805B42134211D02946204627F0E8FD029BB4
S214007690AB422CD0BBF1000F2CD10546D3E72368B4
S2140076A0ED1A636CB5FBF3F5C7E7484601F03EFB01
S2140076B00DF1130349462046019A27F0DCFE0346E7
S2140076C090B1B21C03D0D9F80020B2420CD19DF87C
S2140076D0132003930D4B88F8002049461A68384655
S2140076E012F0D0FF039B9B46D9F80810C3E7BBF106
S2140076F0000F82D0B6F5801F91D2314698F8003040
S2140077007A6804F1080001F03FFA88E718310400AF
S2140077105C3600202DE9F3410446174698460E468F
S214007720184D816AE36A8B4201D04B1C02D102B02D
S214007730BDE8F081284601F0F9FA012229462046E4
S2140077400DF1070327F097FE38B143462946204639
S2140077509DF80720B8470028E9D0A9684A1C04D13C
S2140077606968204627F008FE0146012EDAD16B68CC
S21400777081EA0302636C5B421A4218BF4FF0FF3186
S214007780D0E700BF303600202DE9F04F4FF0FF3332
S2140077904FF6FF720025044600F10806C0E90923EB
S2140077A08BB0C362056205633046884627F0E9FF62
S2140077B0204627F024FD60BB2046414627F09FFD6B
S2140077C0204627F01CFD60BB5E200BB0BDE8F08FA6
S2140077D02368E26B606C576900FB0530052205A93B
S2140077E0B84705A828F045F9012807460CD12946D0
S2140077F0204627F055FD012F024600D101322946CA
S214007800204627F01BFD03E028F05DF90028EED1A6
S2140078100135E3699D42DBD3204627F0F0FC0028C3
S214007820CAD000254FF0FF394FF6FF73CA46A84668
S214007830C4E90853E36998450AD3A5EB0905012D69
S2140078402CD84FF6FF72636A93423CD16720BCE7A0
S2140078502368E26B606C576900FB0830052205A9B7
S214007860B84705A828F005F9834605A828F0D8F8F3
S2140078700746584628F022F968B1574538BFC4F87D
S2140078802480B94528BFB946BD4238BF3D46BA46F2
S214007890236A0133236208F10108CBE74FF6FF7332
S2140078A000256362E3699D42CBD2676C2068E36B78
S2140078B0052207FB05005B6905A9984705A828F07F
S2140078C0AFF80135EEE7E26B676C2068694607FBA8
S2140078D0030055690522A847684628F0A1F8626AA1
S2140078E02368606C4B4D00FB023028F0F2F84FF036
S2140078F0FF33A062E3622A466FF00101204605AB23
S214007900FFF75EFE002846D1AD6829462046E562B0
S21400791027F051FC206320B92046E16A27F02CFDB1
S214007920E0622946204627F027FD0546A36A9D42C9
S21400793033D1204627F012FC00278046B946E3697B
S21400794099453CD3B84559D92046616A27F087FC4B
S2140079500026054604F1400AB74212D8626C236836
S214007960694602FB0539E36B05225B694846984782
S214007970684628F055F8534602464946E06B28F01C
S214007980AAF82946204627F06AFC0136B045054687
S214007990E2D1642019E7A56AB7E72946204627F012
S2140079A00AFC236B2946034407462363204627F038
S2140079B0E3FC0546002FB9D1C4E90B07B6E7636CB4
S2140079C02568052203FB0955E36B05A95B69284674
S2140079D0984705A828F04DF828F070F858B12846C2
S2140079E028F077F80146204627F0E5FB636C143B49
S2140079F0984208BF013709F10109A0E7304627F091
S214007A00C0FE002320461946034AFFF783FE0020E7
S214007A10DBE600BF8836002065F402002DE9F04161
S214007A20036B9046826B07689A4288BF8363426CFA
S214007A30436A90B002FB0377C36B0E46052201A98A
S214007A405B6904463846984701A828F012F80128D2
S214007A500146307057D0656CE26B2368606AD2F8D6
S214007A6014C005FB0030052206A9E04706A828F04A
S214007A7000F801284FF0000523D0D4E90A3201218E
S214007A809342CDE90B458DF834800E958DF83C1069
S214007A902AD11946204627F06FFC236B626C1433FC
S214007AA09B1AE06223630C9B53B99DF83C303BB1B4
S214007AB0626A616C2368E06B01FB023127F091FF7C
S214007AC00C9DE36B05225B6901A93846984701A81F
S214007AD027F0CFFF30702846236BA26B9A4288BFF0
S214007AE0A36310B0BDE8F081237C33B91C490BAA10
S214007AF004F1080001F096F8D5E72046194A0BABCA
S214007B00FFF708FECFE7237C23BB2246164904F185
S214007B10080001F087F8616A204627F0C1FB616A19
S214007B20421C204627F08AFB054620B9236B626C70
S214007B301344143B23632046A16A27F01DFC2368E8
S214007B40A062C01A636CB0FBF3F06062204627F0B8
S214007B5056FCB6E700232046044AFFF7DBFDDAE7CB
S214007B60C18200003D820000FFF402009BF4020088
S214007B7073B50D46D11E4A421C461B7E4A419A42A8
S214007B8026D129682368994222D3636899421FD870
S214007B90114E0DF107033246FFF712FDC0B97268A9
S214007BA06B689A4214D19DF80730DA1E534253414F
S214007BB0227E93420CD1636901336361D4E90323C7
S214007BC0934205D22968A26842F823100133236144
S214007BD0012002B070BD00BF883600202DE9F04FAE
S214007BE09B4689B09DF848309046514A01931369E8
S214007BF007465B450D46C0F09580D946536800930E
S214007C00B9F1000F7BD0FB6B01225B6905A90098D8
S214007C10984705A827F09FFE454B1B68984240F002
S214007C20848005A827F0A3FE0428064615D105A8DB
S214007C3027F0A4FE009B04461E44019B002B3ED169
S214007C40804512D91C46A8EB00083846009927F054
S214007C5093FBA9EB04090090D2E7FB6B02225B6959
S214007C60009806A9984706A8E2E7A0EB08045C453A
S214007C7028BF5C46032C4644ABEB040B1DD9FB6BBC
S214007C80294630465B69A208984724F0030304F0AF
S214007C90030A1E441D44DDF80480BAF1000FD4D058
S214007CA0FB6B012206A930465B6998475246284678
S214007CB006A912F0E7FC5544C7E7A246EBE7824662
S214007CC000F0030302932B1803930644039BA6EBD2
S214007CD00A00A3EB0A05029B9A4514D1BAF1000FDD
S214007CE0B3D0FB6B012206A95B699847524628462B
S214007CF006A912F083FE0028DDD04FF0360948466C
S214007D0009B0BDE8F08FFB6B012206A95B699847B6
S214007D100422284606A912F071FE0028EDD1AAF129
S214007D20040AD3E74FF06309E9E74FF06F09E6E787
S214007D30B43600202DE9F0410F4616469846044614
S214007D4088B060B390F83450FDB1012127F04CFAAA
S214007D5000210E9BCDE90511CDE902379DF83C3098
S214007D60CDF804808DF81C30237C04968BB90D4921
S214007D7001AA04F1080000F055FFDDE90553E06BA9
S214007D80002E08BF1D4627F0C8FB284608B0BDE8F1
S214007D90F0812046044A01ABFFF7BCFCEDE7054640
S214007DA0F3E700BFC9F40200717B00007FB590F8CE
S214007DB04260044601920DF10B030A463046114913
S214007DC027F0B3FB012E0546E36B17D132465B69FD
S214007DD003A998479DF80B10039B019A59B19BB2D3
S214007DE043EA0243012228460393E36B03A99B69F7
S214007DF0984704B070BD62F30F03F3E701229B6956
S214007E0001A9F5E7B43600202DE9F04F99B00E46EB
S214007E100D920A69416C0B931439D31DB3FBF1F331
S214007E20013302EBC302036B04469342C0F00182A7
S214007E300023DFF804940893E36A4846194605933E
S214007E4000F074FFD6E9033707930B9B022B4DD146
S214007E50CC2F40F0D7810D9B3BB13146204627F012
S214007E60BAFB656C1490012044E00120079B656C0A
S214007E701B68149300F0010000280CBF042308239D
S214007E80782F0E9349D8059A6B1E1340ED1A3B1DAA
S214007E909D423CD2002F3DD0082D3ED8002304251D
S214007EA006934FF0040A336806990B98C9F8003019
S214007EB0C9F8107027F075FD4FEA9A030F93059BDB
S214007EC089F814000393002309930C9304930A93F0
S214007ED0616C039B4A1E1A408B1A27B35544AB426B
S214007EE023D8236B5B1A134423632FE1782F656C2A
S214007EF0B9D8F07D0D9B002BBCD0E36B01225B69EB
S214007F00706816A9984716A827F029FDB4E700253B
S214007F100695C6E704250697C3E7012300254FF01C
S214007F20080A0693BFE75345DBD3A3EB0A02974242
S214007F30039BB84628BF90469742534428D901224F
S214007F40D9F8101089F817208F4226D10399C9F85E
S214007F500410049299F817200AB399F81810039899
S214007F60CA1C09EBC202506004980131A2F80880CE
S214007F70907289F81810B8F1000F07D00B9A022AF1
S214007F8040F08180099A72B1012209929B46ABE0CB
S214007F90049A002A18BF0322DBE70222D9E7039AD5
S214007FA0C9F80420E7E70C9A4244032AEED9E26BAC
S214007FB01846956914A901220993A847099B054606
S214007FC00028E1D03D2D40F01E8104F10803039304
S214007FD02368059A606CA2EB030ABAFBF0FA00FB72
S214007FE00A3027F076FDE16A8046204627F0C4F97D
S214007FF0A26A824200F00F81626CD9F80830511EE6
S2140080000B40216B2768891A0B442363089BE062A8
S214008010DF1BB7FBF2F7BA4540F0FA80059BB3EBDF
S214008020080A12D0E36B4FEA9A0241469B699847CA
S2140080308346E36A059A5344E362236B03989B1ACC
S2140080404344236327F09DFBDA462368616CE06BAC
S21400805001FB073127F0B2FC204627F0D0F8204677
S21400806027F0CDF92063BAF1000F00F0D480326912
S214008070616CD31D1439B3FBF1F3013302EBC30279
S2140080809042A5D2BFE00D9A002A77D1B8F1030F2F
S2140080904FEA98026ED9E16B18468D6907991093DE
S2140080A0A847109B0546C0B918F0030515D0079AD7
S2140080B028F0030B02EB0B019B444FF0FF3215A890
S2140080C015922A46109312F0DDFAE26B584695692F
S2140080D015A90122A8470546109B9B46079A4244CD
S2140080E00792002D40F08B80049B16A80193069BF8
S2140080F0009399F814204346316800F0CDFDE36BF9
S2140081000F9A9B69039816A99847039A051E089B21
S21400811018BF13460893434652462046039927F055
S21400812058F9236B08F10302A3EB0A0322F00302BB
S2140081309B1AC9F808002363002D7FF443AF0C9BFD
S214008140A7EB080743440C93CDF80CB020460399E0
S21400815027F012F900250390002F7FF4B9AE364AB7
S2140081603168936804F10800E36252680B9B00F0E4
S2140081700BFD49E09B46454607999EE79B4606F160
S21400818020021092F27D7068A2B1002296F818C004
S2140081900A99D5B2AC4511D9109D02F1010E35F8F9
S2140081A032508D4228D90E9806EBC2020144D0699F
S2140081B0084403E00E9A0A990A441044E26B15A993
S2140081C0556901221193A847159A0A9B1392E26BF0
S2140081D0043395695846012213A90A93A847119BB0
S2140081E0054603EB0802A2EB0B02042A7FF679AFE2
S2140081F028B90BF1040BC5E77246491BC9E7CDF851
S21400820020B088E770252F46384619B0BDE8F08FB5
S2140082104FF0000A19E73269616CD31D1439B3FBBD
S214008220F1F3013302EBC302236B9342BFF404AEB7
S214008230E9E71C27E8E700BF5C360020032A2DE9A3
S214008240F34106460D4617461C4606D1237A012BF7
S21400825023D0012002B0BDE8F081DFF86080096815
S21400826042460DF10703FFF7ABF960600028EDD139
S2140082709DF80720237A032AE8D0D8F804106A6805
S2140082809142E3D1012B2969D4F80CC007D1726959
S2140082900CEB0103934202D92074207CDAE7083104
S2140082A06144E1603B46012229463046FFF7ACFDBB
S2140082B060600028CAD00020CCE700BF88360020C7
S2140082C02DE9F341089C032A1746266806D1237A2F
S2140082D0012B24D0012002B0BDE8F081DFF89080A9
S2140082E0304642460DF10703FFF76AF96060002842
S2140082F0EDD12568D8F80400A96AD5F844C04840EE
S214008300CCF100031840227AE1D1012A09D1E268B3
S214008310D8F8103013447269934202D92074207C36
S214008320D9E72868EB6A1B1A081AB3FBFCF3B0FB04
S214008330FCF083420BD1706CF36A421E1340326B22
S214008340121A13442846336327F016F8E862D8F862
S2140083501020E36808321344E36001223B460449D8
S2140083602068FFF751FD60600028B0D00020B2E71B
S214008370883600202DE9F0410025604B0E46D3F8E4
S214008380008004461D6018B921252846BDE8F08106
S21400839090F8347007B30A6803689A4240F0A380E6
S2140083A04A6843689A4240F09E808A6883689A4288
S2140083B040F09980CA68C3689A4240F094800A697F
S2140083C043699A4240F08F808A69C36B9A4240F0B4
S2140083D08A804B698361D8E768223946856B11F03D
S2140083E0C1FFD6E90212336804F1080023607368FF
S2140083F0A5636360336963617369A36127F0D3F98A
S214008400B36904F14000E3639B68984720B9676C42
S21400841017B16368B3FBF7F794F84330E761002BB6
S214008420B2D00023656C2366002D64D0002F62D086
S2140084302368B3FBF5F205FB1233002B55D16668B3
S214008440B6FBF5F305FB1363002B4ED1204626F052
S214008450A2FEA369043303449E4248D340F6347216
S2140084606369CC3B934244D8B5F5805F43D3032180
S214008470204626F0B9FED4E90001E36B1B68984756
S2140084800546E36B0220DB689847CDB94146204697
S214008490FFF77AF96428054604D141462046FFF7DF
S2140084A073F90546666C5DB9236A2046143E5E4342
S2140084B026F071FEA369043303449E4238BF5A2552
S2140084C0002D0CBF0123002384F8343007D1D4E9F3
S2140084D000010B4A13680133136027F0FEF9E06BC6
S2140084E027F01BF851E75D254FE759254DE75A253C
S2140084F04BE75F2549E75B2547E700BFEC2F0020E9
S214008500E82F00202DE9FF410C4616461F4605467B
S21400851080B390F834307BB3B1F5801F2ED2DFF8ED
S2140085206080012126F060FE2146424628460DF175
S2140085300F03FFF745F8044670B99DF80F30012B7E
S21400854011D1D8F81030BB4212D102460090314605
S2140085502846FFF743FB0446E86B26F0DEFF20467E
S21400856004B0BDE8F081022B14BF2D246024F3E78D
S2140085706324F1E72124F2E71124F0E72924EEE74B
S214008580B43600202DE9F04385B00C4617461E464B
S2140085900546DDF8308098B390F8343093B3B1F5E3
S2140085A0801F31D2DFF86490012126F01DFE21469F
S2140085B04A4628460DF10F03FFF702F8044688B92D
S2140085C09DF80F30012B14D1D9F8102006EB0803C4
S2140085D09A4213D300904346324639462846FFF760
S2140085E0FDFA0446E86B26F098FF204605B0BDE885
S2140085F0F083022B14BF2D246024F3E76324F1E7F5
S2140086002124F2E71124F0E72924EEE7B43600200F
S21400861073B50C461646054630B390F834302BB387
S214008620B1F5801F24D2012126F0DEFD2146284622
S214008630104A0DF10703FEF7C3FF044680B99DF804
S2140086400730032B0CD0022B0CD12846094926F004
S214008650C2FF3060E86B26F060FF204602B070BDB7
S2140086602D24F7E76124F5E72124F6E71124F4E743
S2140086702924F2E7B43600202DE9F3411E460023F4
S2140086800C4617460546336050B390F834304BB36B
S214008690B1F5801F28D2DFF85480012126F0A4FD12
S2140086A02146424628460DF10703FEF789FF044699
S2140086B0A0B99DF80730032B10D0022B03BF01236F
S2140086C03B600423D8F8103018BF38603360E86B7E
S2140086D026F023FF204602B0BDE8F0812D24F6E701
S2140086E02124F7E71124F5E72924F3E7B436002020
S2140086F073B50446056B26F04EFD636E03449D423B
S2140087002CBF00230123854294BF00252D1A207C10
S21400871084F85030656584F85800A8B100230C4EE4
S2140087201A4619462046009627F019F800230546F3
S2140087301A4619462046009627F01AF8E368284499
S214008740984294BF0020C01AE06502B070BD00BF1A
S214008750FFFF0F002DE9F3471E4643690446B34268
S214008760884617469DF828904ED300258DF807506A
S214008770204626F010FDD4F830A082450AD2236A9F
S214008780B5EB430F06D2002220460DF10701FFF796
S21400879045F9B8B39DF80730012B05D100222046D5
S2140087A00DF10701FFF73AF9B9F1030F06D031468C
S2140087B0204626F0E0FC256B854227D3144D4FF06B
S2140087C0FF31284600F0B2FA4B46294600222046E2
S2140087D0C5E90376C5F80080FFF716FB236E05464D
S2140087E063B12046FFF784FF94F8503013B994F82D
S2140087F058301BB1236E04F150009847284602B04B
S214008800BDE8F0870135B3E76225F7E71C25F5E7F5
S214008810883600202DE9FF410F4690461E46054645
S21400882098B390F8343093B3B1F5801F31D21A4C18
S214008830022126F0D9FC2246394628460DF10F03C0
S214008840FEF7BEFE024678B1012342460093394643
S21400885033462846FFF77EFF0446E86B26F05DFEAB
S214008860204604B0BDE8F0819DF80F30012BEBD117
S2140088702169B142E8D10093414633462846FFF7C6
S214008880ADF904460028DFD1E7E72124E8E7112404
S214008890E6E72924E4E700BFB43600202DE9F047D8
S2140088A090F8423086B0012B05460391A1EB0207F3
S2140088B040F0AA80FF2F03D81E464FF0640807E05A
S2140088C00226012B14BF4FF032084FF06408013621
S2140088D000244FF6FF79DFF844A195F84230012BCB
S2140088E014BF322364239C4202D35FFA88F40DE05F
S2140088F005AB22465146284626F04BFE95F84230F8
S214008900012B059B34D14B452DD1E4B295F842306E
S214008910012B14BF32226422121BB24217D3012E3F
S21400892039D10022012B05978DF8132027D1082274
S21400893005A90DF1130027F0E8F89DF81330059A05
S21400894042EA032221462846FFF730FA40B10223C6
S214008950324900932846CC23096803AAFFF7FAFE9B
S21400896006B0BDE8F087DBB203B902340134B4E7E1
S214008970591CCAD09BB2002BF8D10134F6E710225E
S21400898005A90DF1130027F0C0F89DF81330059ADD
S21400899042EA0342D6E7039A012B059223D1082325
S2140089A0202205A90DF113008DF8133027F0ADF83D
S2140089B09DF81320120221462846FFF7F7F995F88E
S2140089C04230611C012BC9B21AD10028BFD12846FB
S2140089D0BDF81420FFF7EAF90028B8D10234BDF834
S2140089E01620E1B2AFE71023202205A90DF11300EF
S2140089F08DF8133027F089F89DF813201204DAE773
S214008A000028A4D1059A9EE7B7F5803F4FF00106EF
S214008A10BFF457AF4FF032085AE700BFB436002015
S214008A2070B586B00E4605460392A0B390F8343073
S214008A309BB3B1F5801F32D2022126F0D5FB31461A
S214008A402846184A0DF11703FEF7BAFD044618B972
S214008A509DF81730032B0ED102233146009328468B
S214008A60CC2303AAFFF776FE0446E86B26F055FDF6
S214008A70204606B070BD022B0BD10A49284626F0C8
S214008A80AAFD039902468142EFD02846FFF706FF6B
S214008A90EAE76124E9E72124EAE71124E8E7292444
S214008AA0E6E700BFB4360020F7B50C461646054686
S214008AB068B390F8343063B3B1F5801F2BD202212F
S214008AC026F092FB21462846144A0DF10703FEF7CE
S214008AD077FDC0B99DF80730032B14D0022B14D1B4
S214008AE00E49284626F077FD471C0246394628469A
S214008AF0FFF7D4FE044606B13760E86B26F00DFD9E
S214008B00204603B0F0BD2D24F7E76124F5E72124C5
S214008B10F6E71124F4E72924F2E700BFB436002074
S214008B2030B50C46054685B028B390F8343023B3EC
S214008B30B1F5801F23D2022126F056FB0DF10F035C
S214008B40214628460F4AFEF73BFD034688B99DF8A6
S214008B500F20032A0DD00322214600920246284603
S214008B60FFF7F8FD0446E86B26F0D7FC204605B074
S214008B7030BD2D24F7E72124F8E71124F6E7292451
S214008B80F4E700BFB43600202DE9F043466886B30C
S214008B90056898464FF0000CA946AE4655F83C408E
S214008BA00CF1010CC4F31307013401D0B94217D0FD
S214008BB0B4450EF1080EF1D12F46002403E0B4426E
S214008BC007F1080712D055F8343001340133F6D1D6
S214008BD0C1F3130141EA0851C7E90012BDE8F0836A
S214008BE041EA0851CEE90012BDE8F083B8F1030F60
S214008BF003D101230372BDE8F083002303E0B342F0
S214008C0009F10809F5D055F833400133C4F3075489
S214008C10032CF4D1C1F3130343EA0853C9E9003225
S214008C20BDE8F0832DE9F0410646406882B0B8B151
S214008C300F4690460024336853F8345003EBC403C1
S214008C40C5F30752C5F31301013506D05B683046FD
S214008C50CDF80080B84718B1706801348442EAD372
S214008C6002B0BDE8F08100BF024B1968024B1868DD
S214008C70FFF780BBD85F0020F85F002008B530F013
S214008C80B0F8014B186008BDE0360020014B1868AC
S214008C9030F0A2B8E036002073B504462248012A18
S214008CA000EAC1119DF8185023F07C4007D9961EA3
S214008CB0012E28D9073303F07F03194308E09DF8F7
S214008CC01C300A43DB0603F0C053134343F06041F5
S214008CD00023C4E900108DF80730B5B120222146E4
S214008CE00DF1070026F011FF1A220DF10700211DD5
S214008CF026F00BFF082063689DF8072043EA82638E
S214008D00636002B070BD1143E2E71B220DF107005D
S214008D10214626F0FAFE23689DF80720042043EA41
S214008D20C2632360EDE700BF80FFFF0738B5094B3D
S214008D300D461A680021044611F014FB00234FF07C
S214008D40FF322383C4E900252361A260E382A37671
S214008D5038BD00BF183104000138C0B205289ABFDC
S214008D60014B185C012070471D3104002DE9F041CD
S214008D700746154600240E46596888B0490A012958
S214008D8022464FEA510104F10104F8D8DC789978BC
S214008D9024031B88C90201F4006104F480540C43C8
S214008DA0C3F30A035203234492B24FF000089C1800
S214008DB0274B6FEA0444039325F07843ED4302A95A
S214008DC00DF107001B2202938DF8078026F09DFE0A
S214008DD09DF80720029B02A943EAC2630DF1070033
S214008DE01B2225F07845049302958DF8078026F01F
S214008DF08CFE9DF80720029B6FEA144443EAC26388
S214008E0005934FF0FF330794069307A9BB69012229
S214008E1006F110009847BB6905A90446012206F131
S214008E2008009847BB69404518BF044604A90122BC
S214008E30301D98470122404518BF0446BB6930469E
S214008E4003A99847404508BF204608B0BDE8F08112
S214008E5001009AB238B5104B0546D3F800310C46DF
S214008E6003F00303022B0BD0032B0DD0012B0FD1E5
S214008E702EF036F9032305B1286004B1236038BD0F
S214008E802EF078F90723F6E72FF0BEFF0623F2E769
S214008E9001230020EFE700BF0080005038B5134BD9
S214008EA00546D3F820010C4600F0070004281AD81F
S214008EB0DFE800F003090D111500012305B1286055
S214008EC004B1236038BD2EF0D1F80423F6E72EF067
S214008ED007F90323F2E72EF009F90523EEE72EF053
S214008EE0FBF80223EAE700231846E7E70080005075
S214008EF038B5104B0546D3F840310C4603F0030353
S214008F00022B0BD0032B0DD0012B0FD12FF07EFFA1
S214008F10082305B1286004B1236038BD2EF02AF975
S214008F200723F6E72FF075FF0923F2E70123002059
S214008F30EFE700BF0080005038B5104B0546D3F869
S214008F4060310C4603F00303022B0BD0032B0DD02D
S214008F50012B0FD12FF05AFF082305B1286004B16A
S214008F60236038BD2EF006F90723F6E72FF051FFF1
S214008F700923F2E701230020EFE700BF008000503E
S214008F8041F6713210B5104C104BA04294BF00242D
S214008F900124D969DA639A6801F4803122F4401218
S214008FA042EA04529A600A4A90420A4AD2F81802E2
S214008FB08CBF40F0020020F00200C2F8180209B18F
S214008FC00022DA6310BD00BF005A620200000350A0
S214008FD080F0FA0200C007502E4B98424AD022D8A2
S214008FE02D4B984240D014D82C4B984239D00AD8F2
S214008FF02B4B984232D02B4B98422FD02A4B98427C
S2140090002CD000207047294B9842FAD1284B186F75
S2140090107047284B98422AD0274B9842F1D1244BD0
S214009020D3F880007047254B98422BD009D8244BA4
S214009030984223D0234B9842E3D11D4BD3F88C00A3
S2140090407047214B984221D003F5740303F5105363
S2140090509842D6D1164BD3F898007047144B986DAB
S2140090607047134B586E7047114B586F7047104B34
S214009070986F70470E4BD3F8840070470C4BD3F8AC
S214009080880070470A4BD3F890007047084BD3F817
S214009090940070470048E8010024F400C0CF6A003E
S2140090A080841E0000093D0040420F00405DC6005F
S2140090B00080E00FC0EA210180BA8C01007E5603D2
S2140090C080D54302006CDC020090D00337B50C4616
S2140090D00021114B0191D3F88031054603F00303BC
S2140090E0022B0ED0032B11D0012B03D101A8FFF7C2
S2140090F0D5FE0D210DB1019B2B6004B1216003B09C
S21400910030BD2DF0F3FF05210190F3E72DF0E4FFCD
S21400911002210190EEE700BF0080005038B5104BEA
S2140091200546D3F840320C4603F00303022B0BD05F
S214009130032B0DD0012B0FD12FF068FE082305B1AD
S214009140286004B1236038BD2EF014F80723F6E734
S2140091502FF05FFE0923F2E700231846EFE700BF73
S2140091600080005038B5144B0546D3F800020C4674
S21400917000F0070004281BD8DFE800F003090D11F3
S2140091801500012305B1286004B1236038BD2FF017
S2140091903DFE0823F6E72DF0EDFF0723F2E72FF05C
S2140091A038FE0923EEE72DF081FF0C23800AE9E75D
S2140091B000231846E6E700BF0080005038B5144B81
S2140091C00546D3F808020C4600F0070004281BD812
S2140091D0DFE800F003090D111500012305B1286032
S2140091E004B1236038BD2FF011FE0823F6E72DF0FA
S2140091F0C1FF0723F2E72FF00CFE0923EEE72DF060
S21400920055FF0C23800AE9E700231846E6E700BF6F
S21400921000800050032814D005D8012805D0022865
S21400922009D0002005E00F28FBD1084B186FC0F3CB
S214009230013001307047054BD3F89000C0F304604E
S214009240F7E7024B186FC0F38020F2E7008000506B
S2140092501FB500230193252817D8DFE800F0131A5E
S2140092601D272C363B51565B60656A78161A4016E9
S21400927016561A272C27361A5127783B3B3B3B2796
S21400928027275B602DF0F8FE0190019805B05DF889
S21400929004FB2DF00BFFF7E72DF0EEFE0246022052
S2140092A0FFF7B8FFB2FBF0F20192EEE72DF0FEFEFC
S2140092B002460320F4E72DF0F9FE02460320FFF7EE
S2140092C0A9FFB2FBF0F25208EEE7002101A8FFF773
S2140092D0FDFEDAE7002101A8FFF7E0FDD5E70293DF
S2140092E04FF0E0231B695B0705D52DF0DFFE0290EB
S2140092F0029B0193C9E703A902A8FFF7F9FDF7E768
S214009300002101A8FFF7F4FDBFE7002101A8FFF741
S21400931013FEBAE7002101A8FFF724FFB5E70021F6
S21400932001A8FFF74BFFB0E7002101A8FFF792FD69
S214009330ABE7094BD3F8803003F00303022BA8D029
S214009340032B01D000209FE72DF0D0FE9CE70021E4
S21400935001A8FFF7E3FE98E70080005008B501205B
S214009360FFF776FFBDE808400349884294BF012115
S2140093700221032000F002B880F0FA02032810B59C
S2140093800C4627D004D8012804D0022817D010BDD8
S2140093900F28FCD126F0D7FB26F0DDFB124A013C55
S2140093A0136F23F4405343EA043313672DF07EFE15
S2140093B00021FFF7E5FDBDE81040FFF7CFBF0A4AE2
S2140093C04C1ED2F8903023F0F85343EA0463C2F8F8
S2140093D09030DCE7044A4C1E136F23F4806343EAA4
S2140093E084231367D3E700BF008000501FB5002317
S2140093F00193252821D8DFE800F013202020202A1A
S2140094002F454A4F54595E7120203420204A202090
S21400941020202A204520712F2F2F2F2020204F5428
S214009420314B1B6F03F00703013B032B05D8DFE826
S21400943003F00C02080A04230193019805B05DF8B6
S21400944004FB0323F8E70623F6E70223F4E70020ED
S21400945001A9FFF73BFEF0E7002001A9FFF71EFD7C
S214009460EBE702934FF0E0231B695B0705D52DF071
S2140094701DFE0B230393039BDEE703A902A8FFF759
S21400948037FDF8E7002001A9FFF732FDD5E70020F9
S21400949001A9FFF751FDD0E7002001A9FFF762FE02
S2140094A0CBE7002001A9FFF789FEC6E7002001A947
S2140094B0FFF7D0FCC1E70C4BD3F8803003F0030372
S2140094C0022B03D0032B05D00023B5E72DF0EEFDCD
S2140094D00B23B1E72DF00AFE0523ADE7002001A916
S2140094E0FFF71CFEA9E700BF0080005008B5032068
S2140094F0FFF790FE034B187026F025FBBDE80840EA
S21400950026F029BBED55002010B504462DF0CEFD03
S2140095100021FFF735FD1CB1BDE81040FFF71EBF68
S214009520034B0320BDE810401978FFF727BF00BFA4
S214009530ED55002038B50546FFF74EFD204B044696
S2140095405A68012A04D11F494A609A699207FCD1D9
S2140095500020FFF74BFF042803D126F0F4FA26F08C
S214009560FAFA194A24F0407395421FD0174A9542DA
S2140095701FD0174AD16811F0060FFBD19068936090
S21400958091684B4013F4F81F16D12846FDF766FD88
S2140095900020FFF72BFF042810D12DF087FD0021B7
S2140095A0FFF7EEFCBDE83840FFF7D8BE43F0007387
S2140095B0DFE743F08073DCE79060E9E738BD00BF83
S2140095C000C0015000E0015040420F0080841E00A1
S2140095D00000015070B504460020FFF707FF03287F
S2140095E07CD045F60E030221414AC2F88030414B3A
S2140095F09962012103F580539962936DD903FCD4D7
S214009600D4E900131B0543EA0163E17B94F8235079
S2140096100B43217B43EA0143617B43EA0133A17B91
S21400962043EA811313619169D4E904031B0643EAF4
S214009630806301F000410B43A17EE07E0B43217E58
S21400964043EA0143617E43EA01239361E169136AB9
S214009650002923F00D0343EA010314BF0121002172
S21400966043EA800343EAC103136294F8203094F877
S2140096702200916A4FEA431331D194F8216021F019
S214009680330143EA06130B4343F0010393621A497E
S214009690174A936D31EA0303FBD10221154B9962F9
S2140096A0936D5B00FCD41369A16823F4700343EA4E
S2140096B0015313614FF000420E4B9A6118B9022213
S2140096C003F580539A6215B901220C4B9A6294F8FE
S2140096D024301BB1064B0A4AC3F8802070BD21F027
S2140096E0330129430B4343EA40039362EFE700BF8D
S2140096F000C0005000D000500300014000E00050C1
S214009700F1A7FFFF014B93F900007047EE550020CC
S214009710014B1880704700BFE86400200C4A10B563
S2140097201369044643F0040313612EF02FF826F065
S21400973016FA084B084AC3F8202430BF26F010FA61
S21400974001F0E2FE1CB9BDE810402DF0AFBC10BD24
S21400975000ED00E000E003500000FFFF034A01793F
S214009760D36E23F030030B43D3667047004000509F
S21400977041F67132034BDA63012203F50053DA60D7
S214009780704700BF0000035041F671320121044BC0
S214009790DA6303F50052D1600022DA63704700BF37
S2140097A000000350044B1868421C02BF034AD2F85C
S2140097B094001860704700BFFC5F00200040005017
S2140097C0CB784A7810B55B010C7843EA82030A79B5
S2140097D0234343EA02130C22424302F1B0421363CE
S2140097E0012C02BF8A78024B43F8202010BD00BF30
S2140097F0D080035008B54FF0B0435A6802B960B144
S2140098005B680BB126F0B5F94FF0B04130B10120DE
S214009810074B586026F0ADF9C86008BD26F0A9F9D8
S2140098200223CB6026F0A5F90122024B5A60F4E72A
S21400983000100058002000584FF0B0414B6810B59B
S2140098400BB126F096F901220B4BC4785A60837848
S214009850934043EA840344782343047943EA041399
S214009860447943EAC4038B60044B5A600378C3F11F
S2140098700203CB6010BD00BF002000580010005847
S214009880054B5B69C3F38512827003F03F021B0B26
S21400989042700370704700BF00C007500120034BA2
S2140098A09B680A3303F01F03984070470080E00F60
S2140098B0034BD3F82424D3F820041040704700BF8D
