S01B00006275696C642F72656C656173652F7A69676265652E73333714
S21400600008100020C1900000D1D3000027590300DB
S21400601027590300D9D30000E1D300002759030015
S214006020275903002759030027590300275903005F
S214006030E5D30000D09A040027590300275903002F
S214006040275903002759030027590300918B0000A6
S214006050275903002759030027590300275903002F
S214006060275903002759030027590300275903001F
S21400607051D9000027590300275903002759030068
S21400608027590300275903002759030027590300FF
S21400609027590300275903002759030027590300EF
S2140060A0275903008D9400006D94000027590300C3
S2140060B02759030029180200275903008D220200E1
S2140060C021B103001DB10300691A020037B10300B5
S2140060D025B103005D22020029B10300CD22020093
S2140060E03929020035060200392302002759030029
S2140060F0275903002759030027590300275903008F
S214006100275903002759030027590300275903007E
S214006110275903002759030027590300275903006E
S214006120275903002759030027590300275903005E
S214006130275903002759030027590300275903004E
S21400614082B030BF074BD3F8F030DB0704D500230E
S2140061500193019B052B01DD02B07047019B0133C3
S214006160F6E700BF00ED00E0F0B5114A114C124E04
S21400617000F00105E3695F0713D40DB9334213D16C
S21400618003EA00078F4207D10B4A1A40002A14BFC1
S2140061906FF001000020F0BD013AEBD16FF0020075
S2140061A0F9E74FF0FF30F6E76FF00100F3E700BFC6
S2140061B08096980000000350020001000B4B70B55B
S2140061C0D96911F480310DD101244FF48072084E44
S2140061D0084DF46020462C641A61FFF7C5FF34644E
S2140061E0EC6070BD6FF00100FBE700BF00000350DD
S2140061F000100350002003504FF4003238B50F4B08
S2140062000F4C9A6641F671330122E569E3630D4B44
S2140062100021DA60022360612120236105F48035C5
S214006220FFF7A2FF10B92120FFF79EFF0122064BC1
S214006230DA600DB10023E36338BD00BF0090005064
S21400624000000350001003500020035070B5134C9C
S2140062506061E3695B071ED40E4656F8043B8D1852
S214006260A361AE420BD10423002121202361FFF756
S2140062707BFF58B9BDE870402120FFF775BF0821A5
S2140062800846FFF771FF10B10423236170BD56F86E
S214006290043BA361E5E74FF0FF30F7E7000003504B
S2140062A02DE9F84315464FF40032184B89469A6696
S2140062B041F6713203F51C33DF69DA6301220646C4
S2140062C003F58053DFF84C8007F48037DA6055B961
S2140062D0284601220E4BDA601FB10022A3F50053B8
S2140062E0DA63BDE8F88306F5005404EA0804A41B44
S2140062F0AC4228BF2C46494622463046FFF7A6FF4A
S2140063000028E6D12644A1442D1BE0E7009000506B
S20C0063100020035000E0FFFF2F
S2140063182DE9F04F4FF0FD0BC9B09A460DF11B0959
S2140063289DF8503108AFCDF80C90CDF808B001971D
S214006338059303890446009383790E469046418860
S2140063488288407810F0B0FF054650B10090A388C8
S214006358002062883A4911F0EBFA284649B0BDE8B1
S214006368F08F99F8000032F0AFF938B12846A388C4
S2140063786288344911F0DCFA8D25EEE75A4639462C
S21400638899F8000032F048F98346002851D0529B0D
S2140063981BB1BDF84C3198424BD8002399F80090B1
S2140063A80793A9F14102012A5FFA8BF123D83846F0
S2140063B80139254ADFF898C05FFA81FE734513DB7A
S2140063C8059B04210792C3B907AF18221F489FED03
S2140063D81A7B02FB060420460A460830394684ED36
S2140063E8027B16F027F911E010F8011F013351401F
S2140063F80CFB01F2E2E7059B33B123464A463846D2
S21400640800960EF079FEA8E70829DED9B8F1000F45
S21400641801D088F80090BAF1000F01D0AAF800B0B1
S214006428529B002B99D05A46184608A916F002F92E
S21400643893E7012591E700BF000000000000000078
S2140064488D440400C2440400C59D1C8180100020B1
S21400645893010001000000002DE9F04F93B0CDE94C
S2140064680A32DDE91C530E9353EC102BCDE90801D4
S214006478104619468DED060B1E9E15F065FB80B17D
S214006488DDE906014FF0FF32C54B15F085FB40B934
S214006498DDE906014FF0FF326FF4801315F05EFB5E
S2140064A870B1DDE908019DED060B0E9B1E96CDE941
S2140064B81C53DDE90A3213B0BDE8F04F00F088B986
S2140064C80022DDE90601002315F048FB002800F04D
S2140064D83381DDE906A303F1004BCBF30A5016F42B
S2140064E88063A0F2FF3008BF06250F9315F05AF810
S2140064F89BA3D3E9002315F0BFF89BA3D3E9002399
S21400650814F004FFCBF31304894644F07F51804609
S2140065180022A44B504641F4401114F0F5FE94A313
S214006528D3E9002315F0A8F802460B46404649462C
S21400653814F0ECFE15F03AFB044615F033F88EA37B
S214006548D3E900238046894615F096F80022964B34
S21400655814F0DCFE15F02AFB89A3D3E900230746CE
S2140065684946404615F088F880463846894615F06C
S21400657819F885A3D3E9002315F07EF802460B46E2
S2140065884046494614F0C0FE02460B46CDE90C23A9
S21400659815F072F8DDE90C23804689461046194640
S2140065A814F0B4FE0022CDE91001804B404649465F
S2140065B815F08CF900227E4B14F0A8FE02460B4616
S2140065C84046494615F082F900227A4B14F09EFEA2
S2140065D802460B464046494615F078F9DDE90C2395
S2140065E88046894600204FF0804114F08DFE024612
S2140065F80B464046494614F089FE02460B46DDE93E
S214006608100115F063F907F2FF3700226A4B14F001
S2140066187DFE00223B0515F02FF852465B46804665
S214006628894615F0B9FA002840F08980CDE90C892A
S21400663804F16303C62B8CBF0527042731051BD539
S21400664853A3D3E900235046594615F09BFA002871
S2140066587FD051A3D3E900235046594615F07EFA59
S214006668002876D00027A542C6BF2C1B04F1FF35AC
S21400667800253C4646F480660E9B9F422CBF4FF092
S2140066880008A3EB070816F0020903D0002F18BF6E
S2140066984FF000083CB1DDE90C235046594615F08A
S2140066A815F982468B46DDE906010022002315F01F
S2140066B855FA10B10BF100439B46DDE9080126F4B4
S2140066C80063CDE90183DDE90A324BEC10AB009597
S2140066D800F07EF802465FB3DDE9091316F0200FD6
S2140066E800F10105089E0CBF65204520B047DDE98E
S2140066F808010523002205930A23002CCDE902325F
S21400670807F1FF374FEAD473B8BF64422A460193AD
S21400671804970A9B009433F047FF0246B9F1000F2E
S21400672806D00B9BC41A0B9B1A190E9BA34245D87E
S214006738104613B0BDE8F08FDDE906ABCDE60022C3
S214006748404649461A4B15F0C1F8013CCDE90C0104
S2140067586EE7002D90D00F9B002B8DD0013D8BE768
S214006768FB799F501344D33FB3C8608B288AC63F33
S21400677861436F63A787D23F71A379094F930A4095
S2140067881655B5BBB16B0240EF39FAFE422EE63F0E
S2140067982D431CEBE2361A3F0000000080842E4191
S2140067A8FFFFEF7F0000F83F0000E03F00002C40AE
S2140067B800002440000018400000F03F2020DDE9DB
S2140067C80913089DA8470134ADE700BF0000000084
S2140067D82DE9F04F5BEC10AB97B0CDE90501DDE98C
S2140067E82058CDE90723504652465B465946229F15
S2140067F815F0AAF970B90323CDE902870193AA4BCD
S2140068080093DDE90501DDE9072333F0FFFD17B046
S214006818BDE8F08F4FF0FF326FF4801350465946AC
S21400682815F09CF928B10423CDE9028701939F4B04
S214006838E6E74FF0FF32504659469D4B15F0ACF947
S21400684868B19C4A07F00403002B08BF03229A4B42
S2140068581CBF13460422CDE902870192D0E75046B2
S2140068688DA3D3E90023594615F096F938B98CA3B9
S214006878D3E900235046594615F070F968B1DDE9AA
S2140068880723DDE905014BEC10ABCDE92187209500
S21400689817B0BDE8F04FFFF7DFBD002200235046D3
S2140068A8594615F05BF9002800F091805B46524681
S2140068B80020002114F028FD012382468B46099308
S2140068C817F4806400F08580092D40F28580002446
S2140068D830210EABA5F109020134202C03F8011B68
S2140068E8A5EB040901D09442F6D15946504615F056
S2140068F85DF9724B054603EBC90393ED007B8DEDFE
S2140069080A7B14F04FFE02460B465046594614F0D2
S214006918FBFCDDE90A2314F0AFFE02460B46CDE980
S2140069280C2315F06BF9064614F02CFE02460B46AF
S214006938DDE90C0114F0E8FC02460B46CDE90C2311
S21400694800225F4B15F028F9002848D0013630465B
S21400695814F018FE02460B46DDE90A0115F008F9A0
S21400696808B100260135B9F1000F45D1284614F0C4
S21400697819FE02460B465046594614F0C5FC00223E
S2140069884F4B15F0EBF810B9E90700D501350A2189
S2140069980EAB1A19202C0AD095FBF1F001FB105506
S2140069A8303502F8015B013405460028F2D107F0BD
S2140069B80302012A55D1B8F1000F52D0099A12B92C
S2140069C817F00C0F01D008F1FF38302240E009908C
S2140069D876E74FF0060988E7A946002485E70022EF
S2140069E8DDE90C01364B15F0B9F80028BBD10EB11D
S2140069F8F007B8D50136B6E70A210EAB1A19202CCF
S214006A080DD0B6FBF1F001FB1063092E03F130033D
S214006A1809F1FF3904F1010402F8013B11D83021CD
S214006A28A1440EAA202CB2D04C4504F101030AD189
S214006A3804F158020DEB02042E2204F8202C1C4602
S214006A48A5E70646DBE7A1541C46EBE71A550134D2
S214006A58444506D2202CF9D1CDE9028701940EAB25
S214006A68CEE6202CF8D0099B3BB12D2204F1580322
S214006A786B4403F8202C0134EEE77A0704D504F1BA
S214006A8858032B226B44F4E73B07E5D504F158037B
S214006A9820226B44EDE700BF0000000065CDCD4125
S214006AA80000000065CDCDC17C6204008062040051
S214006AB8FFFFEF7F7362040078620400C8A9040031
S214006AC80000E03F0000000070B58EB02C220021C8
S214006AD803A815F01FFC64234FF002320893CDE993
S214006AE805230B2301218DF834305B4B8DF81010ED
S214006AF81D880D4040F0A980084638F029F80A227B
S214006B08564B574C1A704FF42873ADF812304FF0A6
S214006B18FF332360534B54491B8820460B82534B44
S214006B28534A1B68CD828B61524B0D621B884B8281
S214006B38514B1B68CB611BF0C7FC20B14FF41B718F
S214006B484E4839F0D5F80521206834F08BFB20B183
S214006B5840F27D21494839F0CBF8206814F090FBC4
S214006B68474B2068196833F0F7FE0C2538F058FCB8
S214006B786843099038F054FC68430DEB050107900C
S214006B88206816F063F820B140F295213B4839F0AA
S214006B98AFF825681EF034FA00220146284633F07E
S214006BA853FF20B140F29721344839F0A1F840F25B
S214006BB80353344D344E2B80052396F90000AB70F2
S214006BC87F2801D11BF068FF3378EB7038F028FC7B
S214006BD800EB80008000A88038F022FC0023C0006C
S214006BE84FF0FF31E880AB604FF0FF3018A3D3E9D1
S214006BF8002338F0FFF82549206833F0DEFE2068C9
S214006C0802A934F0D6FB20B14FF434711B4839F092
S214006C186FF8042220680DEB020133F072FE042898
S214006C2804D040F2D721154839F062F801A90120AE
S214006C3833F03DFA06F00CFC01201CF0BFFB2FF0E9
S214006C48D6FB1CF0E5FB1BF0BFFE0EB070BD00BF08
S214006C580A0020FF420300002A5700207F5E00201B
S214006C685C4F0020ECC2040070650020F4C20400EB
S214006C7881EB0300EAC20400F0C20400AB990400EA
S214006C88B8620020504F002080680020F5EB030013
S214006C980348044B834202D0034B03B1184770479E
S214006CA8B4680020B468002000000000064B0749BE
S214006CB8C91A891048BF0131491003D0044B0BB1DB
S214006CC801481847704700BFB4680020B468002021
S214006CD80000000010B5064C237843B9FFF7D8FF2C
S214006CE8044B13B10448AFF300800123237010BD92
S214006CF870160020000000002CFE040008B5044BA7
S214006D081BB104490448AFF30080BDE80840CDE74E
S214006D1800000000741600202CFE0400A3F5803A3C
S214006D28704700BF154B002B08BF114B9D46FFF759
S214006D38F5FF00218B460F461148124A121A15F025
S214006D48E9FA0C4B002B00D098470B4B002B00D0D1
S214006D5898470020002104000D000B4815F020FE7F
S214006D6815F0B0FA200029002EF0F2FB15F006FE0A
S214006D7800000800000000000000000008100020C6
S214006D8808100020E45E002011CA010007B50121A2
S214006D9820200DF1070200F037FE50B10121202017
S214006DA80DF107028DF8071000F03EFE03B05DF8FF
S214006DB804FB9DF807100129F8D00122084814F0B2
S214006DC88BF901210DF1070220208DF8071000F03D
S214006DD82BFE2EF041FB4FF4FA6000F025FDE5E7A8
S214006DE85001040038B500F087FF012805D000F0F0
S214006DF883FF022801D000F097FF064D2B783BB999
S214006E0800F07AFF0128044602D12EF098FB2C7079
S214006E1838BD00BF1658002070B50C46088800F02C
S214006E286FFD94F844300546834214D004F11C06DE
S214006E3830462EF020FB84F844502EF020FB3221FA
S214006E48A06430462EF012FB94F844100248BDE8C1
S214006E58704014F041B970BD7801040010B50446BE
S214006E68008800F04DFDA37884F84400834202BFF2
S214006E780123E3702371074B04F11C00C4E90734AF
S214006E8800F018FE224620880349BDE8104000F0AE
S214006E984FBD00BF4B520300216E000070B5C3788B
S214006EA804460D461646002B32D1C1B11F4814F0D1
S214006EB813F9E36CA6600BB1E06D9847E368F61A21
S214006EC863699E4221D2217E19480131C9B22176D2
S214006ED814F002F9A36D13B1217EE06D9847E570B2
S214006EE82EF0CDFA0DB32379FBB9A268238A801A4F
S214006EF883421AD201230F48237114F0EDF8236D4C
S214006F089BB1E06DBDE87040184701232376E6E79D
S214006F180029E4D1084814F0DFF8636DE6602571AF
S214006F28002BDCD0E06D9847D9E770BD95010400CA
S214006F38A6010400D4010400C1010400F8B51E46E9
S214006F48838804460D4617460BB18680F8BD8178BF
S214006F5800882EF097F90123E370084BE580278117
S214006F68A680C4E903340C34204600F0A3FD294665
S214006F782046BDE8F8402EF079BA00BF97520300C5
S214006F8810B501790446B1FA81F1008849092EF056
S214006F98F0F921796088B1FA81F149092EF0E9F90A
S214006FA8034B1A68A24204BF00221A6010BD00BF35
S214006FB88C16002070B543790446A3B100880E4E9F
S214006FC804F10805336813B10C4B1B786BB12179B3
S214006FD82EF0CFF964210A4B3460A3602846BDE83A
S214006FE870402EF043BA4088E9E7064814F074F873
S214006FF8054B3221A360F1E78C16002017580020B5
S214007008896F0000EA010400BD6F000010B5044651
S214007018E0B10F4814F060F801236371A37953B9FF
S214007028217920882EF0A5F9236B7BB1606B0121AE
S214007038BDE8104018472046FFF7A2FF04F10800F5
S2140070482EF019FA2046FFF7B5FFEDE710BD00BF92
S2140070582002040010B50446F8B1104814F03CF8B5
S21400706800236371A3796BB921792088B1FA81F17D
S21400707849092EF07EF9236B7BB1606B0021BDE8D1
S214007088104018472046FFF77BFF04F108002EF053
S214007098F2F92046FFF78EFFEDE710BD2B0204003D
S2140070A810B5044668B1074814F016F86379204608
S2140070B81BB1BDE81040FFF7CDBFBDE81040FFF795
S2140070C8A5BF10BD3702040010B50E4C0E48214669
S2140070D814F002F882210D4813F0FEFF82210220E8
S2140070E8A21E00F0A1FC014630B134F8022C084874
S2140070F8BDE8104013F0F0BF0648BDE8104013F096
S214007108EBBF00BFAE500020460204006102040038
S2140071186C020400B002040038B5114C82212246E5
S214007128022000F071FCA51C014688B122880D4893
S21400713813F0D2FF2A460C4B03F12C0153F8040B2C
S2140071488B4242F8040BF9D11B7813702C2323804A
S21400715835F8021C054A0648BDE8384013F0BCBF9F
S214007168AC500020BB0204003B030400AE500020D5
S2140071781903040010B504460146084813F0ACFF8E
S214007188012C074805D12EF0DAF8BDE8104001F0CA
S21400719827B8BDE810402EF0D4B800BF6803040036
S2140071A84462002070B50024184D194E3378A34267
S2140071B817DC0024174D184E3378A34217DC00243A
S2140071C8164D174E3378A34217DC00F095FD0128BC
S2140071D8144818D12EF0B3F8BDE87040124800F0F5
S2140071E89DBD2846FFF73AFE01346035DEE728469F
S2140071F82EF08BF801343435DEE728462EF0BEF83C
S21400720801343835DEE72EF09CF8E5E7A41F0020A9
S2140072181C580020842100201D580020741D0020C2
S2140072281B580020446200207D7100002DE9F04FB5
S21400723885B0FFF771FFBA4B03A803932EF0C2F888
S214007248054614F063FFB74CC2B21F2A627004D911
S214007258B54813F041FF00F0DBFA2946A01C15F0EC
S214007268E9F903A82EF0AEF8054614F04FFFC2B2AF
S2140072781F2A84F8212001D9AC48EAE7294604F1F8
S214007288220015F0D7F903A82EF09CF8002504462E
S2140072982678002E6FD1DFF8D092DFF8D0A2DFF87C
S2140072A8A882FFF77FFF99F800309AF8002098F830
S2140072B800109F4813F010FF9AF8003098F8005016
S2140072C89C4F1D4499F800303C461D44EDB2012DF4
S2140072D838BF01253B464FF482714FF6FF720136E0
S2140072E8B5421E7059809A8003F10C03F7DC924B66
S2140072F890498C48A36000F0C5FDE079A26800EBD1
S214007308400002EB800000F0C9FBE2798A4B0132AC
S214007318E27100261C46DFF834B298F80030B34213
S21400732800F3DB8100274FF00C0B844A814E9AF855
S214007338000098F80010B84200F3E08100274FF0EC
S214007348700808440BFB0066DFF824A299F80030A2
S214007358BB4200F3EF812946764800F00DFC039BFC
S2140073686F491A468B4240F0F481754805B0BDE86F
S214007378F04F13F0B1BE532E0FD163784C2B40F06C
S214007388F980A378502B40F0F58001226D4B1A70D7
S21400739803A82EF017F804467AE729D8412EF7D91D
S2140073A8423E102EF4D801A353F826F025740000A8
S2140073B855760000997300009973000099730000D1
S2140073C89973000099730000AB740000997300006D
S2140073D899730000617400000B7400009973000034
S2140073E8997300009973000099730000E97500000E
S2140073F8692ECDD1601C2DF0F2FF80B22EF028F851
S214007408C6E7514B012019780023504A994202F1E9
S214007418A402BDDD02F8A20C0133F7E7601C00F0F9
S214007428DBFA0646E01C2DF0FCFF0121024630463A
S21400743800F020FA60224648464C03785A43A118C2
S214007448A6524FF4FA620A824FF448724A61424AD8
S2140074580A65013303709BE7601C00F0BDFA002242
S214007468342780463D4E114600F004FA30783C4DED
S21400747807FB00F325F80380EA18E3781046693B13
S21400748818BF012393702DF040FF3378354A03FB6D
S2140074980755002115600125516015742B4433707B
S2140074A876E7601C00F098FA00221146804600F045
S2140074B8E1F93422294E2A4F307802FB00F327F8E8
S2140074C80380F918E3780846693B18BF01238B70D8
S2140074D82DF01BFF194A00231146906BB0B901EB3B
S2140074E883113423327802FB03738B635DB91D4A1C
S2140074F82B46114652F8040B70B93422307800FB3C
S214007508027241F8232033780133C8E70133042B8D
S21400751802F14002E1D1E9E70133042BEAD1F2E7B0
S214007528AE50002064610020870304009E03040018
S214007538AE0304009016002008170020D819002073
S214007548EB030400175800201A580020D81A002009
S2140075581C580020A41F0020B75303001D58002005
S2140075688421002044620020185800201958002062
S21400757888180020601C00F02FFA0746E01C2DF043
S21400758850FF01210246384600F074F96023754E14
S214007598754C3278A4205343E118E7524FF44873E9
S2140075A8724F0B824B613B78DFF8E0C158430CEB17
S2140075B800010CF800304FF4007048800320087172
S2140075C8887102EB420004EB401432200133DBB230
S2140075D801324B718C6081F8A00032703B70D7E6A0
S2140075E8601C00F0F9F900224FF038088146604F19
S2140075F8114600F03FF93B785E4E08FB03F326F889
S21400760803904FF00109F21882F80490E3786BB102
S214007618E01C00F0E1F900220446114600F02AF9C1
S2140076283B7808FB03635C8083F806905248534A0D
S214007638037899015354397802EB8314C1EBC102DD
S21400764806EBC20262634A1C3A7002E7601C00F04E
S214007658C3F90746E01C00F0BFF9002206461146AB
S214007668384600F007F9002238241146304600F064
S21400767801F93F483F4A03784FF0010E04FB03FC2C
S21400768802EB0C0122F80C704FF0000C81F804E0B5
S21400769881F806C003EB0E01C9B24C4317191653FE
S2140076A89C1C04707024364E87F806C0307887F81D
S2140076B804E04443334FC3EBC303C1EBC10107EBFC
S2140076C8040C02EBC303385502EBC1027044CCF835
S2140076D80430CCF8082030705AE636B117F8053C66
S2140076E803EB430304EB8304BC603946584600F0BA
S2140076F8F5FF01360BF1A40B0C370EE63944481E8D
S2140077080BFB00600BFB0161C079019200EB4000A7
S21400771804EB800410468C6000F0F2FD98F8001028
S214007728194839440BFB016100F040FD019A013706
S2140077384032FCE516F8053C314603EB430304EB00
S214007748830408FB07A0B46000F0B6FC01370C36CB
S214007758FCE513F8011D00297FF402AE3B2102F870
S214007768011CFDE51C580020A41F00201A58002004
S2140077781B580020741D002019580020D819002016
S2140077881858002088180020681D0020D81A0020E5
S21400779807B5022101200DF1060200F035F938B9C7
S2140077A8044813F099FCBDF8060003B05DF804FB26
S2140077B80020FAE70804040007B50221ADF8060021
S2140077C80DF10602012000F02FF9014610B103481A
S2140077D813F082FC03B05DF804FB00BF2904040024
S2140077E810B5FFF7D5FF04460146074813F074FCAA
S2140077F80121064813F070FC24B9BDE810400120AA
S214007808FFF7DABF10BD00BF590404006B0404007C
S21400781808B5044813F060FC00F016F92DF01CFEBD
S2140078282DF017FE8104040038B50446084D094BB0
S21400783828462B6000F03EF9002C18BF2146284643
S214007848BDE8384008BF4FF496712DF00FBE00BF54
S214007858882200200554030010B5044C237823B969
S214007868034838F0E2F90123237010BD1F580020A2
S214007878CC9C040073B506460D461446FFF7ECFF8D
S2140078880E4A330AD35C8DF805608DF804307DB156
S214007898012C04D0032C09D00022012101E0224645
S2140078A8022101A801F0C0FC02B070BD0022F7E773
S2140078B804212A460DEB0100F4E700BFB09A040045
S2140078C807B5064A030AD35C8DF8050001A88DF8AB
S2140078D8043001F0DDFC03B05DF804FBB09A040048
S2140078E807B5064A030AD35C8DF8050001A88DF88B
S2140078F8043001F0F9FC03B05DF804FBB09A04000C
S21400790807B50A4A030AD35C8DF805008DF80430DB
S21400791800230DF1030101A88DF8033001F010FDD6
S2140079289DF8030003B05DF804FB00BFB09A04009E
S2140079382DE9F043214C85B0064688469146FFF768
S2140079488BFF23781BB901F053FC012323701C4AD4
S214007958330AD35C30228DF80C300023194F8DF88B
S2140079680D6002FB03F4395DE51901BB01233B55A5
S2140079784FF0FF3304F1100013493844AB606E80B3
S214007988C5F80480C5F80C9008F0A2FC04F10801BC
S214007998042239440D4B009503A801F0FFFCA968A2
S2140079A802460B4813F098FB05B0BDE8F083013398
S2140079B8102BD6D1074813F08FFBF5E71E5800208A
S2140079C8B09A0400B02200200B5403001D54030094
S2140079D88E040400BC04040080B10278A2F14103BE
S2140079E8032B0BD840783038C0B2082806D8054B89
S2140079F8134413F8413C40EA032070474FF6FF70E3
S214007A08704700BFB09A040008B50B4642B101465D
S214007A180448006802F00AFEBDE808402DF012BDD2
S214007A28022008BDB062002008B50B4642B10146E8
S214007A380448006802F082FFBDE808402DF002BD49
S214007A48022008BDB0620020F0B50026124F8DB0A7
S214007A58FF2300930A223346386802A92EF070FAEC
S214007A68C0B102AB1D4603EB800404E055F8043BA6
S214007A78B34228BF5E1CAC423868E9D9296803F0CF
S214007A88E3F80028F2D02D28F0D00DB0BDE8F0407D
S214007A982DF0D8BC0DB0F0BDB062002028B1034B65
S214007AA80360034B4360002383607047190000039C
S214007AB858620020FF2307B50021044A00930830C7
S214007AC808F08AFB03B05DF804FB00BF6F540300A0
S214007AD80B460449024608680349097808B12DF0A0
S214007AE8D5BC7047B825002021580020F8B50C46AC
S214007AF818B122210E4838F0FBF8246823685E790E
S214007B085F8830463946FFF7E3FF08B98120F8BD9D
S214007B188568002DFAD0A368E27C39463046A84727
S214007B2804460028F2D131F03BFB2046EFE700BFC1
S214007B38E4040400F8B515460D4A044610680D4AD4
S214007B480B46117850B122462DF0A0FC034628B10A
S214007B5800210C27C678B14201DB0020F8BD07FBE0
S214007B6801F45A681019125BAA42F7D00131F2E7FD
S214007B78B8250020215800202DE9F74F04460D4669
S214007B880026454B454F1860454B197033010021B8
S214007B98F85C01360FF076F90C2EF7D10C2D28BFBD
S214007BA80C254FF0000901953C4EDFF800A13D4D2D
S214007BB8DFF8FC80019B4B4502DC03B0BDE8F08F84
S214007BC823784FF0000B337063887380A388B380E4
S214007BD8A379C6F80880B371E379C8F8005088F826
S214007BE804304FF00003A768A8F80630E3795B4531
S214007BF80ADC012116F8100B0FF044F908F1080802
S214007C0809F101090C34D5E74FF0000338886B8179
S214007C182880FB784FF0000C2B81BA78C5F804A0B2
S214007C28002A00920CBF802240222A7379680AF143
S214007C380C02634513DC03EB43030AEB830ABB68B9
S214007C4843B1009A4FF6FF71B2FA82F2164B520908
S214007C5831F036FA14350BF1010B0C37C6E7B1F8DC
S214007C6800E00CF1010C22F80CEC91F802E00C3262
S214007C7802F816EC91F804E00C3102F815EC11F84D
S214007C8809ECBEF1010F14BF4FF0100E4FF0110EA5
S214007C9802F814ECCDE700BFB8250020783C002099
S214007CA821580020BC2B0020F57A0000BC250020B7
S214007CB83C2E0020014B1860704700BFB4250020FA
S214007CC870B5128805460E46FFF734FF044670B1B5
S214007CD802790499806814F06FFB064B1B680BB991
S214007CE8002070BD3146284622889847F8E7862047
S214007CF8F7E700BFB425002008B50EF05FF90228A4
S214007D0806D0012806D0044B18784000C0B208BD3B
S214007D180120FCE70220FAE720580020014B1860F3
S214007D28704700BFB0250020034B1A781AB9012205
S214007D381A700AF049B97047205800200022064BEE
S214007D4810B51A70054B1C682CB1FFF7D5FF2346F3
S214007D58BDE81040184710BD20580020B025002068
S214007D6837B50446002832D00EF028F9022830D15C
S214007D78608931F092FDE079237A003818BF012037
S214007D88012B637A08BF40F008000BB140F01000E2
S214007D9863890BB140F00400257CA188A2790DB157
S214007DA8E36873B90C4B0FF049FC217808460FF0CE
S214007DB8C1FC31F07CF8002814BF0320002003B073
S214007DC830BDCDE90035054B0FF038FCEDE7022055
S214007DD8F5E70120F3E700BFA6510400A920040038
S214007DE808B50CF04FFA014630B1044813F074F9A0
S214007DF8BDE808400CF0EABD08BD00BF5605040003
S214007E08034B044A5B7C012103201370FFF70CBE6A
S214007E18446200202258002010B50446FFF7F0FF01
S214007E28B4F57F4F0BD100240A4B1A8813449C7074
S214007E38FFF74AF92046BDE81040FFF7F5BC4FF6B5
S214007E4801739C4204D1BDE8104003482DF05FBA88
S214007E5810BD00BFAC5000204462002010B5074C8F
S214007E68012122460320FFF7CFFD28B92378044ACC
S214007E78003B18BF0123537410BD00BF22580020D2
S214007E88446200200822F8B54A4B32241A70302281
S214007E989A705A71DA714FF400125C70DC709C713B
S214007EA8454C3625C464454C42640465444C01225E
S214007EB88465444C1D71C465434C1D724466434C2E
S214007EC885188466424CC5670467424C424D446731
S214007ED8202480F8784080F8844000F12104C0F817
S214007EE888403E4CC0F88050C0F88C403C4C80F827
S214007EF84820C0F894403B4C80F85420C0F898407E
S214007F0880F86020384C80F86C2080F8902080F844
S214007F189C20C0F8B830354BC0F8A440C0F8BC3038
S214007F280F24022380F8A84080F8C030304C314B2C
S214007F38C0F8AC40C0F8C4302F4C304BC0F8B04046
S214007F48C0F8C830092482232D4D80F8B44080F844
S214007F58CC302C7C2B4BC0F8A000C0F8D03044B1F5
S214007F68294B80F8D820C0F8D43005F11103C0F8A2
S214007F78DC304FF0000CCA798E6802EB42039F0093
S214007F88443006EB830326F807C0586001200C34FB
S214007F989870DC701318CB71FFF760FFFFF7ACFE24
S214007FA8012806D12B7C23B1BDE8F84014482DF0F3
S214007FB8AEB9F8BD23580020CA9A04000100200074
S214007FC8C99A040002002000C89A04000300200092
S214007FD8C79A04000400420005004200070030006B
S214007FE8C69A04001200100100404200FDFF21005E
S214007FF8B49A0400C49A04000600420000FF440134
S21400800844620020AC50002001FF1001437B044A64
S2140080180121137000780E30C0B2FFF705BD00BF0F
S2140080282D58002038B504460078054D0E302A46EF
S2140080380121C0B2FFF7E8FC08B92B78637338BD96
S2140080482D580020024B53F820002DF006BB00BF29
S2140080589C2E0020012908B506D0022907D049B968
S2140080682DF0F2FA002008BD2DF0F1FAFAE72DF00F
S214008078F1FAF7E7024813F02FF80120F3E700BFFC
S2140080888305040011461A46024B53F82000FFF7F2
S214008098E1BF00BF9C2E0020002310B50446838154
S2140080A80364A0F844304830FFF704FD014BC4E9E8
S2140080B8123410BD4956030038B504460B781A4AE0
S2140080C843700D4642F82300FFF7E6FF2046FFF709
S2140080D8A9FF4FF4401323610123144A2375A261B4
S2140080E8134A84F82030E261124A84F82C3062621F
S2140080F8114A84F83830A26204F10C0222630F4A4F
S21400810804F10D036263E363EA79A86802EB4203AD
S21400811800EB830110344C60094C40F82340094BAF
S2140081288B60531CEB7138BD9C2E00202C58002009
S214008138080020002468002000FF300001FF10011E
S214008148020101048D80000070B50D4606461446EF
S21400815813460A460146114812F0BEFF25B92046C6
S214008168BDE87040FFF758BE072D05D121463046BA
S214008178BDE8704000F078BA062D05D12146304695
S214008188BDE8704000F076B8B5F5817F05D1214688
S2140081983046BDE87040FFF755BF70BD9F05040028
S2140081A80148FFF787BD00BF518100004FF4C01398
S2140081B830B5036001230371074B8C688360CA7966
S2140081C802EB420304EB83056860044844F8230086
S2140081D8531CCB7130BD00BFCB9A040004000101CC
S2140081E838B50024044D55F8040B08B12DF043FAB1
S2140081F801340A2CF7D138BDC42E002002290246C5
S21400820808B50ED004D839B910462DF05FFA06E046
S2140082184029F9D0412907D110462DF04DFA002003
S21400822808BD2DF05DFAFAE7014812F055FFF6E7AB
S214008238D205040011461A46024B53F82000FFF7F1
S214008248DDBF00BFC42E0020426B094B52791A705E
S21400825882785A70C2789A70826B12B190F83C2075
S214008268DA70007804210930014AC0B2FFF7DCBB97
S2140082782E580020024B53F820002DF04DBA00BFB0
S214008288C42E002038B504460078084D09302A4622
S2140082980421C0B2FFF7B8FB30B96B78A370AB788F
S2140082A8E370EB7884F83C3038BD00BF2E580020C9
S2140082B838B504460078114D09302A460421C0B264
S2140082C8FFF7A2FBC8B9A3782A78022B0CD004D8EB
S2140082D863B920462DF0FAF901E0FF2B0AD02046B4
S2140082E8BDE838402DF0C7B9002AF2D120462DF057
S2140082F8E3F9F4E7002AF9D1EBE738BD2E58002059
S214008308F8B504460B78224A0D4642F82300437017
S214008318FFF7B8FF636B1F4A5C631A632046FFF7D4
S214008328C7FF20462DF0A7F94FF48013636001239A
S214008338626BA06B0532E260174A23722261A21CA8
S2140083482375A26160B1154A84F82030E261E21C08
S2140083586262134A84F82C3004F13C03A262236359
S2140083680627E979AE6801EB4103002826F8237052
S21400837806EB83020CBF02230423D37001239370F9
S214008388084B043493604B1C5460EB71F8BD00BF77
S214008398C42E0020FD5603000340300101FF3001C3
S2140083A802FF10013D82000002464179D378084852
S2140083B80139042B00EB811008D8012B04D80BB91F
S2140083C82DF07AB92DF082B92DF08AB9704700BF22
S2140083D8D819002002464179D37808480139042B79
S2140083E800EB811008D8012B04D80BB92DF06EB914
S2140083F82DF062B92DF074B9704700BFD819002067
S21400840830B587B004464579FFF776FC012822D1B7
S214008418E2786B1E042A1ED8DFE802F00431031F38
S2140084282800104663784FF480728DF804304FF4B5
S2140084388273ADF806300623ADF8083001238DF8B0
S2140084480B3000238DF80A0001A8CDE903238DF828
S2140084581430FFF785FC07B030BD0A4A02EB8313D9
S2140084685B6B5B79181E18BF0120DBE7054A02EB39
S21400847883135B6B5B79B3FA83F04009D2E700207D
S214008488D0E700BFD819002030B587B00446457934
S214008498FFF732FC012829D1E3786A1E042B25D879
S2140084A8DFE803F00B0B0B032600164B03EB8213D7
S2140084B85B6B5B79003B18BF012362788DF80A3046
S2140084C88DF804204FF482720123ADF806200622A8
S2140084D88DF80B30ADF8082000234FF4807201A801
S2140084E8CDE903238DF81430FFF73AFC07B030BD0A
S2140084F8044B03EB82135B6B5B79B3FA83F35B097C
S214008508DBE700BFD819002010B586B00446FFF791
S214008518F3FB012812D16378094A8DF804304FF42A
S2140085288273ADF806304FF48073CDE9022300233A
S21400853801A804938DF81430FFF712FC06B010BD9E
S2140085480800070110B586B00446FFF7D5FB0128DA
S21400855820D16278104B8DF804204FF4827294F87C
S214008568A01094F8A10059701870ADF8062004936E
S2140085784FF480720223094901A88DF81430CDE91A
S2140085880212FFF7EDFB94F8A130013B18BF012358
S21400859884F8A13006B010BD325800200800050146
S2140085A810B583780446E3B10379022B06D14379E4
S2140085B80C48013B00EB83102DF092F8A379022BB0
S2140085C802D12046FFF71CFF2046FFF7BBFF022319
S2140085D86078A4F86C305522BDE8104012212CF0C3
S2140085E877BF10BDD81900204388094A0821138090
S2140085F88388538083681B8A938090F8A030937191
S2140086088379D37100780430C0B2FFF70DBA00BF83
S2140086182E51002038B50D4604460178104812F051
S2140086285BFD4FF602739D420CD163791BB10D4A70
S21400863812789A4201D2012363712046BDE8384079
S214008648FFF7D2BFB5F57F4FF7D120462DF0C6F815
S214008658A378022B0CBF01220022A3689A70ECE7CD
S214008668E805040019580020024B53F82000FFF7CD
S214008678D1BF00BFEC2E002038B504460078134D55
S21400868804302A460821C0B2FFF7BEF920B1BDE87B
S21400869838400F4812F020BD2B8863806B88E97835
S2140086A8A380AA88A3681A82AB7984F8A030EB79ED
S2140086B8A37119B1074B1B788B4205D2064812F0F6
S2140086C80BFD23780133637138BD00BF2E5100209F
S2140086D802060400195800202B060400F8B50446C4
S2140086E80B78484A0D4642F823004370FFF7C4FF4C
S2140086F8A268454B0226D364444BA11C5365444BE1
S21400870844481365444B04F10C0CC2E916344FF484
S2140087184013E36001236161E1624049103221633E
S2140087282265211D3E4AA1633E49626504F1A00206
S214008738A061E163E265E01C611D3B4A206261645A
S2140087483A483B492266A21D2374237784F82830CA
S21400875884F8343084F84030A16484F84C6084F897
S214008768583084F864306062A266E879AA6800EB3C
S214008778400102EB8107C7F804C04FF0060C2D4FE6
S21400878842F82170C118C9B201EB410142F821C074
S21400879802EB810700217960274F84F8803027672D
S2140087A8264F84F89830A767254F264BE767264F4D
S2140087B884F8746084F88C60C4F89C3004F16C0605
S2140087C8831CC4F88470C4F89060204F204EDBB237
S2140087D803EB4303C4F89460C4F8887002EB83067E
S2140087E87034746008261B4C42F82340C31CDBB266
S2140087F803EB430302EB8304043042F82360616012
S214008808E871F8BDEC2E002051570300935703007B
S214008818A9850000100030014757030001FF30010A
S21400882804FF200102FF200105FF300100FF300190
S21400883803FF2101070001084A002100CC9A040022
S21400884851001000CE9A0400CF9A0400550021006B
S2140088586F0018001200010400239B6AB3F5C04F8E
S21400886803D21968064A914203D000230370836036
S2140088787047012202709A689B694260F7E700BF5A
S21400888807B0CD5E024B034A1A602EF071B900BFDE
S2140088980000002002020FF073B5534B04461A7806
S2140088A81AB102221A7002B070BDCDE90022002863
S2140088B8F9D001261E7037F097F94C4D4C4B1860CE
S2140088C816F00CFE2B785BB902F062FA40B94948FC
S2140088D80823494A4949006801F0A8FE00B92E70E5
S2140088E8474B5A6E62619B6E464AA3614FF400433B
S2140088F8936603F188435968E16143499960196EA4
S2140089082160596E6160D3F87011A160196CE1603E
S214008918596C21613D49086C1864496C59640121F9
S21400892851664FF4005191661A6E560436D538498A
S214008938CA68D407FCD45B6E5A0434D5354AD36B60
S21400894813F0430FFBD1344B1A68531C31D04FF445
S21400895800139340314A13660423304C6846236656
S2140089684FF480632366102323664FF40053236670
S2140089784FF0804323664FF4804301A963662CF0CA
S21400898845FF009B2366019B63662B78002B8AD0E5
S214008998194B1A6822665B68636684E72049CA68CA
S2140089A8D007FCD4C7E71F4AD36B13F0430FFBD19D
S2140089B8C9E71D4B1B78002BCED14FF48072114BA4
S2140089C85A661A4A52681AB94FF40011134A1166C1
S2140089D84FF400725A66164B5B68002BBCD14FF4F6
S2140089E880020E4B1A66B7E7355800203658002026
S2140089F8342F0020B0620020382F002000710800B5
S214008A08008000500090005055CEAC0000C00054C6
S214008A18000004400000024C7C62002000900044E5
S214008A28000004500000025C3458002000C00550C6
S214008A380000065070B52C4D04462E78012E02D044
S214008A4801232B7070BD0028FCD02CF004FF0130E9
S214008A580BD02CF000FF40F20113984205D0234BB0
S214008A68234A5E66D368DE07FCD4224B22491B6E77
S214008A7813F0040F4FF4005314BF1C4A1F4A9366A2
S214008A88CA6B12F04302FBD121681A4B196661685B
S214008A985966A168C3F87011E168196421695964B8
S214008AA8E169C80748BF9A60154B1A6801320DD1AC
S214008AB8144A127852B914494968C90748BF1A6057
S214008AC8124A5268D20744BF01221A606269104BE4
S214008AD85A66A2699A6616F009FD0E4B186837F0B2
S214008AE87EF80023ADE700BF355800200090004010
S214008AF800000440008000440000024C0090005033
S214008B087C6200203458002000C005500000065043
S214008B1800800050342F002070B50024A36AB3F5F7
S214008B28C04F23D21A68134B9A421FD1124E33787D
S214008B3813F0FD0518D14FF480341048FFF7ACFE4B
S214008B48032004F031FA0E4B0320DC6004F010FA20
S214008B580C4B1C61AB6ADB69984704460748FFF76D
S214008B6869FF0CB901233370204670BD4FF4817439
S214008B78FAE700BF07B0CD5E34580020142F002057
S214008B8800A000440090004413B5204B1B7803B99E
S214008B98FEE700231E4CCDE900336A4608231D492C
S214008BA8206801F043FDF8B91B4AD2F84031D2F8E4
S214008BB840211F2B4FF0010311D9203A9340019A08
S214008BC81A43019208236A461249206801F0B6FE45
S214008BD8124B134A1A602DF0CBFF02B010BD93401B
S214008BE8009A1A430092EDE72D28F1D10A4AD2F8E6
S214008BF84031D2F840211F2B4FF0010385BF203AA1
S214008C0893409340019398BF0093DBE735580020C4
S214008C18B0620020007108000080004400000020B8
S214008C280B020FF038B50025AB6A0446B3F5C04F03
S214008C3810D21B6BB3F5C04F0CD20748FFF72CFEBB
S214008C48AB6A20461B6B5B689847BDE8384002480D
S214008C58FFF7F0BE38BD00BF402F002013B5002434
S214008C68A36A0190B3F5C04F13D21B6BB3F5C04F80
S214008C780FD20948FFF710FEA36A01211B6B01A853
S214008C889B69984704460448FFF7D4FE204602B07E
S214008C9810BD4FF48174F9E7402F002070B5002608
S214008CA8B36A0446B3F5C04F0D4612D21B6BB3F534
S214008CB8C04F0ED20848FFF7EFFDB36A20461B6B7D
S214008CC829469B69984704460348FFF7B3FE2046A3
S214008CD870BD4FF48174FAE7402F002070B5002667
S214008CE8B36A0446B3F5C04F0D4612D21B6BB3F5F4
S214008CF8C04F0ED20848FFF7CFFDB36A20461B6B5D
S214008D082946DB69984704460348FFF793FE204642
S214008D1870BD4FF48174FAE7402F0020F8B500279D
S214008D28BB6A0446B3F5C04F0D46164611D21B6BF8
S214008D387BB10948FFF7B0FDBB6A20461B6B32467D
S214008D4829465B6A984704460348FFF773FE2046A1
S214008D58F8BD4FF40174FAE7402F002070B50026DE
S214008D68B36A0446B3F5C04F0D4612D21B6BB3F573
S214008D78C04F0ED20848FFF78FFDB36A20461B6B1C
S214008D8829469B6A984704460348FFF753FE204641
S214008D9870BD4FF40174FAE7402F0020F0B50027A5
S214008DA8BB6A0446B3F5C04F0D461646ADF5177DAB
S214008DB820D21B6BB3F5C04F1CD21048FFF76CFDD2
S214008DC8BB6A20461B6B40F251225B6A01A9984792
S214008DD8044630B10948FFF72DFE20460DF5177DED
S214008DE8F0BD836A32461B6B2946DB6A01A89847A2
S214008DF80446EFE74FF40174EFE700BF402F00206A
S214008E0810B50024A36AB3F5C04F10D21B6BB3F598
S214008E18C04F0CD20748FFF73FFDA36A1B6B1B6BBE
S214008E28984704460348FFF705FE204610BD012470
S214008E38FBE700BF402F0020F0B58FB0044601A81E
S214008E480E461546FFF7EEFE9DF80C30012B12D1A4
S214008E58B5F5002F27D8B4F5002F24D86319B3F535
S214008E68002F20D821462A46304613F0E3FB00247C
S214008E7820460FB0F0BD0027BB6AB3F5C04F15D229
S214008E881B6BB3F5C04F11D20A48FFF705FDBB6A46
S214008E982A461B6B314620465B6B984704460548B6
S214008EA8FFF7C8FDE4E740F20244E1E740F20114A8
S214008EB8DEE700BF402F0020F0B58FB0044601A8BB
S214008EC80E461546FFF7AEFE9DF80C30012B1FD157
S214008ED8B5F5002F06D8B4F5002F03D86319B3F5F7
S214008EE8002F13D940F2024420460FB0F0BDE258D6
S214008EF8013225D104339D42F9D82A463146204608
S214008F0800F082F80028EDD00024EDE70023F2E711
S214008F180027BB6AB3F5C04F15D21B6BB3F5C04F1D
S214008F2811D20A48FFF7B8FCBB6A2A461B6B3146C3
S214008F3820469B6B984704460448FFF77BFDD3E71B
S214008F4840F20344D0E740F20114CDE7402F00205A
S214008F5870B58EB0044601A80D46FFF763FE9DF86F
S214008F680C30012B22D144EA0503C3F30C03002B73
S214008F7833D1B5F5002F04D940F2024420460EB08E
S214008F8870BDB4F5002FF7D82544B5F5002FF3D8F3
S214008F98204604F5005400F029F8AC4202D0002818
S214008FA8F6D1E9E70028E7D00024E7E70026B36A09
S214008FB8B3F5C04F14D21B6BB3F5C04F10D20A4896
S214008FC8FFF76AFCB36A29461B6B2046DB6B98479B
S214008FD804460548FFF72EFDD0E740F20444CDE7E7
S214008FE840F20114CAE700BF402F00204FF40032B9
S214008FF808B5044B9A6637F09FF8B0FA80F0400937
S21400900808BD00BF00900050134610B562B1034378
S2140090189B070BD14FF40034054B9C6637F090F84D
S214009028B0FA80F0400910BD0120FCE70020FAE7FE
S21400903800900050BFF34F8F0549064BCA6802F4EC
S214009048E0621343CB60BFF34F8F00BFFDE700BF5E
S21400905800ED00E00400FA0570B5D0B1C9B10E4EB7
S214009068431E013913F8014F2046325D02F0030211
S214009078012A11F8012F08BF04F12000B55C05F09D
S2140090880305012D08BF2032801A01D1002CE9D132
S21400909870BD0120FCE700BFE9C104000348044A8C
S2140090A80449121A92102CF03BBC00BF4061000025
S2140090B818630000805F002008B5154B83F30A8804
S2140090C800F030F8FFF7EAFF124B13498B4212D331
S2140090D80020124B12498B4218D3FDF723FE18685E
S2140090E850F82240586840F8224001329868824278
S2140090F8F5D30C33EAE70022F8E71C6844F82200A8
S21400910801325C68A242F8D30833E4E70022F8E7A5
S2140091180800002034FE040040FE040040FE040060
S21400912840FE04004FF40041134B144A70B59A6091
S214009138D3F88820124D42F47002C3F88820114AEA
S21400914805F5005491664FF0FF3222664FF6DF723F
S21400915862660222C3F8D020BFF34F8FBFF36F8F2B
S2140091684FF44036032003F01FFF0320E66003F0A9
S214009178FFFE2E6170BD00BF00ED00E0006000003D
S2140091880080004400900050054B1860054B1B6F8C
S21400919803F00703032B01D134F0CCBD704700BFA2
S2140091A88C620020008000502DE9F04104464FF004
S2140091B801080C250D4E0CB9BDE8F08194FAA4F010
S2140091C8B0FA80F00F2808FA00F2C8BF103824EA70
S2140091D80204CABF05FB006205FB0062B43257688A
S2140091E8002FE8D09168C0B2B847E4E7602F0020A7
S2140091F808B50C4836F019FD192003F0C7FE28B14B
S214009208192003F0D1FE192003F0B2FE1A2003F04D
S214009218BDFE28B11A2003F0C7FE1A2003F0A8FEE8
S214009228002008BDCC9C04002DE9F0410E461746E8
S214009238054618B30F2923D80378DBB1013BDBB208
S214009248022B19D8104AD35C6A78D340DB0717D5A7
S2140092580E4BD3F81043ACB936F0C6FC80463A46F7
S2140092682846314602F0DCFD404636F0B8FC20467B
S214009278BDE8F0817F23E7E70023E5E72224F6E749
S2140092882124F4E70224F2E7209B040000C00350E0
S21400929810B5044610B30378E3B1013BDBB2022BEA
S2140092A81AD8104AD35C6278D340DB0718D536F054
S2140092B89BFC0122617823788A4030214B4341F297
S2140092C8100103F1A04303F570335A5036F087FCBB
S2140092D8002010BD7F23E6E70023E4E72220F8E716
S2140092E82120F6E7209B040010B5044610B3037847
S2140092F8E3B1013BDBB2022B1AD8104AD35C627882
S214009308D340DB0718D536F06FFC01226178237846
S2140093188A4030214B4342F2100103F1A04303F583
S21400932870335A5036F05BFC002010BD7F23E6E70A
S2140093380023E4E72220F8E72120F6E7209B040034
S21400934838B50D46044618B311B30378E3B1013BAC
S214009358DBB2022B1AD8104AD35C6278D340DB07FC
S21400936818D536F041FC30222378534303F1A04346
S21400937803F570335B696278D34003F001032B7002
S21400938836F02DFC002038BD7F23E6E70023E4E70F
S2140093982220F8E72120F6E7209B04002DE9F0417B
S2140093A80D4616469846044600284FD000294DD04C
S2140093B80178002940D04B1EDBB2022B3ED8254A46
S2140093C8D25C6378DA40D20701D4FF2940D1022E56
S2140093D801D9042E3CD136F007FC23780746FF2B2C
S2140093E805D032462046296802F060FD28602B68C2
S2140093F8013309D12378FF2B06D1174B6078D3F8B1
S21400940824142CF0D8FF286029684B1C18D00C238D
S214009418124A03FB0122069BC2F804809360237855
S214009428FF2B04D001230E4A8B40C2F8243438465A
S21400943836F0D5FB002007E07F22C2E70022C0E70F
S214009448384636F0CCFB2D20BDE8F0812220FBE71D
S2140094582120F9E7209B040000C00350602F00205D
S21400946800D0035008B502F0D1FC054B00F055308B
S21400947820F05020C3F82004BDE80840FFF794BE4B
S21400948800E0035008B502F0C1FC054B00F0AA3016
S21400949820F0A020C3F82004BDE80840FFF784BEEB
S2140094A800E003502DE9F04F144605460E469B464D
S2140094B8C36B87B001225B6902A960689847EB6BAB
S2140094C801225B6903A93046984702A82CF027FEBC
S2140094D8074648B10023A37563754FF0FF33A360B2
S2140094E8002007B0BDE8F08F03A82CF025FE012366
S2140094F8A375237E04EBC303DE611F846368B3424F
S2140095080ED1206003A82CF039FE4FF0FF332075EB
S214009518A360237D043B022B26D80023A375DFE730
S21400952823681A1A53425341A37503A82CF026FE43
S214009538237D834218BFA77503A82CF001FE0746B3
S21400954802A82CF0FDFD874218BF002303A818BF09
S214009558A3752CF0FDFD074602A82CF0F9FD8742FE
S2140095681CBF0023A375D4E703A82CF0E9FD80B13F
S214009578EB6B022230465B6904A9984704A82CF0D6
S214009588EEFD0346207D032839D8DFE800F038389A
S214009598040903A8F3E7CC22237E04EBC3031A844A
S2140095A801F06EFC109B187003A8277E2CF0BCFDFB
S2140095B804EBC70787F82200237E03A804EBC3033F
S2140095C8B3F8209093F822702CF0BAFD804603A8D2
S2140095D82CF0BEFD8246B8F1000F15D0EB6B0222C8
S2140095E830465B6904A9984704A82CF07DFD607591
S2140095F8637D6BB90023A3754FF0000838E0227E20
S21400960804EBC2021384CBE703A82CF058FDEEE760
S21400961894F81680B8F1000FEED0B9F1000F09D112
S214009628DFB10123E375637E002B4FD1012F42D1B2
S214009638677614E06B6C06EB0A015A4286EA01006C
S21400964810421CBF0022A2755A1E0A409B1A994552
S214009658D0D8A37D002BE3D1CEE7E37D43B94FF006
S21400966800084B465246314628462CF0A3FAA0601E
S214009678A27D12B123694B4423611A49237E0978D7
S21400968899422AD901332376BBF1000F27D032B38B
S214009698E37D23B3B8F1000F21D1032F1FD0A168B3
S2140096A84B1C1CD0109B2246009328460123FFF72C
S2140096B8F9FEA07513E095F8343063B9EB6A013308
S2140096C8CFD1032FCDD10123A376C8E7012FCFD062
S2140096D8032FC4D1F7E79846C3E70023A375A07DF8
S2140096E8FFE600BF449B04002DE9F04F0E4698465F
S2140096F800238BB004464FF0FF31104617468DF80E
S214009708133001F0A7FBB6F5801F20D2314605AA14
S21400971804F108002CF055FC451C014603D1237CB7
S214009728BBB92D2010E0384601F094FB01223946DB
S21400973820460DF113032CF08FFA0028EFD09DF881
S214009748133088F8003000200BB0BDE8F08FB01C4E
S214009758E5D1E56A691C36D12046616A2CF070F9B5
S2140097680546B31C18BF0123DFF8CC900193636A43
S214009778626C0293236805A902FB053AE36B05228F
S2140097885B695046984705A82CF064FD2CF087FDC9
S21400979850462CF08FFD4FF0000B824601464B1CBE
S2140097A805D0636C81EA0A025B42134211D029464F
S2140097B820462CF045F9029BAB422CD0BBF1000F9B
S2140097C82CD10546D3E72368ED1A636CB5FBF3F591
S2140097D8C7E7484601F03EFB0DF11303494620460D
S2140097E8019A2CF039FA034690B1B21C03D0D9F886
S2140097F80020B2420CD19DF8132003930D4B88F835
S214009808002049461A68384612F014FF039B9B4608
S214009818D9F80810C3E7BBF1000F82D0B6F5801F51
S21400982891D2314698F800307A6804F1080001F0C1
S2140098383FFA88E7409B04003C3700202DE9F341B7
S2140098480446174698460E46184D816AE36A8B42C8
S21400985801D04B1C02D102B0BDE8F081284601F0C9
S214009868F9FA0122294620460DF107032CF0F4F9EF
S21400987838B14346294620469DF80720B8470028B1
S214009888E9D0A9684A1C04D1696820462CF065F915
S2140098980146012EDAD16B6881EA0302636C5B42EB
S2140098A81A4218BF4FF0FF31D0E700BF103700202C
S2140098B82DE9F04F4FF0FF334FF6FF7200250446B0
S2140098C800F10806C0E909238BB0C3620562056388
S2140098D8304688462CF046FB20462CF081F860BBC4
S2140098E8204641462CF0FCF820462CF079F860BB60
S2140098F85E200BB0BDE8F08F2368E26B606C57699A
S21400990800FB0530052205A9B84705A82CF0A2FCDF
S214009918012807460CD1294620462CF0B2F8012F1C
S214009928024600D10132294620462CF078F803E09A
S2140099382CF0BAFC0028EED10135E3699D42DBD352
S21400994820462CF04DF80028CAD000254FF0FF39E5
S2140099584FF6FF73CA46A846C4E90853E369984514
S2140099680AD3A5EB0905012D2CD84FF6FF72636ABA
S21400997893423CD16720BCE72368E26B606C57696A
S21400998800FB0830052205A9B84705A82CF062FC9C
S214009998834605A82CF035FC074658462CF07FFC75
S2140099A868B1574538BFC4F82480B94528BFB946BA
S2140099B8BD4238BF3D46BA46236A0133236208F1E2
S2140099C80108CBE74FF6FF7300256362E3699D4203
S2140099D8CBD2676C2068E36B052207FB05005B6942
S2140099E805A9984705A82CF00CFC0135EEE7E26BB4
S2140099F8676C2068694607FB030055690522A84777
S214009A0868462CF0FEFB626A2368606C4B4D00FBD0
S214009A1802302CF04FFC4FF0FF33A062E3622A4678
S214009A286FF00101204605ABFFF75EFE002846D121
S214009A38AD6829462046E5622BF0AEFF206320B9C4
S214009A482046E16A2CF089F8E062294620462CF088
S214009A5884F80546A36A9D4233D120462BF06FFF53
S214009A6800278046B946E36999453CD3B84559D995
S214009A782046616A2BF0E4FF0026054604F1400AFA
S214009A88B74212D8626C2368694602FB0539E36B55
S214009A9805225B694846984768462CF0B2FB534651
S214009AA802464946E06B2CF007FC294620462BF078
S214009AB8C7FF0136B0450546E2D1642019E7A56A16
S214009AC8B7E7294620462BF067FF236B2946034451
S214009AD80746236320462CF040F80546002FB9D1E8
S214009AE8C4E90B07B6E7636C2568052203FB09552E
S214009AF8E36B05A95B692846984705A82CF0AAFBDE
S214009B082CF0CDFB58B128462CF0D4FB0146204655
S214009B182BF042FF636C143B984208BF013709F1EB
S214009B280109A0E730462CF01DFA00232046194606
S214009B38034AFFF783FE0020DBE600BF68370020F5
S214009B484F5C03002DE9F041036B9046826B076873
S214009B589A4288BF8363426C436A90B002FB0377DD
S214009B68C36B0E46052201A95B690446384698472A
S214009B7801A82CF06FFB01280146307057D0656CA1
S214009B88E26B2368606AD2F814C005FB0030052231
S214009B9806A9E04706A82CF05DFB01284FF0000553
S214009BA823D0D4E90A3201219342CDE90B458DF83A
S214009BB834800E958DF83C102AD1194620462BF095
S214009BC8CCFF236B626C14339B1AE06223630C9BF6
S214009BD853B99DF83C303BB1626A616C2368E06B10
S214009BE801FB02312CF0EEFA0C9DE36B05225B6953
S214009BF801A93846984701A82CF02CFB3070284657
S214009C08236BA26B9A4288BFA36310B0BDE8F081AD
S214009C18237C33B91C490BAA04F1080001F096F816
S214009C28D5E72046194A0BABFFF708FECFE7237C9B
S214009C3823BB2246164904F1080001F087F8616A3A
S214009C4820462BF01EFF616A421C20462BF0E7FEDA
S214009C58054620B9236B626C1344143B23632046E5
S214009C68A16A2BF07AFF2368A062C01A636CB0FB67
S214009C78F3F0606220462BF0B3FFB6E700232046D9
S214009C88044AFFF7DBFDDAE7F1A300006DA3000046
S214009C98E95C0300855C030073B50D46D11E4A4295
S214009CA81C461B7E4A419A4226D129682368994257
S214009CB822D3636899421FD8114E0DF10703324626
S214009CC8FFF712FDC0B972686B689A4214D19DF806
S214009CD80730DA1E53425341227E93420CD1636901
S214009CE801336361D4E90323934205D22968A26845
S214009CF842F8231001332361012002B070BD00BF73
S214009D08683700202DE9F04F9B4689B09DF848300B
S214009D189046514A0193136907465B450D46C0F0C5
S214009D289580D94653680093B9F1000F7BD0FB6B3A
S214009D3801225B6905A90098984705A82CF0FCF94C
S214009D48454B1B68984240F0848005A82CF000FA22
S214009D580428064615D105A82CF001FA009B0446EF
S214009D681E44019B002B3ED1804512D91C46A8EB09
S214009D780008384600992BF0F0FEA9EB040900907D
S214009D88D2E7FB6B02225B69009806A9984706A8EB
S214009D98E2E7A0EB08045C4528BF5C46032C464473
S214009DA8ABEB040B1DD9FB6B294630465B69A20852
S214009DB8984724F0030304F0030A1E441D44DDF804
S214009DC80480BAF1000FD4D0FB6B012206A93046F6
S214009DD85B6998475246284606A912F02BFC55445C
S214009DE8C7E7A246EBE7824600F0030302932B1868
S214009DF803930644039BA6EB0A00A3EB0A05029B03
S214009E089A4514D1BAF1000FB3D0FB6B012206A90C
S214009E185B6998475246284606A912F0C7FD0028EF
S214009E28DDD04FF03609484609B0BDE8F08FFB6B29
S214009E38012206A95B6998470422284606A912F05B
S214009E48B5FD0028EDD1AAF1040AD3E74FF063095F
S214009E58E9E74FF06F09E6E7943700202DE9F0416F
S214009E680F4616469846044688B060B390F83450B5
S214009E78FDB101212BF0A9FD00210E9BCDE90511AE
S214009E88CDE902379DF83C30CDF804808DF81C30BB
S214009E98237C04968BB90D4901AA04F1080000F04A
S214009EA855FFDDE90553E06B002E08BF1D462BF075
S214009EB825FF284608B0BDE8F0812046044A01ABD5
S214009EC8FFF7BCFCEDE70546F3E700BFB35C03000D
S214009ED8A19C00007FB590F84260044601920DF1FF
S214009EE80B030A46304611492BF010FF012E054693
S214009EF8E36B17D132465B6903A998479DF80B10A8
S214009F08039B019A59B19BB243EA024301222846B1
S214009F180393E36B03A99B69984704B070BD62F38B
S214009F280F03F3E701229B6901A9F5E794370020A0
S214009F382DE9F04F99B00E460D920A69416C0B93C5
S214009F481439D31DB3FBF1F3013302EBC302036BE1
S214009F5804469342C0F001820023DFF80494089375
S214009F68E36A48461946059300F074FFD6E90337B6
S214009F7807930B9B022B4DD1CC2F40F0D7810D9B1E
S214009F883BB1314620462BF017FF656C1490012034
S214009F9844E00120079B656C1B68149300F00100E1
S214009FA800280CBF04230823782F0E9349D8059A57
S214009FB86B1E1340ED1A3B1D9D423CD2002F3DD030
S214009FC8082D3ED80023042506934FF0040A33686C
S214009FD806990B98C9F80030C9F810702CF0D2F81A
S214009FE84FEA9A030F93059B89F8140003930023FE
S214009FF809930C9304930A93616C039B4A1E1A40B8
S21400A0088B1A27B35544AB4223D8236B5B1A1344E9
S21400A01823632FE1782F656CB9D8F07D0D9B002B54
S21400A028BCD0E36B01225B69706816A9984716A82E
S21400A0382CF086F8B4E700250695C6E704250697AB
S21400A048C3E7012300254FF0080A0693BFE75345E8
S21400A058DBD3A3EB0A029742039BB84628BF904679
S21400A0689742534428D90122D9F8101089F81720A6
S21400A0788F4226D10399C9F80410049299F817203C
S21400A0880AB399F818100398CA1C09EBC202506064
S21400A09804980131A2F80880907289F81810B8F16F
S21400A0A8000F07D00B9A022A40F08180099A72B1F5
S21400A0B8012209929B46ABE0049A002A18BF0322A5
S21400A0C8DBE70222D9E7039AC9F80420E7E70C9AE7
S21400A0D84244032AEED9E26B1846956914A9012270
S21400A0E80993A847099B05460028E1D03D2D40F076
S21400A0F81E8104F1080303932368059A606CA2EB9B
S21400A108030ABAFBF0FA00FB0A302CF0D3F8E16A2F
S21400A118804620462BF021FDA26A824200F00F817D
S21400A128626CD9F80830511E0B40216B2768891AD3
S21400A1380B442363089BE062DF1BB7FBF2F7BA45C4
S21400A14840F0FA80059BB3EB080A12D0E36B4FEA9F
S21400A1589A0241469B6998478346E36A059A5344A0
S21400A168E362236B03989B1A434423632BF0FAFE9F
S21400A178DA462368616CE06B01FB07312CF00FF8B8
S21400A18820462BF02DFC20462BF02AFD2063BAF142
S21400A198000F00F0D4803269616CD31D1439B3FB0C
S21400A1A8F1F3013302EBC3029042A5D2BFE00D9A49
S21400A1B8002A77D1B8F1030F4FEA98026ED9E16BFF
S21400A1C818468D6907991093A847109B0546C0B98D
S21400A1D818F0030515D0079A28F0030B02EB0B01BD
S21400A1E89B444FF0FF3215A815922A46109312F09A
S21400A1F821FAE26B5846956915A90122A847054633
S21400A208109B9B46079A42440792002D40F08B808D
S21400A218049B16A80193069B009399F814204346BE
S21400A228316800F0CDFDE36B0F9A9B69039816A979
S21400A2389847039A051E089B18BF1346089343467B
S21400A2485246204603992BF0B5FC236B08F103020F
S21400A258A3EB0A0322F003029B1AC9F8080023633B
S21400A268002D7FF443AF0C9BA7EB080743440C93E1
S21400A278CDF80CB0204603992BF06FFC0025039010
S21400A288002F7FF4B9AE364A3168936804F10800A7
S21400A298E36252680B9B00F00BFD49E09B4645467F
S21400A2A807999EE79B4606F120021092F27D706899
S21400A2B8A2B1002296F818C00A99D5B2AC4511D9B1
S21400A2C8109D02F1010E35F832508D4228D90E98AD
S21400A2D806EBC2020144D069084403E00E9A0A99C4
S21400A2E80A441044E26B15A9556901221193A84740
S21400A2F8159A0A9B1392E26B043395695846012215
S21400A30813A90A93A847119B054603EB0802A2EB7C
S21400A3180B02042A7FF679AF28B90BF1040BC5E7C0
S21400A3287246491BC9E7CDF820B088E770252F4646
S21400A338384619B0BDE8F08F4FF0000A19E73269C1
S21400A348616CD31D1439B3FBF1F3013302EBC3027E
S21400A358236B9342BFF404AEE9E71C27E8E700BF87
S21400A3683C370020032A2DE9F34106460D461746DA
S21400A3781C4606D1237A012B23D0012002B0BDE863
S21400A388F081DFF86080096842460DF10703FFF7A1
S21400A398ABF960600028EDD19DF80720237A032AE0
S21400A3A8E8D0D8F804106A689142E3D1012B2969ED
S21400A3B8D4F80CC007D172690CEB0103934202D99A
S21400A3C82074207CDAE708316144E1603B460122CC
S21400A3D829463046FFF7ACFD60600028CAD000204A
S21400A3E8CCE700BF683700202DE9F341089C032A14
S21400A3F81746266806D1237A012B24D0012002B0FE
S21400A408BDE8F081DFF89080304642460DF107033C
S21400A418FFF76AF960600028EDD12568D8F80400CF
S21400A428A96AD5F844C04840CCF100031840227AFF
S21400A438E1D1012A09D1E268D8F8103013447269CC
S21400A448934202D92074207CD9E72868EB6A1B1A45
S21400A458081AB3FBFCF3B0FBFCF083420BD1706C1C
S21400A468F36A421E1340326B121A134428463363AB
S21400A4782BF073FBE862D8F81020E3680832134420
S21400A488E36001223B4604492068FFF751FD6060FF
S21400A4980028B0D00020B2E7683700202DE9F04148
S21400A4A80025604B0E46D3F8008004461D6018B998
S21400A4B821252846BDE8F08190F8347007B30A686D
S21400A4C803689A4240F0A3804A6843689A4240F07C
S21400A4D89E808A6883689A4240F09980CA68C368F2
S21400A4E89A4240F094800A6943699A4240F08F8005
S21400A4F88A69C36B9A4240F08A804B698361D8E7C1
S21400A50868223946856B11F005FFD6E902123368D2
S21400A51804F1080023607368A563636033696361A8
S21400A5287369A3612BF030FDB36904F14000E3635F
S21400A5389B68984720B9676C17B16368B3FBF7F751
S21400A54894F84330E761002BB2D00023656C23668D
S21400A558002D64D0002F62D02368B3FBF5F205FB0C
S21400A5681233002B55D16668B6FBF5F305FB13636B
S21400A578002B4ED120462BF0FFF9A3690433034481
S21400A5889E4248D340F634726369CC3B934244D823
S21400A598B5F5805F43D3032120462BF016FAD4E99D
S21400A5A80001E36B1B6898470546E36B0220DB68EF
S21400A5B89847CDB941462046FFF77AF964280546FC
S21400A5C804D141462046FFF773F90546666C5DB927
S21400A5D8236A2046143E5E432BF0CEF9A369043363
S21400A5E803449E4238BF5A25002D0CBF0123002382
S21400A5F884F8343007D1D4E900010B4A13680133D4
S21400A60813602BF05BFDE06B2BF078FB51E75D25C4
S21400A6184FE759254DE75A254BE75F2549E75B2560
S21400A62847E700BFCC300020C83000202DE9FF41A6
S21400A6380C4616461F46054680B390F834307BB362
S21400A648B1F5801F2ED2DFF8608001212BF0BDF90E
S21400A6582146424628460DF10F03FFF745F8044603
S21400A66870B99DF80F30012B11D1D8F81030BB42C5
S21400A67812D10246009031462846FFF743FB0446AF
S21400A688E86B2BF03BFB204604B0BDE8F081022BBC
S21400A69814BF2D246024F3E76324F1E72124F2E7AE
S21400A6A81124F0E72924EEE7943700202DE9F0433B
S21400A6B885B00C4617461E460546DDF8308098B32A
S21400A6C890F8343093B3B1F5801F31D2DFF8649038
S21400A6D801212BF07AF921464A4628460DF10F0348
S21400A6E8FFF702F8044688B99DF80F30012B14D1FD
S21400A6F8D9F8102006EB08039A4213D30090434675
S21400A708324639462846FFF7FDFA0446E86B2BF032
S21400A718F5FA204605B0BDE8F083022B14BF2D24B9
S21400A7286024F3E76324F1E72124F2E71124F0E735
S21400A7382924EEE79437002073B50C4616460546DE
S21400A74830B390F834302BB3B1F5801F24D20121F2
S21400A7582BF03BF921462846104A0DF10703FEF771
S21400A768C3FF044680B99DF80730032B0CD0022B94
S21400A7780CD1284609492BF01FFB3060E86B2BF0FC
S21400A788BDFA204602B070BD2D24F7E76124F5E730
S21400A7982124F6E71124F4E72924F2E79437002069
S21400A7A82DE9F3411E4600230C461746054633603E
S21400A7B850B390F834304BB3B1F5801F28D2DFF889
S21400A7C8548001212BF001F92146424628460DF116
S21400A7D80703FEF789FF0446A0B99DF80730032B48
S21400A7E810D0022B03BF01233B600423D8F8103097
S21400A7F818BF38603360E86B2BF080FA204602B04A
S21400A808BDE8F0812D24F6E72124F7E71124F5E7C3
S21400A8182924F3E79437002073B50446056B2BF01C
S21400A828ABF8636E03449D422CBF00230123854288
S21400A83894BF00252D1A207C84F85030656584F86E
S21400A8485800A8B100230C4E1A4619462046009612
S21400A8582BF076FB002305461A4619462046009636
S21400A8682BF077FBE3682844984294BF0020C01A70
S21400A878E06502B070BD00BFFFFF0F002DE9F3478B
S21400A8881E4643690446B342884617469DF82890F4
S21400A8984ED300258DF8075020462BF06DF8D4F8D7
S21400A8A830A082450AD2236AB5EB430F06D20022AF
S21400A8B820460DF10701FFF745F9B8B39DF80730B4
S21400A8C8012B05D1002220460DF10701FFF73AF9C2
S21400A8D8B9F1030F06D0314620462BF03DF8256B1C
S21400A8E8854227D3144D4FF0FF31284600F0B2FAC0
S21400A8F84B46294600222046C5E90376C5F800805F
S21400A908FFF716FB236E054663B12046FFF784FF64
S21400A91894F8503013B994F858301BB1236E04F1EC
S21400A92850009847284602B0BDE8F0870135B3E7DF
S21400A9386225F7E71C25F5E7683700202DE9FF4173
S21400A9480F4690461E46054698B390F8343093B3A3
S21400A958B1F5801F31D21A4C02212BF036F8224668
S21400A968394628460DF10F03FEF7BEFE024678B1BB
S21400A978012342460093394633462846FFF77EFFB2
S21400A9880446E86B2BF0BAF9204604B0BDE8F0811F
S21400A9989DF80F30012BEBD12169B142E8D1009325
S21400A9A8414633462846FFF7ADF904460028DFD16E
S21400A9B8E7E72124E8E71124E6E72924E4E700BFCF
S21400A9C8943700202DE9F04790F8423086B0012BE6
S21400A9D805460391A1EB020740F0AA80FF2F03D893
S21400A9E81E464FF0640807E00226012B14BF4FF0FE
S21400A9F832084FF06408013600244FF6FF79DFF876
S21400AA0844A195F84230012B14BF322364239C429C
S21400AA1802D35FFA88F40DE005AB22465146284675
S21400AA282BF0A8F995F84230012B059B34D14B45FD
S21400AA382DD1E4B295F84230012B14BF322264229D
S21400AA48121BB24217D3012E39D10022012B0597CB
S21400AA588DF8132027D1082205A90DF113002BF035
S21400AA6845FC9DF81330059A42EA032221462846FB
S21400AA78FFF730FA40B10223324900932846CC2328
S21400AA88096803AAFFF7FAFE06B0BDE8F087DBB24E
S21400AA9803B902340134B4E7591CCAD09BB2002B60
S21400AAA8F8D10134F6E7102205A90DF113002BF0B2
S21400AAB81DFC9DF81330059A42EA0342D6E7039A2E
S21400AAC8012B059223D10823202205A90DF1130096
S21400AAD88DF813302BF00AFC9DF81320120221463D
S21400AAE82846FFF7F7F995F84230611C012BC9B2E2
S21400AAF81AD10028BFD12846BDF81420FFF7EAF976
S21400AB080028B8D10234BDF81620E1B2AFE710230A
S21400AB18202205A90DF113008DF813302BF0E6FB63
S21400AB289DF813201204DAE70028A4D1059A9EE7B8
S21400AB38B7F5803F4FF00106BFF457AF4FF0320825
S21400AB485AE700BF9437002070B586B00E46054613
S21400AB580392A0B390F834309BB3B1F5801F32D27D
S21400AB6802212AF032FF31462846184A0DF117030B
S21400AB78FEF7BAFD044618B99DF81730032B0ED118
S21400AB880223314600932846CC2303AAFFF776FE15
S21400AB980446E86B2BF0B2F8204606B070BD022BD0
S21400ABA80BD10A4928462BF007F903990246814239
S21400ABB8EFD02846FFF706FFEAE76124E9E72124F5
S21400ABC8EAE71124E8E72924E6E700BF94370020DF
S21400ABD8F7B50C461646054668B390F8343063B3A6
S21400ABE8B1F5801F2BD202212AF0EFFE2146284617
S21400ABF8144A0DF10703FEF777FDC0B99DF8073034
S21400AC08032B14D0022B14D10E4928462BF0D4F867
S21400AC18471C024639462846FFF7D4FE044606B1C6
S21400AC283760E86B2BF06AF8204603B0F0BD2D2499
S21400AC38F7E76124F5E72124F6E71124F4E7292449
S21400AC48F2E700BF9437002030B50C46054685B0BD
S21400AC5828B390F8343023B3B1F5801F23D20221ED
S21400AC682AF0B3FE0DF10F03214628460F4AFEF7D9
S21400AC783BFD034688B99DF80F20032A0DD0032212
S21400AC882146009202462846FFF7F8FD0446E86B80
S21400AC982BF034F8204605B030BD2D24F7E72124E4
S21400ACA8F8E71124F6E72924F4E700BF94370020D4
S21400ACB82DE9F043466886B3056898464FF0000CC1
S21400ACC8A946AE4655F83C400CF1010CC4F31307F0
S21400ACD8013401D0B94217D0B4450EF1080EF1D1AF
S21400ACE82F46002403E0B44207F1080712D055F8AF
S21400ACF8343001340133F6D1C1F3130141EA085167
S21400AD08C7E90012BDE8F08341EA0851CEE900120F
S21400AD18BDE8F083B8F1030F03D101230372BDE841
S21400AD28F083002303E0B34209F10809F5D055F88B
S21400AD3833400133C4F30754032CF4D1C1F313038F
S21400AD4843EA0853C9E90032BDE8F0832DE9F0412B
S21400AD580646406882B0B8B10F469046002433686D
S21400AD6853F8345003EBC403C5F30752C5F3130175
S21400AD78013506D05B683046CDF80080B84718B174
S21400AD88706801348442EAD302B0BDE8F08100BF9F
S21400AD98024B1968024B1868FFF780BB90620020C8
S21400ADA8B062002008B534F012FF014B186008BDE9
S21400ADB8C0370020014B186834F004BFC0370020A5
S21400ADC873B504462248012A00EAC1119DF81850B6
S21400ADD823F07C4007D9961E012E28D9073303F0A6
S21400ADE87F03194308E09DF81C300A43DB0603F08E
S21400ADF8C053134343F060410023C4E900108DF8A4
S21400AE080730B5B1202221460DF107002BF06EFA67
S21400AE181A220DF10700211D2BF068FA0820636836
S21400AE289DF8072043EA8263636002B070BD114351
S21400AE38E2E71B220DF1070021462BF057FA23689C
S21400AE489DF80720042043EAC2632360EDE700BFAD
S21400AE5880FFFF0738B5094B0D461A6800210446DF
S21400AE6811F058FA00234FF0FF322383C4E9002577
S21400AE782361A260E382A37638BD00BF409B04002E
S21400AE880138C0B205289ABF014B185C01207047EC
S21400AE98459B04002DE9F0410746154600240E465A
S21400AEA8596888B0490A012922464FEA510104F137
S21400AEB80104F8D8DC78997824031B88C90201F4C1
S21400AEC8006104F480540C43C3F30A03520323447A
S21400AED892B24FF000089C18274B6FEA044403937D
S21400AEE825F07843ED4302A90DF107001B220293D3
S21400AEF88DF807802BF0FAF99DF80720029B02A927
S21400AF0843EAC2630DF107001B2225F07845049337
S21400AF1802958DF807802BF0E9F99DF80720029B2B
S21400AF286FEA144443EAC26305934FF0FF3307946D
S21400AF38069307A9BB69012206F110009847BB696A
S21400AF4805A90446012206F108009847BB69404552
S21400AF5818BF044604A90122301D9847012240451F
S21400AF6818BF0446BB69304603A99847404508BF42
S21400AF78204608B0BDE8F08101009AB2044BD3F829
S21400AF888420D206FBD4D3F88400C0F3811070471F
S21400AF980040005038B5184B0546D3F824010C4637
S21400AFA800F00700062823D8DFE800F0040A121A83
S21400AFB81E0E1600012305B1286004B1236038BDB3
S21400AFC832F098FE0523F6E732F094FE0623F2E701
S21400AFD832F0CAFE0323EEE732F0C6FE0423EAE7A1
S21400AFE832F0BEFE0223E6E734F004FE0723E2E76B
S21400AFF800231846DFE700BF0080005038B5104B26
S21400B0080546D3F800310C4603F00303022B0BD099
S21400B018032B0DD0012B0FD132F0A6FE032305B16A
S21400B028286004B1236038BD32F0A4FE0823F6E792
S21400B03834F0E0FD0723F2E701230020EFE700BF26
S21400B0480080005038B5104B0546D3F820310C4622
S21400B05803F00303022B0BD0032B0DD0012B0FD1CB
S21400B06832F048FE052305B1286004B1236038BDD8
S21400B07832F07AFE0323F6E732F072FE0223F2E796
S21400B08801230020EFE700BF0080005038B5104BC2
S21400B0980546D3F840310C4603F00303022B0BD0C9
S21400B0A8032B0DD0012B0FD134F0A6FD092305B1D3
S21400B0B8286004B1236038BD32F05CFE0823F6E74A
S21400B0C834F09DFD0B23F2E701230020EFE700BFD5
S21400B0D80080005038B5104B0546D3F860310C4652
S21400B0E803F00303022B0BD0032B0DD0012B0FD13B
S21400B0F834F082FD092305B1286004B1236038BD09
S21400B10832F038FE0823F6E734F079FD0B23F2E731
S21400B11801230020EFE700BF0080005073B50D46FE
S21400B12800210E4B0191D3F88041064604F0030433
S21400B138012C09D0022C0CD00C460EB1019B3360B2
S21400B14805B12C6002B070BD01A8FFF77BFF0F2485
S21400B158F3E732F005FE0190EFE700BF00800050ED
S21400B16838B5104B0546D3F840320C4603F00303B7
S21400B178022B0BD0032B0DD0012B0FD134F03CFD46
S21400B188092305B1286004B1236038BD32F0F2FD0A
S21400B1980823F6E734F033FD0B23F2E700231846BE
S21400B1A8EFE700BF0080005038B5144B0546D3F8CB
S21400B1B800020C4600F0070004281BD8DFE800F061
S21400B1C803090D111500012305B1286004B1236099
S21400B1D838BD34F011FD0923F6E732F0CBFD08231D
S21400B1E8F2E734F00CFD0B23EEE732F0A3FD0E2356
S21400B1F8800AE9E700231846E6E700BF008000500B
S21400B20810B40D4C0B46D4F8204204F00304012C6D
S21400B2180AD0022C0CD008B1002101600BB1002224
S21400B2281A605DF8044B70475DF8044BFFF70ABFD9
S21400B2385DF8044BFFF72ABF00800050B0F5207F6A
S21400B2481FD009D8B0F5007F15D003D868B1B0F57F
S21400B258C07F0AD000200CE0B0F5607FFAD10B4B17
S21400B268D3F88000C0F3011003E0084B186FC0F352
S21400B278033001307047054BD3F89000C0F30460E4
S21400B288F7E7024B186FC0F38020F2E70080005003
S21400B2984FF400320E4B014610B500209A66FFF7B1
S21400B2A8CDFF484341F671320A490B4B884294BF9A
S21400B2B800200120DC69DA639A6822F4401242EA28
S21400B2C800529A60E20344BF0022DA6310BD00BF52
S21400B2D800900050005A6202000003505F2898BF92
S21400B2E8094B4FEA501294BF53F82230074B00F030
S21400B2F81F0029B103F58053012282401A60704767
S21400B30803F50053F8E700BF4C9B0400608200502A
S21400B3181FB50021B0F5807F0446019100F0068134
S21400B32800F29D80612800F295801F2805D8002825
S21400B33840F0928032F0FEFCDCE0A0F12004412CC4
S21400B34800F28A8001A353F824F000BF3DB3000042
S21400B35801B500003DB3000001B5000021B50000AE
S21400B36821B5000021B5000021B5000001B5000098
S21400B37801B50000DBB4000095B4000057B5000026
S21400B38861B5000095B4000001B5000001B50000E5
S21400B39801B5000061B4000061B4000061B40000AB
S21400B3A861B4000061B4000061B400002BB5000071
S21400B3B8B7B4000001B5000001B5000001B50000F3
S21400B3C875B500006BB5000001B5000061B400005B
S21400B3D861B4000061B4000061B4000061B400000C
S21400B3E861B4000061B4000061B4000061B40000FC
S21400B3F861B4000061B4000061B4000061B40000EC
S21400B4083DB3000061B400003DB300003DB300004A
S21400B4183DB3000021B5000061B4000061B400002F
S21400B42861B4000061B4000061B4000061B40000BB
S21400B43861B4000061B4000061B4000061B40000AB
S21400B44861B4000061B4000061B400003DB30000C0
S21400B4583DB3000080284BD0019804B010BDB0F56D
S21400B468A06F5ED028D8B0F5607F50D019D8B0F558
S21400B478007F4CD004D8B0F5C07F3FF45BAFEBE755
S21400B488B0F5207F38D0B0F5407FE5D132F052FCD9
S21400B49802464FF42070FFF7D1FEB2FBF0F25208D6
S21400B4A833E0B0F5806F37D0B0F5906FD4D1002177
S21400B4B801A8FFF76FFDCFE7B0F5E06F51D00DD8C4
S21400B4C8B0F5C06F43D0B0F5D06F45D0B0F5B06FCB
S21400B4D8C2D1002101A8FFF721FEBDE7B0F5F06F45
S21400B4E844D0B0F5086FB7D101A8FFF787FDB3E7DA
S21400B4F832F006FC0190AFE732F01CFC02464FF42F
S21400B5082070FFF79BFEB2FBF0F20192A4E732F040
S21400B518F7FB02462046F4E7002101A8FFF792FD54
S21400B5289AE7002101A8FFF76BFE95E74FF0E023A6
S21400B53802911B695B0705D532F0FCFB0290029B63
S21400B548019389E703A902A8FFF7A0FDF7E7002102
S21400B55801A8FFF79BFD7FE7002101A8FFF724FE5F
S21400B5687AE7002101A8FFF7FBFD75E7002101A88F
S21400B578FFF7B0FD70E700BF08B58020FFF7C8FEEC
S21400B588034B98429EBF4FF48032024B1A6708BDA1
S21400B598005A620200A000501FB503460020B3F50B
S21400B5A8807F01906FD027D8382B00F082800BD888
S21400B5B8243B092B0FD8092B0DD8DFE803F05F5F73
S21400B5C85F5F0C0C5A0C3675522B57D007D83D2B9C
S21400B5D83AD03E2B72D0019805B05DF804FB802B5C
S21400B5E8F9D1394B1B6F03F00703013B032BF2D845
S21400B5F8DFE803F03D36393BB3F5D06F54D019D8A1
S21400B608B3F5A06F55D00AD8B3F5806F36D0B3F52A
S21400B618906FE0D1002001A9FFF7BCFCDBE7B3F58B
S21400B628B06F26D0B3F5C06FD5D1002001A9FFF7BB
S21400B6382DFDD0E7B3F5006FECD00AD8B3F5E06F70
S21400B6483CD0B3F5F06FC6D1002001A9FFF742FD44
S21400B658C1E7B3F5086FBED101A9FFF7CFFCBAE77B
S21400B66805230193B7E70323FBE70723F9E702233C
S21400B678F7E7002001A9FFF751FDACE7002001A974
S21400B688FFF7E0FCA7E74FF0E02302901B695B0793
S21400B69805D532F04FFB0C230393039BE1E703A980
S21400B6A802A8FFF7F3FCF8E7002001A9FFF77CFDE6
S21400B6B891E7002001A9FFF7A3FD8CE7002001A968
S21400B6C8FFF74EFD87E700BF008000504FF40022CA
S21400B6D8034B5A66012203F580439A62704700BFFF
S21400B6E80090005070B504468020FFF755FF0328E9
S21400B6F800F082804FF40022444B02215A6645F639
S21400B7080E03434AC2F88030424B9962012103F582
S21400B71880539962936DD903FCD4D4E900131B05B2
S21400B72843EA0163E17B94F823500B43217B43EA09
S21400B7380143617B43EA0133A17B43EA811313612A
S21400B7489169D4E904031B0643EA806301F00041CB
S21400B7580B43A17EE07E0B43217E43EA0143617ED4
S21400B76843EA01239361E169136A002923F00D0374
S21400B77843EA010314BF0121002143EA800343EA98
S21400B788C103136294F8203094F82200916A4FEAB5
S21400B798431332D194F8216021F0330143EA0613AB
S21400B7A80B4343F0010393621B49194B9A6D31EA28
S21400B7B80202FBD1022217498A621A659A6D520064
S21400B7C8FCD41A69A16822F4700242EA01521A618E
S21400B7D84FF000420F4B9A6118B9022203F58053C6
S21400B7E89A6215B901220D4B9A6294F824301BB15F
S21400B7F8074B0B4AC3F8802070BD21F0330129435C
S21400B8080B4343EA40039362EFE700BF0090005003
S21400B81800C0005000D000500300014000E0005077
S21400B828F1A7FFFF014B93F9000070473858002036
S21400B838014B1880704700BFE0670020B0F5207FF6
S21400B84810B50C4642D008D8B0F5007F33D003D8E0
S21400B85888B1B0F5C07F0ED010BDB0F5607FFBD1C3
S21400B8681F4A4C1ED2F8803023F0300343EA0413F4
S21400B878C2F88030F0E72AF057FD2AF063FD4FF44F
S21400B8888031184B164A1967136F013C23F470432E
S21400B89843EA0433136732F04DFA0446FFF76EFBAB
S21400B8A8C0F1020120462AF047FD00F035F8BDE851
S21400B8B81040FFF761BE0A4A4C1ED2F8903023F0BB
