S01B00006275696C642F72656C656173652F7A69676265652E73333714
S21400600008100020C5900000D5D30000131203002E
S21400601013120300DDD30000E5D3000013120300C3
S21400602013120300131203001312030013120300CB
S214006030E9D30000984F0400131203001312030064
S214006040131203001312030013120300958B0000B3
S214006050131203001312030013120300131203009B
S214006060131203001312030013120300131203008B
S21400607055D9000013120300131203001312030075
S214006080131203001312030013120300131203006B
S214006090131203001312030013120300131203005B
S2140060A01312030091940000719400001312030071
S2140060B013120300B91C0200131203001D2702006E
S2140060C02D69030029690300F91E020043690300D5
S2140060D031690300ED260200356903005D270200E2
S2140060E0C92D0200C50A0200C927020013120300C8
S2140060F013120300131203001312030013120300FB
S21400610013120300131203001312030013120300EA
S21400611013120300131203001312030013120300DA
S21400612013120300131203001312030013120300CA
S21400613013120300131203001312030013120300BA
S21400614082B030BF074BD3F8F030DB0704D500230E
S2140061500193019B052B01DD02B07047019B0133C3
S214006160F6E700BF00ED00E0F0B5114A114C124E04
S21400617000F00105E3695F0713D40DB9334213D16C
S21400618003EA00078F4207D10B4A1A40002A14BFC1
S2140061906FF001000020F0BD013AEBD16FF0020075
S2140061A0F9E74FF0FF30F6E76FF00100F3E700BFC6
S2140061B08096980000000350020001000B4B70B55B
S2140061C0D96911F480310DD101244FF48072084E44
S2140061D0084DF46020462C641A61FFF7C5FF34644E
S2140061E0EC6070BD6FF00100FBE700BF00000350DD
S2140061F000100350002003504FF4003238B50F4B08
S2140062000F4C9A6641F671330122E569E3630D4B44
S2140062100021DA60022360612120236105F48035C5
S214006220FFF7A2FF10B92120FFF79EFF0122064BC1
S214006230DA600DB10023E36338BD00BF0090005064
S21400624000000350001003500020035070B5134C9C
S2140062506061E3695B071ED40E4656F8043B8D1852
S214006260A361AE420BD10423002121202361FFF756
S2140062707BFF58B9BDE870402120FFF775BF0821A5
S2140062800846FFF771FF10B10423236170BD56F86E
S214006290043BA361E5E74FF0FF30F7E7000003504B
S2140062A02DE9F84315464FF40032184B89469A6696
S2140062B041F6713203F51C33DF69DA6301220646C4
S2140062C003F58053DFF84C8007F48037DA6055B961
S2140062D0284601220E4BDA601FB10022A3F50053B8
S2140062E0DA63BDE8F88306F5005404EA0804A41B44
S2140062F0AC4228BF2C46494622463046FFF7A6FF4A
S2140063000028E6D12644A1442D1BE0E7009000506B
S20C0063100020035000E0FFFF2F
S2140063182DE9F04F4FF0FD0BC9B09A460DF11B0959
S2140063289DF8503108AFCDF80C90CDF808B001971D
S214006338059303890446009383790E469046418860
S2140063488288407811F026FA054650B10090A38856
S214006358002062883A4911F061FD284649B0BDE838
S214006368F08F99F800002DF0E9FD38B12846A3888B
S2140063786288344911F052FD8D25EEE75A463946B3
S21400638899F800002DF082FD8346002851D0529BD4
S2140063981BB1BDF84C3198424BD8002399F80090B1
S2140063A80793A9F14102012A5FFA8BF123D83846F0
S2140063B80139254ADFF898C05FFA81FE734513DB7A
S2140063C8059B04210792C3B907AF18221F489FED03
S2140063D81A7B02FB060420460A460830394684ED36
S2140063E8027B16F06FFB11E010F8011F01335140D5
S2140063F80CFB01F2E2E7059B33B123464A463846D2
S21400640800960FF049F9A8E70829DED9B8F1000F79
S21400641801D088F80090BAF1000F01D0AAF800B0B1
S214006428529B002B99D05A46184608A916F04AFBE4
S21400643893E7012591E700BF000000000000000078
S21400644894F80300C9F80300C59D1C81801000203D
S21400645893010001000000002DE9F04F93B0CDE94C
S2140064680A32DDE91C530E9353EC102BCDE90801D4
S214006478104619468DED060B1E9E15F0ADFD80B133
S214006488DDE906014FF0FF32C54B15F0CDFD40B9EA
S214006498DDE906014FF0FF326FF4801315F0A6FD14
S2140064A870B1DDE908019DED060B0E9B1E96CDE941
S2140064B81C53DDE90A3213B0BDE8F04F00F088B986
S2140064C80022DDE90601002315F090FD002800F003
S2140064D83381DDE906A303F1004BCBF30A5016F42B
S2140064E88063A0F2FF3008BF06250F9315F0A2FAC6
S2140064F89BA3D3E9002315F007FB9BA3D3E900234E
S21400650815F04CF9CBF31304894644F07F518046C6
S2140065180022A44B504641F4401115F03DF994A3CF
S214006528D3E9002315F0F0FA02460B4640464946E2
S21400653815F034F915F082FD044615F07BFA8EA3A3
S214006548D3E900238046894615F0DEFA0022964BEA
S21400655815F024F915F072FD89A3D3E90023074640
S2140065684946404615F0D0FA80463846894615F022
S21400657861FA85A3D3E9002315F0C6FA02460B464E
S2140065884046494615F008F902460B46CDE90C2365
S21400659815F0BAFADDE90C238046894610461946F6
S2140065A815F0FCF80022CDE91001804B404649461C
S2140065B815F0D4FB00227E4B15F0F0F802460B4689
S2140065C84046494615F0CAFB00227A4B15F0E6F815
S2140065D802460B464046494615F0C0FBDDE90C234B
S2140065E88046894600204FF0804115F0D5F80246CF
S2140065F80B464046494615F0D1F802460B46DDE9FB
S214006608100115F0ABFB07F2FF3700226A4B15F0B6
S214006618C5F800223B0515F077FA52465B468046D9
S214006628894615F001FD002840F08980CDE90C89DF
S21400663804F16303C62B8CBF0527042731051BD539
S21400664853A3D3E900235046594615F0E3FC002827
S2140066587FD051A3D3E900235046594615F0C6FC0F
S214006668002876D00027A542C6BF2C1B04F1FF35AC
S21400667800253C4646F480660E9B9F422CBF4FF092
S2140066880008A3EB070816F0020903D0002F18BF6E
S2140066984FF000083CB1DDE90C235046594615F08A
S2140066A85DFB82468B46DDE906010022002315F0D5
S2140066B89DFC10B10BF100439B46DDE9080126F46A
S2140066C80063CDE90183DDE90A324BEC10AB009597
S2140066D800F07EF802465FB3DDE9091316F0200FD6
S2140066E800F10105089E0CBF65204520B047DDE98E
S2140066F808010523002205930A23002CCDE902325F
S21400670807F1FF374FEAD473B8BF64422A460193AD
S21400671804970A9B00942FF043FB0246B9F1000F3A
S21400672806D00B9BC41A0B9B1A190E9BA34245D87E
S214006738104613B0BDE8F08FDDE906ABCDE60022C3
S214006748404649461A4B15F009FB013CCDE90C01B9
S2140067586EE7002D90D00F9B002B8DD0013D8BE768
S214006768FB799F501344D33FB3C8608B288AC63F33
S21400677861436F63A787D23F71A379094F930A4095
S2140067881655B5BBB16B0240EF39FAFE422EE63F0E
S2140067982D431CEBE2361A3F0000000080842E4191
S2140067A8FFFFEF7F0000F83F0000E03F00002C40AE
S2140067B800002440000018400000F03F2020DDE9DB
S2140067C80913089DA8470134ADE700BF0000000084
S2140067D82DE9F04F5BEC10AB97B0CDE90501DDE98C
S2140067E82058CDE90723504652465B465946229F15
S2140067F815F0F2FB70B90323CDE902870193AA4B83
S2140068080093DDE90501DDE907232FF0FBF917B052
S214006818BDE8F08F4FF0FF326FF4801350465946AC
S21400682815F0E4FB28B10423CDE9028701939F4BBA
S214006838E6E74FF0FF32504659469D4B15F0F4FBFD
S21400684868B19C4A07F00403002B08BF03229A4B42
S2140068581CBF13460422CDE902870192D0E75046B2
S2140068688DA3D3E90023594615F0DEFB38B98CA36F
S214006878D3E900235046594615F0B8FB68B1DDE960
S2140068880723DDE905014BEC10ABCDE92187209500
S21400689817B0BDE8F04FFFF7DFBD002200235046D3
S2140068A8594615F0A3FB002800F091805B46524637
S2140068B80020002114F070FF012382468B460993BE
S2140068C817F4806400F08580092D40F28580002446
S2140068D830210EABA5F109020134202C03F8011B68
S2140068E8A5EB040901D09442F6D15946504615F056
S2140068F8A5FB724B054603EBC90393ED007B8DEDB4
S2140069080A7B15F097F802460B465046594614F08F
S21400691843FFDDE90A2315F0F7F802460B46CDE9F2
S2140069280C2315F0B3FB064615F074F802460B4622
S214006938DDE90C0114F030FF02460B46CDE90C23C6
S21400694800225F4B15F070FB002848D00136304611
S21400695815F060F802460B46DDE90A0115F050FB13
S21400696808B100260135B9F1000F45D1284615F0C3
S21400697861F802460B465046594614F00DFF0022B1
S2140069884F4B15F033FB10B9E90700D501350A213E
S2140069980EAB1A19202C0AD095FBF1F001FB105506
S2140069A8303502F8015B013405460028F2D107F0BD
S2140069B80302012A55D1B8F1000F52D0099A12B92C
S2140069C817F00C0F01D008F1FF38302240E009908C
S2140069D876E74FF0060988E7A946002485E70022EF
S2140069E8DDE90C01364B15F001FB0028BBD10EB1D2
S2140069F8F007B8D50136B6E70A210EAB1A19202CCF
S214006A080DD0B6FBF1F001FB1063092E03F130033D
S214006A1809F1FF3904F1010402F8013B11D83021CD
S214006A28A1440EAA202CB2D04C4504F101030AD189
S214006A3804F158020DEB02042E2204F8202C1C4602
S214006A48A5E70646DBE7A1541C46EBE71A550134D2
S214006A58444506D2202CF9D1CDE9028701940EAB25
S214006A68CEE6202CF8D0099B3BB12D2204F1580322
S214006A786B4403F8202C0134EEE77A0704D504F1BA
S214006A8858032B226B44F4E73B07E5D504F158037B
S214006A9820226B44EDE700BF0000000065CDCD4125
S214006AA80000000065CDCDC1B7150400BB15040075
S214006AB8FFFFEF7FAE150400B3150400885E0400E0
S214006AC80000E03F0000000070B58EB02C220021C8
S214006AD803A815F067FE64234FF002320893CDE949
S214006AE805230B2301218DF834305B4B8DF81010ED
S214006AF81D880D4040F0A980084633F0C1F90A22E7
S214006B08564B574C1A704FF42873ADF812304FF0A6
S214006B18FF332360534B54491B8820460B82534B44
S214006B28534A1B68CD828B61524B0D621B884B8281
S214006B38514B1B68CB611BF00FFF20B14FF41B7144
S214006B484E4834F0C7F9052120682FF091FF20B190
S214006B5840F27D21494834F0BDF9206814F0D8FD8C
S214006B68474B206819682FF0FDFA0C2533F0F0FD26
S214006B786843099033F0ECFD68430DEB0501079078
S214006B88206816F0ABFA20B140F295213B4834F065
S214006B98A1F925681EF00AFB0022014628462FF0B8
S214006BA859FB20B140F29721344834F093F940F26B
S214006BB80353344D344E2B80052396F90000AB70F2
S214006BC87F2801D11CF0B0F93378EB7033F0C0FDA4
S214006BD800EB80008000A88033F0BAFD0023C000D8
S214006BE84FF0FF31E880AB604FF0FF3018A3D3E9D1
S214006BF8002333F097FA254920682FF0E4FA206836
S214006C0802A92FF0DCFF20B14FF434711B4834F092
S214006C1861F9042220680DEB02012FF078FA0428A7
S214006C2804D040F2D721154834F054F901A90120C0
S214006C382EF039FE06F00EFC01201CF0F9FD2BF0B4
S214006C484CF81CF01FFE1CF007F90EB070BD00BF14
S214006C580A0020FF420300004E540020785B002004
S214006C68744E002028780400606200203078040003
S214006C78B19E0300267804002C780400804E040099
S214006C88A05F0020684E002028650020259F03008E
S214006C980348044B834202D0034B03B1184770479E
S214006CA8546500205465002000000000064B074984
S214006CB8C91A891048BF0131491003D0044B0BB1DB
S214006CC801481847704700BF5465002054650020E7
S214006CD80000000010B5064C237843B9FFF7D8FF2C
S214006CE8044B13B10448AFF300800123237010BD92
S214006CF8B81500200000000048B3040008B5044B8F
S214006D081BB104490448AFF30080BDE80840CDE74E
S214006D1800000000BC15002048B30400A3F5803A24
S214006D28704700BF154B002B08BF114B9D46FFF759
S214006D38F5FF00218B460F461148124A121A15F025
S214006D4831FD0C4B002B00D098470B4B002B00D086
S214006D5898470020002104000D000B4816F068F83C
S214006D6815F0F8FC200029002AF068F816F04EF80E
S214006D7800000800000000000000000008100020C6
S214006D8808100020CC5B0020A1CE010007B5012129
S214006D9820200DF1070200F039FE58B10223012128
S214006DA820200DF107028DF8073000F03FFE03B0F3
S214006DB85DF804FB9DF807100229F8D0022209485E
S214006DC814F0D2FB022301210DF1070220208DF8D2
S214006DD8073000F02BFE29F0B5FF4FF4FA6000F0FC
S214006DE825FDE4E710B3030038B500F087FF012857
S214006DF805D000F083FF022801D000F097FF064D6B
S214006E082B783BB900F07AFF0128044602D12AF015
S214006E180CF82C7038BD00BF2C55002070B50C46F9
S214006E28088800F06FFD94F844300546834214D075
S214006E3804F11C06304629F094FF84F8445029F0E3
S214006E4894FF3221A064304629F086FF94F8441057
S214006E580248BDE8704014F087BB70BD38B3030025
S214006E6810B50446008800F04DFDA37884F8440069
S214006E78834202BF0123E3702371074B04F11C0011
S214006E88C4E9073400F018FE224620880349BDE806
S214006E98104000F04FBD00BF370B0300256E000002
S214006EA870B5C37804460D461646002B32D1C1B1DC
S214006EB81F4814F059FBE36CA6600BB1E06D9847C9
S214006EC8E368F61A63699E4221D2217E1948013189
S214006ED8C9B2217614F048FBA36D13B1217EE06D8C
S214006EE89847E57029F041FF0DB32379FBB9A268EE
S214006EF8238A801A83421AD201230F48237114F07A
S214006F0833FB236D9BB1E06DBDE870401847012345
S214006F182376E6E70029E4D1084814F025FB636DDC
S214006F28E6602571002BDCD0E06D9847D9E770BD88
S214006F3855B3030066B3030094B3030081B303009C
S214006F48F8B51E46838804460D4617460BB186805C
S214006F58F8BD8178008829F00BFE0123E370084B02
S214006F68E5802781A680C4E903340C34204600F067
S214006F78A3FD29462046BDE8F84029F0EDBE00BF2F
S214006F88830B030010B501790446B1FA81F1008835
S214006F98490929F064FE21796088B1FA81F1490926
S214006FA829F05DFE034B1A68A24204BF00221A604D
S214006FB810BD00BFD415002070B543790446A3B1B0
S214006FC800880E4E04F10805336813B10C4B1B7885
S214006FD86BB1217929F043FE64210A4B3460A36023
S214006FE82846BDE8704029F0B7BE4088E9E706485D
S214006FF814F0BAFA054B3221A360F1E7D415002045
S2140070082D5500208D6F0000AAB30300C16F000045
S21400701810B50446E0B10F4814F0A6FA01236371D0
S214007028A37953B92179208829F019FE236B7BB1FF
S214007038606B0121BDE8104018472046FFF7A2FF05
S21400704804F1080029F08DFE2046FFF7B5FFEDE7AE
S21400705810BD00BFE0B3030010B50446F8B11048F1
S21400706814F082FA00236371A3796BB9217920881A
S214007078B1FA81F1490929F0F2FD236B7BB1606B07
S2140070880021BDE8104018472046FFF77BFF04F1B3
S214007098080029F066FE2046FFF78EFFEDE710BDD4
S2140070A8EBB3030010B5044668B1074814F05CFA61
S2140070B8637920461BB1BDE81040FFF7CDBFBDE899
S2140070C81040FFF7A5BF10BDF7B3030010B50E4C70
S2140070D80E48214614F048FA82210D4814F044FA66
S2140070E882210220A21E00F0A1FC014630B134F82D
S2140070F8022C0848BDE8104014F036BA0648BDE829
S214007108104014F031BA00BFBA4F002006B403008E
S21400711821B403002CB4030070B4030038B5114C36
S21400712882212246022000F071FCA51C014688B187
S21400713822880D4814F018FA2A460C4B03F12C0145
S21400714853F8040B8B4242F8040BF9D11B781370E2
S2140071582C23238035F8021C054A0648BDE838402B
S21400716814F002BAB84F00207BB40300FBB4030047
S214007178BA4F0020D9B4030010B5044601460848A3
S21400718814F0F2F9012C074805D129F04EFDBDE8A8
S214007198104001F027B8BDE8104029F048BD00BFF0
S2140071A828B503002C5F002070B50024184D194E32
S2140071B83378A34217DC0024174D184E3378A342C1
S2140071C817DC0024164D174E3378A34217DC00F060
S2140071D895FD0128144818D129F027FDBDE8704010
S2140071E8124800F09DBD2846FFF73AFE0134603588
S2140071F8DEE7284629F0FFFC01343435DEE728466A
S21400720829F032FD01343835DEE729F010FDE5E7D0
S214007218EC1E002032550020CC20002033550020DC
S214007228BC1C0020315500202C5F00208171000016
S2140072382DE9F04F85B0FFF771FFBA4B03A803930B
S21400724829F036FD054615F0A9F9B74CC2B21F2A33
S214007258627004D9B54814F087F900F0DBFA2946BD
S214007268A01C15F02FFC03A829F022FD054615F0F2
S21400727895F9C2B21F2A84F8212001D9AC48EAE75A
S214007288294604F1220015F01DFC03A829F010FD7C
S214007298002504462678002E6FD1DFF8D092DFF856
S2140072A8D0A2DFF8A882FFF77FFF99F800309AF897
S2140072B8002098F800109F4814F056F99AF8003005
S2140072C898F800509C4F1D4499F800303C461D44E1
S2140072D8EDB2012D38BF01253B464FF482714FF6BB
S2140072E8FF720136B5421E7059809A8003F10C036E
S2140072F8F7DC924B90498C48A36000F0C5FDE07916
S214007308A26800EB400002EB800000F0C9FBE279BF
S2140073188A4B0132E27100261C46DFF834B298F830
S2140073280030B34200F3DB8100274FF00C0B844A91
S214007338814E9AF8000098F80010B84200F3E081F1
S21400734800274FF0700808440BFB0066DFF824A2FD
S21400735899F80030BB4200F3EF812946764800F0E2
S2140073680DFC039B6F491A468B4240F0F481754822
S21400737805B0BDE8F04F14F0F7B8532E0FD1637878
S2140073884C2B40F0F980A378502B40F0F580012272
S2140073986D4B1A7003A829F08BFC04467AE729D8A7
S2140073A8412EF7D9423E102EF4D801A353F826F002
S2140073B829740000597600009D7300009D73000034
S2140073C89D7300009D7300009D730000AF7400005D
S2140073D89D7300009D730000657400000F74000024
S2140073E89D7300009D7300009D7300009D73000050
S2140073F8ED750000692ECDD1601C29F066FC80B2C0
S21400740829F09CFCC6E7514B012019780023504A06
S214007418994202F1A402BDDD02F8A20C0133F7E797
S214007428601C00F0DBFA0646E01C29F070FC01211F
S2140074380246304600F020FA60224648464C03785A
S2140074485A43A118A6524FF4FA620A824FF44872B9
S2140074584A61424A0A65013303709BE7601C00F0E4
S214007468BDFA0022342780463D4E114600F004FA45
S21400747830783C4D07FB00F325F80380EA18E378DC
S2140074881046693B18BF0123937029F0B4FB337884
S214007498354A03FB07550021156001255160157410
S2140074A82B44337076E7601C00F098FA00221146E9
S2140074B8804600F0E1F93422294E2A4F307802FB44
S2140074C800F327F80380F918E3780846693B18BFE5
S2140074D801238B7029F08FFB194A00231146906B05
S2140074E8B0B901EB83113423327802FB03738B6344
S2140074F85DB91D4A2B46114652F8040B70B9342262
S214007508307800FB027241F8232033780133C8E74D
S2140075180133042B02F14002E1D1E9E70133042BE1
S214007528EAD1F2E7BA4F00204C5E002047B50300C8
S2140075385EB503006EB50300D8150020501600206F
S21400754820190020ABB503002D550020305500202B
S214007558201A002032550020EC1E0020A30C030041
S21400756833550020CC2000202C5F00202E5500200C
S2140075782F550020D0170020601C00F02FFA074671
S214007588E01C29F0C4FB01210246384600F074F9D5
S2140075986023754E754C3278A4205343E118E752A1
S2140075A84FF44873724F0B824B613B78DFF8E0C1AB
S2140075B858430CEB00010CF800304FF4007048807C
S2140075C803200871887102EB420004EB4014322055
S2140075D80133DBB201324B718C6081F8A000327047
S2140075E83B70D7E6601C00F0F9F900224FF0380827
S2140075F88146604F114600F03FF93B785E4E08FB27
S21400760803F326F803904FF00109F21882F8049065
S214007618E3786BB1E01C00F0E1F90022044611465D
S21400762800F02AF93B7808FB03635C8083F8069031
S2140076385248534A037899015354397802EB831415
S214007648C1EBC10206EBC20262634A1C3A7002E74B
S214007658601C00F0C3F90746E01C00F0BFF90022E2
S21400766806461146384600F007F900223824114627
S214007678304600F001F93F483F4A03784FF0010EC4
S21400768804FB03FC02EB0C0122F80C704FF0000C14
S21400769881F804E081F806C003EB0E01C9B24C433A
S2140076A8171916539C1C04707024364E87F806C0AB
S2140076B8307887F804E04443334FC3EBC303C1EB89
S2140076C8C10107EB040C02EBC303385502EBC102F9
S2140076D87044CCF80430CCF8082030705AE636B13E
S2140076E817F8053C03EB430304EB8304BC603946F8
S2140076F8584600F0F5FF01360BF1A40B0C370EE6E2
S2140077083944481E0BFB00600BFB0161C0790192EF
S21400771800EB400004EB800410468C6000F0F2FD9D
S21400772898F80010194839440BFB016100F040FD39
S214007738019A01374032FCE516F8053C314603EB62
S214007748430304EB830408FB07A0B46000F0B6FC10
S21400775801370C36FCE513F8011D00297FF402AE4C
S2140077683B2102F8011CFDE532550020EC1E0020E6
S2140077783055002031550020BC1C00202F55002015
S214007788201900202E550020D0170020B01C0020FD
S214007798201A002007B5022101200DF1060200F08C
S2140077A835F938B9044813F0DFFEBDF8060003B013
S2140077B85DF804FB0020FAE7C8B5030007B5022108
S2140077C8ADF806000DF10602012000F02FF901467B
S2140077D810B1034813F0C8FE03B05DF804FB00BF01
S2140077E8E9B5030010B5FFF7D5FF0446014607487C
S2140077F813F0BAFE0121064813F0B6FE24B9BDE818
S21400780810400120FFF7DABF10BD00BF19B603000D
S2140078182BB6030008B5044813F0A6FE00F016F9C8
S21400782829F090FA29F08BFA41B6030038B50446D9
S214007838084D094B28462B6000F03EF9002C18BF6F
S21400784821462846BDE8384008BF4FF4967129F00F
S21400785883BA00BFD0210020F10C030010B5044CF9
S214007868237823B9034833F0D2FA0123237010BDD6
S214007878355500209451040073B506460D46144647
S214007888FFF7ECFF0E4A330AD35C8DF805608DF8D7
S21400789804307DB1012C04D0032C09D0002201212C
S2140078A801E02246022101A801F0C0FC02B070BD2A
S2140078B80022F7E704212A460DEB0100F4E700BF93
S2140078C8774F040007B5064A030AD35C8DF805000F
S2140078D801A88DF8043001F0DDFC03B05DF804FB68
S2140078E8774F040007B5064A030AD35C8DF80500EF
S2140078F801A88DF8043001F0F9FC03B05DF804FB2C
S214007908774F040007B50A4A030AD35C8DF80500CA
S2140079188DF8043000230DF1030101A88DF803301B
S21400792801F010FD9DF8030003B05DF804FB00BFEE
S214007938774F04002DE9F043214C85B0064688466B
S2140079489146FFF78BFF23781BB901F053FC012300
S21400795823701C4A330AD35C30228DF80C3000237F
S214007968194F8DF80D6002FB03F4395DE51901BB6C
S21400797801233B554FF0FF3304F1100013493844F8
S214007988AB606E80C5F80480C5F80C9008F0A2FCC1
S21400799804F10801042239440D4B009503A801F0B0
S2140079A8FFFCA96802460B4813F0DEFD05B0BDE8EB
S2140079B8F0830133102BD6D1074813F0D5FDF5E731
S2140079C834550020774F0400F8210020F70C0300F8
S2140079D8090D03004EB603007CB6030080B102789A
S2140079E8A2F14103032B0BD840783038C0B20828E0
S2140079F806D8054B134413F8413C40EA0320704769
S214007A084FF6FF70704700BF774F040008B50B4667
S214007A1842B101460448006802F00AFEBDE8084084
S214007A2829F086B9022008BD985F002008B50B46E5
S214007A3842B101460448006802F082FFBDE80840EB
S214007A4829F076B9022008BD985F0020F0B5002618
S214007A58124F8DB0FF2300930A223346386802A9D6
S214007A6829F0E4FEC0B102AB1D4603EB800404E037
S214007A7855F8043BB34228BF5E1CAC423868E9D9C7
S214007A88296803F0E3F80028F2D02D28F0D00DB0CE
S214007A98BDE8F04029F04CB90DB0F0BD985F002065
S214007AA828B1034B0360034B436000238360704791
S214007AB819000003405F0020FF2307B50021044A91
S214007AC80093083008F08AFB03B05DF804FB00BF9B
S214007AD85B0D03000B46044902460868034909780B
S214007AE808B129F049B9704700250020375500200D
S214007AF8F8B50C4618B122210E4833F0EBF9246885
S214007B0823685E795F8830463946FFF7E3FF08B991
S214007B188120F8BD8568002DFAD0A368E27C394636
S214007B283046A84704460028F2D12CF071FF2046BC
S214007B38EFE700BFA4B60300F8B515460D4A04469D
S214007B4810680D4A0B46117850B1224629F014F9F0
S214007B58034628B100210C27C678B14201DB002075
S214007B68F8BD07FB01F45A681019125BAA42F7D051
S214007B780131F2E700250020375500202DE9F74FA0
S214007B8804460D460026454B454F1860454B197070
S214007B9833010021F85C01360FF0EAFB0C2EF7D112
S214007BA80C2D28BF0C254FF0000901953C4EDFF838
S214007BB800A13D4DDFF8FC80019B4B4502DC03B07D
S214007BC8BDE8F08F23784FF0000B3370638873801E
S214007BD8A388B380A379C6F80880B371E379C8F898
S214007BE8005088F804304FF00003A768A8F806305D
S214007BF8E3795B450ADC012116F8100B0FF0B8FB99
S214007C0808F1080809F101090C34D5E74FF000031C
S214007C1838886B812880FB784FF0000C2B81BA7867
S214007C28C5F804A0002A00920CBF802240222A73BE
S214007C3879680AF10C02634513DC03EB43030AEB8D
S214007C48830ABB6843B1009A4FF6FF71B2FA82F214
S214007C58164B52092CF06CFE14350BF1010B0C3741
S214007C68C6E7B1F800E00CF1010C22F80CEC91F82C
S214007C7802E00C3202F816EC91F804E00C3102F837
S214007C8815EC11F809ECBEF1010F14BF4FF0100EF9
S214007C984FF0110E02F814ECCDE700BF00250020C7
S214007CA8203C002037550020042B0020F97A0000DD
S214007CB804250020842D0020014B1860704700BF63
S214007CC8FC24002070B5128805460E46FFF734FFE0
S214007CD8044670B102790499806814F0B5FD064B25
S214007CE81B680BB9002070BD314628462288984785
S214007CF8F8E78620F7E700BFFC24002008B50EF05A
S214007D08D3FB022806D0012806D0044B187840007A
S214007D18C0B208BD0120FCE70220FAE7365500206D
S214007D28014B1860704700BFF8240020034B1A78F0
S214007D381AB901221A700AF017BC70473655002087
S214007D480022064B10B51A70054B1C682CB1FFF7BD
S214007D58D5FF2346BDE81040184710BD365500200D
S214007D68F824002037B50446002832D00EF09CFBD5
S214007D78022830D160892DF0ADF9E079237A0038F1
S214007D8818BF0120012B637A08BF40F008000BB12A
S214007D9840F0100063890BB140F00400257CA188F0
S214007DA8A2790DB1E36873B90C4B0FF0BDFE2178CC
S214007DB808460FF035FF2CF0B4FC002814BF03204B
S214007DC8002003B030BDCDE90035054B0FF0ACFE02
S214007DD8EDE70220F5E70120F3E700BFE104040021
S214007DE8AAD4030008B50CF01DFD014630B10448BE
S214007DF813F0BAFBBDE808400DF0B8B808BD00BFE0
S214007E0816B70300034B044A5B7C0121032013705A
S214007E18FFF70CBE2C5F00203855002010B504462E
S214007E28FFF7F0FFB4F57F4F0BD100240A4B1A88F2
S214007E3813449C70FFF74AF92046BDE81040FFF748
S214007E48F5BC4FF601739C4204D1BDE810400348C8
S214007E5828F0D3BE10BD00BFB84F00202C5F00200E
S214007E6810B5074C012122460320FFF7CFFD28B99D
S214007E782378044A003B18BF0123537410BD00BF83
S214007E88385500202C5F00200822F8B54A4B3224CB
S214007E981A7030229A705A71DA714FF400125C70B8
S214007EA8DC709C71454C3625C464454C42640465B8
S214007EB8444C01228465444C1D71C465434C1D72B4
S214007EC84466434C85188466424CC5670467424C32
S214007ED8424D4467202480F8784080F8844000F1BA
S214007EE82104C0F888403E4CC0F88050C0F88C404A
S214007EF83C4C80F84820C0F894403B4C80F854200E
S214007F08C0F8984080F86020384C80F86C2080F8DC
S214007F18902080F89C20C0F8B830354BC0F8A440B4
S214007F28C0F8BC300F24022380F8A84080F8C03080
S214007F38304C314BC0F8AC40C0F8C4302F4C304BF6
S214007F48C0F8B040C0F8C830092482232D4D80F808
S214007F58B44080F8CC302C7C2B4BC0F8A000C0F87E
S214007F68D03044B1294B80F8D820C0F8D43005F179
S214007F781103C0F8DC304FF0000CCA798E6802EBAB
S214007F8842039F00443006EB830326F807C0586078
S214007F9801200C349870DC701318CB71FFF760FF63
S214007FA8FFF7ACFE012806D12B7C23B1BDE8F840CC
S214007FB8144828F022BEF8BD39550020904F04001A
S214007FC8010020008F4F0400020020008E4F04009E
S214007FD8030020008D4F0400040042000500420004
S214007FE8070030008C4F04001200100100404200C9
S214007FF8FDFF21007B4F04008A4F04000600420064
S21400800800FF44012C5F0020B84F002001FF10013C
S214008018437B044A0121137000780E30C0B2FFF784
S21400802805BD00BF4355002038B504460078054D09
S2140080380E302A460121C0B2FFF7E8FC08B92B78B3
S214008048637338BD43550020024B53F8200028F0D0
S2140080587ABF00BFE42D0020012908B506D0022902
S21400806807D049B928F066FF002008BD28F065FF4C
S214008078FAE728F065FFF7E7024813F075FA0120DB
S214008088F3E700BF43B7030011461A46024B53F8FE
S2140080982000FFF7E1BF00BFE42D0020002310B545
S2140080A8044683810364A0F844304830FFF704FD93
S2140080B8014BC4E9123410BD350F030038B5044629
S2140080C80B781A4A43700D4642F82300FFF7E6FF7E
S2140080D82046FFF7A9FF4FF4401323610123144AF3
S2140080E82375A261134A84F82030E261124A84F8A4
S2140080F82C306262114A84F83830A26204F10C020D
S21400810822630F4A04F10D036263E363EA79A86801
S21400811802EB420300EB830110344C60094C40F834
S2140081282340094B8B60531CEB7138BDE42D0020AF
S2140081384255002008002000D264002000FF3000CE
S21400814801FF1001020101049180000070B50D4680
S2140081580646144613460A460146114813F004FA22
S21400816825B92046BDE87040FFF758BE072D05D153
S21400817821463046BDE8704000F078BA062D05D195
S21400818821463046BDE8704000F076B8B5F5817FE8
S21400819805D121463046BDE87040FFF755BF70BD93
S2140081A85FB703000148FFF787BD00BF5581000091
S2140081B84FF4C01330B5036001230371074B8C6876
S2140081C88360CA7902EB420304EB830568600448BF
S2140081D844F82300531CCB7130BD00BF914F0400F8
S2140081E80400010138B50024044D55F8040B08B105
S2140081F828F0B7FE01340A2CF7D138BD0C2E002023
S2140082080229024608B50ED004D839B9104628F017
S214008218D3FE06E04029F9D0412907D1104628F0B8
S214008228C1FE002008BD28F0D1FEFAE7014813F089
S2140082389BF9F6E792B7030011461A46024B53F825
S2140082482000FFF7DDBF00BF0C2E0020426B094B55
S21400825852791A7082785A70C2789A70826B12B104
S21400826890F83C20DA70007804210930014AC0B240
S214008278FFF7DCBB44550020024B53F8200028F0DB
S214008288C1BE00BF0C2E002038B504460078084D45
S21400829809302A460421C0B2FFF7B8FB30B96B781C
S2140082A8A370AB78E370EB7884F83C3038BD00BF39
S2140082B84455002038B504460078114D09302A4642
S2140082C80421C0B2FFF7A2FBC8B9A3782A78022B0C
S2140082D80CD004D863B9204628F06EFE01E0FF2BC8
S2140082E80AD02046BDE8384028F03BBE002AF2D126
S2140082F8204628F057FEF4E7002AF9D1EBE738BD08
S21400830844550020F8B504460B78224A0D4642F834
S21400831823004370FFF7B8FF636B1F4A5C631A635A
S2140083282046FFF7C7FF204628F01BFE4FF48013B1
S21400833863600123626BA06B0532E260174A237202
S2140083482261A21C2375A26160B1154A84F8203008
S214008358E261E21C6262134A84F82C3004F13C03A2
S214008368A26223630627E979AE6801EB4103002879
S21400837826F8237006EB83020CBF02230423D3706F
S21400838801239370084B043493604B1C5460EB71C4
S214008398F8BD00BF0C2E0020E90F03000340300193
S2140083A801FF300102FF10014182000002464179B8
S2140083B8D37808480139042B00EB811008D8012B24
S2140083C804D80BB928F0EEBD28F0F6BD28F0FEBD9F
S2140083D8704700BF2019002002464179D378084824
S2140083E80139042B00EB811008D8012B04D80BB9EF
S2140083F828F0E2BD28F0D6BD28F0E8BD704700BFDB
S2140084082019002030B587B004464579FFF776FC7A
S214008418012822D1E2786B1E042A1ED8DFE802F073
S2140084280431031F2800104663784FF480728DF8D5
S21400843804304FF48273ADF806300623ADF80830E2
S21400844801238DF80B3000238DF80A0001A8CDE92A
S21400845803238DF81430FFF785FC07B030BD0A4AB1
S21400846802EB83135B6B5B79181E18BF0120DBE7F2
S214008478054A02EB83135B6B5B79B3FA83F040091A
S214008488D2E70020D0E700BF2019002030B587B01B
S21400849804464579FFF732FC012829D1E3786A1E9D
S2140084A8042B25D8DFE803F00B0B0B032600164B2E
S2140084B803EB82135B6B5B79003B18BF0123627882
S2140084C88DF80A308DF804204FF482720123ADF837
S2140084D8062006228DF80B30ADF8082000234FF44E
S2140084E8807201A8CDE903238DF81430FFF73AFC13
S2140084F807B030BD044B03EB82135B6B5B79B3FAB2
S21400850883F35B09DBE700BF2019002010B586B0AF
S2140085180446FFF7F3FB012812D16378094A8DF861
S21400852804304FF48273ADF806304FF48073CDE90B
S2140085380223002301A804938DF81430FFF712FCD9
S21400854806B010BD0800070110B586B00446FFF750
S214008558D5FB012820D16278104B8DF804204FF403
S214008568827294F8A01094F8A10059701870ADF8AB
S214008578062004934FF480720223094901A88DF857
S2140085881430CDE90212FFF7EDFB94F8A130013B59
S21400859818BF012384F8A13006B010BD4855002046
S2140085A80800050110B583780446E3B10379022B69
S2140085B806D143790C48013B00EB831028F006FDF2
S2140085C8A379022B02D12046FFF71CFF2046FFF7AF
S2140085D8BBFF02236078A4F86C305522BDE8104033
S2140085E8122128F0EBBB10BD201900204388094A49
S2140085F8082113808388538083681B8A938090F8A9
S214008608A03093718379D37100780430C0B2FFF735
S2140086180DBA00BF3A50002038B50D46044601781A
S214008628104812F0A1FF4FF602739D420CD16379F1
S2140086381BB10D4A12789A4201D201236371204673
S214008648BDE83840FFF7D2BFB5F57F4FF7D12046D3
S21400865828F03AFDA378022B0CBF01220022A3685B
S2140086689A70ECE7A8B703002F550020024B53F882
S2140086782000FFF7D1BF00BF342E002038B50446CF
S2140086880078134D04302A460821C0B2FFF7BEF919
S21400869820B1BDE838400F4812F066BF2B886380CB
S2140086A86B88E978A380AA88A3681A82AB7984F8CD
S2140086B8A030EB79A37119B1074B1B788B4205D212
S2140086C8064812F051FF23780133637138BD00BFA6
S2140086D83A500020C2B703002F550020EBB703001E
S2140086E8F8B504460B78484A0D4642F8230043700E
S2140086F8FFF7C4FFA268454B0226D364444BA11C6F
S2140087085365444B44481365444B04F10C0CC2E9CA
S21400871816344FF44013E36001236161E162404977
S214008728103221632265211D3E4AA1633E496265D7
S21400873804F1A002A061E163E265E01C611D3B4A0A
S214008748206261643A483B492266A21D2374237757
S21400875884F8283084F8343084F84030A16484F8EB
S2140087684C6084F8583084F864306062A266E87911
S214008778AA6800EB400102EB8107C7F804C04FF077
S214008788060C2D4F42F82170C118C9B201EB410101
S21400879842F821C002EB810700217960274F84F850
S2140087A880302767264F84F89830A767254F264BD2
S2140087B8E767264F84F8746084F88C60C4F89C30A9
S2140087C804F16C06831CC4F88470C4F89060204FCB
S2140087D8204EDBB203EB4303C4F89460C4F88870F9
S2140087E802EB83067034746008261B4C42F823405C
S2140087F8C31CDBB203EB430302EB8304043042F8EA
S21400880823606160E871F8BD342E00203D10030037
S2140088187F100300AD850000100030013310030000
S21400882801FF300104FF200102FF200105FF30018F
S21400883800FF300103FF2101070001084A0021005C
S214008848924F040051001000944F0400954F040006
S214008858550021006F0018001200010400239B6ACF
S214008868B3F5C04F03D21968064A914203D00023D5
S214008878037083607047012202709A689B694260A1
S214008888F7E700BF07B0CD5E024B034A1A6029F02F
S214008898E5BD00BF0000002002020FF073B5534B81
S2140088A804461A781AB102221A7002B070BDCDE9D1
S2140088B800220028F9D001261E7032F087FA4C4DA7
S2140088C84C4B186017F052F82B785BB902F062FA36
S2140088D840B949480823494A4949006801F0A8FEB2
S2140088E800B92E70474B5A6E62619B6E464AA3616A
S2140088F84FF40043936603F188435968E16143499E
S2140089089960196E2160596E6160D3F87011A16084
S214008918196CE160596C21613D49086C1864496C12
S2140089285964012151664FF4005191661A6E560437
S21400893836D53849CA68D407FCD45B6E5A0434D591
S214008948354AD36B13F0430FFBD1344B1A68531CCC
S21400895831D04FF400139340314A13660423304C49
S214008968684623664FF480632366102323664FF415
S214008978005323664FF0804323664FF4804301A9D3
S214008988636628F0B9FB009B2366019B63662B7819
S214008998002B8AD0194B1A6822665B68636684E7E0
S2140089A82049CA68D007FCD4C7E71F4AD36B13F020
S2140089B8430FFBD1C9E71D4B1B78002BCED14FF4D4
S2140089C88072114B5A661A4A52681AB94FF4001147
S2140089D8134A11664FF400725A66164B5B68002BF2
S2140089E8BCD14FF480020E4B1A66B7E74B550020F1
S2140089F84C5500207C2E0020985F0020802E0020FA
S214008A0800710800008000500090005055CEAC0061
S214008A1800C00054000004400000024C645F0020C0
S214008A2800900044000004500000025C4A550020F4
S214008A3800C005500000065070B52C4D04462E7830
S214008A48012E02D001232B7070BD0028FCD028F020
S214008A5878FB01300BD028F074FB40F201139842E3
S214008A6805D0234B234A5E66D368DE07FCD4224B28
S214008A7822491B6E13F0040F4FF4005314BF1C4A10
S214008A881F4A9366CA6B12F04302FBD121681A4B41
S214008A98196661685966A168C3F87011E1681964B7
S214008AA821695964E169C80748BF9A60154B1A6876
S214008AB801320DD1144A127852B914494968C907C7
S214008AC848BF1A60124A5268D20744BF01221A6089
S214008AD86269104B5A66A2699A6616F04FFF0E4BEB
S214008AE8186832F06EF90023ADE700BF4B5500203A
S214008AF80090004000000440008000440000024C43
S214008B0800900050645F00204A55002000C00550C1
S214008B1800000650008000507C2E002070B500240F
S214008B28A36AB3F5C04F23D21A68134B9A421FD1D3
S214008B38124E337813F0FD0518D14FF480341048E0
S214008B48FFF7ACFE032004F031FA0E4B0320DC607E
S214008B5804F010FA0C4B1C61AB6ADB6998470446B4
S214008B680748FFF769FF0CB901233370204670BD2C
S214008B784FF48174FAE700BF07B0CD5E4A5500206F
S214008B885C2E002000A000440090004413B5204B43
S214008B981B7803B9FEE700231E4CCDE900336A466E
S214008BA808231D49206801F043FDF8B91B4AD2F88E
S214008BB84031D2F840211F2B4FF0010311D9203A3B
S214008BC89340019A1A43019208236A46124920687C
S214008BD801F0B6FE124B134A1A6029F03FFC02B0A9
S214008BE810BD9340009A1A430092EDE72D28F1D164
S214008BF80A4AD2F84031D2F840211F2B4FF0010321
S214008C0885BF203A93409340019398BF0093DBE7D3
S214008C184B550020985F0020007108000080004433
S214008C28000000200B020FF038B50025AB6A04469A
S214008C38B3F5C04F10D21B6BB3F5C04F0CD2074824
S214008C48FFF72CFEAB6A20461B6B5B689847BDE8AF
S214008C5838400248FFF7F0BE38BD00BF882E002017
S214008C6813B50024A36A0190B3F5C04F13D21B6B4B
S214008C78B3F5C04F0FD20948FFF710FEA36A0121CB
S214008C881B6B01A89B69984704460448FFF7D4FE67
S214008C98204602B010BD4FF48174F9E7882E0020F4
S214008CA870B50026B36A0446B3F5C04F0D4612D217
S214008CB81B6BB3F5C04F0ED20848FFF7EFFDB36A3B
S214008CC820461B6B29469B69984704460348FFF7CE
S214008CD8B3FE204670BD4FF48174FAE7882E002054
S214008CE870B50026B36A0446B3F5C04F0D4612D2D7
S214008CF81B6BB3F5C04F0ED20848FFF7CFFDB36A1B
S214008D0820461B6B2946DB69984704460348FFF74D
S214008D1893FE204670BD4FF48174FAE7882E002033
S214008D28F8B50027BB6A0446B3F5C04F0D4616468D
S214008D3811D21B6B7BB10948FFF7B0FDBB6A204612
S214008D481B6B324629465B6A984704460348FFF77A
S214008D5873FE2046F8BD4FF40174FAE7882E00200B
S214008D6870B50026B36A0446B3F5C04F0D4612D256
S214008D781B6BB3F5C04F0ED20848FFF78FFDB36ADA
S214008D8820461B6B29469B6A984704460348FFF70C
S214008D9853FE204670BD4FF40174FAE7882E002073
S214008DA8F0B50027BB6A0446B3F5C04F0D46164615
S214008DB8ADF5177D20D21B6BB3F5C04F1CD21048FB
S214008DC8FFF76CFDBB6A20461B6B40F251225B6ABC
S214008DD801A99847044630B10948FFF72DFE2046FA
S214008DE80DF5177DF0BD836A32461B6B2946DB6A94
S214008DF801A898470446EFE74FF40174EFE700BF71
S214008E08882E002010B50024A36AB3F5C04F10D2F0
S214008E181B6BB3F5C04F0CD20748FFF73FFDA36A9C
S214008E281B6B1B6B984704460348FFF705FE204656
S214008E3810BD0124FBE700BF882E0020F0B58FB0D8
S214008E48044601A80E461546FFF7EEFE9DF80C30C0
S214008E58012B12D1B5F5002F27D8B4F5002F24D84A
S214008E686319B3F5002F20D821462A46304613F05A
S214008E7829FE002420460FB0F0BD0027BB6AB3F5D4
S214008E88C04F15D21B6BB3F5C04F11D20A48FFF777
S214008E9805FDBB6A2A461B6B314620465B6B984726
S214008EA804460548FFF7C8FDE4E740F20244E1E758
S214008EB840F20114DEE700BF882E0020F0B58FB020
S214008EC8044601A80E461546FFF7AEFE9DF80C3080
S214008ED8012B1FD1B5F5002F06D8B4F5002F03D8FF
S214008EE86319B3F5002F13D940F2024420460FB099
S214008EF8F0BDE258013225D104339D42F9D82A46FE
S214008F083146204600F082F80028EDD00024EDE730
S214008F180023F2E70027BB6AB3F5C04F15D21B6BD8
S214008F28B3F5C04F11D20A48FFF7B8FCBB6A2A4609
S214008F381B6B314620469B6B984704460448FFF750
S214008F487BFDD3E740F20344D0E740F20114CDE7B7
S214008F58882E002070B58EB0044601A80D46FFF78F
S214008F6863FE9DF80C30012B22D144EA0503C3F3B7
S214008F780C03002B33D1B5F5002F04D940F2024478
S214008F8820460EB070BDB4F5002FF7D82544B5F5C9
S214008F98002FF3D8204604F5005400F029F8AC4218
S214008FA802D00028F6D1E9E70028E7D00024E7E752
S214008FB80026B36AB3F5C04F14D21B6BB3F5C04F87
S214008FC810D20A48FFF76AFCB36A29461B6B20468C
S214008FD8DB6B984704460548FFF72EFDD0E740F2BE
S214008FE80444CDE740F20114CAE700BF882E0020EB
S214008FF84FF4003208B5044B9A6632F079F9B0FAA5
S21400900880F0400908BD00BF00900050134610B518
S21400901862B103439B070BD14FF40034054B9C66A3
S21400902832F06EF9B0FA80F0400910BD0120FCE776
S2140090380020FAE700900050BFF34F8F0549064B13
S214009048CA6802F4E0621343CB60BFF34F8F00BFD9
S214009058FDE700BF00ED00E00400FA0570B5D0B1EA
S214009068C9B10E4E431E013913F8014F2046325D32
S21400907802F00302012A11F8012F08BF04F12000AC
S214009088B55C05F00305012D08BF2032801A01D112
S214009098002CE9D170BD0120FCE700BF257704004D
S2140090A80348044A0449121A921028F0AFB800BFC1
S2140090B84061000018630000685C002008B5154B86
S2140090C883F30A8800F030F8FFF7EAFF124B1349DB
S2140090D88B4212D30020124B12498B4218D3FDF74D
S2140090E821FE186850F82240586840F8224001329D
S2140090F898688242F5D30C33EAE70022F8E71C6842
S21400910844F8220001325C68A242F8D30833E4E748
S2140091180022F8E70800002050B304005CB30400FF
S2140091285CB304005CB304004FF40041134B144ACC
S21400913870B59A60D3F88820124D42F47002C3F8CE
S2140091488820114A05F5005491664FF0FF322266D2
S2140091584FF6DF7262660222C3F8D020BFF34F8F45
S214009168BFF36F8F4FF44036032003F01FFF032032
S214009178E66003F0FFFE2E6170BD00BF00ED00E064
S214009188006000000080004400900050054B186006
S214009198054B1B6F03F00703032B01D12FF062BFAB
S2140091A8704700BF745F0020008000502DE9F04132
S2140091B804464FF001080C250D4E0CB9BDE8F081A9
S2140091C894FAA4F0B0FA80F00F2808FA00F2C8BFA4
S2140091D8103824EA0204CABF05FB006205FB0062D9
S2140091E8B4325768002FE8D09168C0B2B847E4E7B1
S2140091F8A82E002008B50C4831F009FE192003F007
S214009208C7FE28B1192003F0D1FE192003F0B2FEDC
S2140092181A2003F0BDFE28B11A2003F0C7FE1A2054
S21400922803F0A8FE002008BD945104002DE9F04183
S2140092380E461746054618B30F2923D80378DBB120
S214009248013BDBB2022B19D8104AD35C6A78D340AC
S214009258DB0717D50E4BD3F81043ACB931F0B6FD83
S21400926880463A462846314602F0DCFD404631F054
S214009278A8FD2046BDE8F0817F23E7E70023E5E761
S2140092882224F6E72124F4E70224F2E7E84F040054
S21400929800C0035010B5044610B30378E3B1013B91
S2140092A8DBB2022B1AD8104AD35C6278D340DB07AD
S2140092B818D531F08BFD0122617823788A40302159
S2140092C84B4341F2100103F1A04303F570335A50A3
S2140092D831F077FD002010BD7F23E6E70023E4E7A2
S2140092E82220F8E72120F6E7E84F040010B50446E8
S2140092F810B30378E3B1013BDBB2022B1AD8104A4D
S214009308D35C6278D340DB0718D531F05FFD0122C5
S214009318617823788A4030214B4342F2100103F1EA
S214009328A04303F570335A5031F04BFD002010BDB2
S2140093387F23E6E70023E4E72220F8E72120F6E784
S214009348E84F040038B50D46044618B311B3037841
S214009358E3B1013BDBB2022B1AD8104AD35C627821
S214009368D340DB0718D531F031FD3022237853433C
S21400937803F1A04303F570335B696278D34003F0CA
S21400938801032B7031F01DFD002038BD7F23E6E772
S2140093980023E4E72220F8E72120F6E7E84F040058
S2140093A82DE9F0410D4616469846044600284FD04B
S2140093B800294DD00178002940D04B1EDBB2022B85
S2140093C83ED8254AD25C6378DA40D20701D4FF2912
S2140093D840D1022E01D9042E3CD131F0F7FC237877
S2140093E80746FF2B05D032462046296802F060FD66
S2140093F828602B68013309D12378FF2B06D1174B39
S2140094086078D3F8241428F04CFC286029684B1C94
S21400941818D00C23124A03FB0122069BC2F80480CC
S21400942893602378FF2B04D001230E4A8B40C2F8A2
S2140094382434384631F0C5FC002007E07F22C2E716
S2140094480022C0E7384631F0BCFC2D20BDE8F0818C
S2140094582220FBE72120F9E7E84F040000C003506C
S214009468A82E002000D0035008B502F0D1FC054B0A
S21400947800F0553020F05020C3F82004BDE808401E
S214009488FFF794BE00E0035008B502F0C1FC054B98
S21400949800F0AA3020F0A020C3F82004BDE8084059
S2140094A8FFF784BE00E003502DE9F04F144605464A
S2140094B80E469B46C36B87B001225B6902A96068AB
S2140094C89847EB6B01225B6903A93046984702A8C8
S2140094D828F09BFA074648B10023A37563754FF03A
S2140094E8FF33A360002007B0BDE8F08F03A828F07C
S2140094F899FA0123A375237E04EBC303DE611F8458
S2140095086368B3420ED1206003A828F0ADFA4FF086
S214009518FF332075A360237D043B022B26D8002347
S214009528A375DFE723681A1A53425341A37503A8A5
S21400953828F09AFA237D834218BFA77503A828F057
S21400954875FA074602A828F071FA874218BF002362
S21400955803A818BFA37528F071FA074602A828F0D2
S2140095686DFA87421CBF0023A375D4E703A828F02A
S2140095785DFA80B1EB6B022230465B6904A9984716
S21400958804A828F062FA0346207D032839D8DFE8C5
S21400959800F03838040903A8F3E7CC22237E04EB4E
S2140095A8C3031A8401F06EFC109B187003A8277E6C
S2140095B828F030FA04EBC70787F82200237E03A8B2
S2140095C804EBC303B3F8209093F8227028F02EFA21
S2140095D8804603A828F032FA8246B8F1000F15D064
S2140095E8EB6B022230465B6904A9984704A828F06A
S2140095F8F1F96075637D6BB90023A3754FF0000819
S21400960838E0227E04EBC2021384CBE703A828F0D6
S214009618CCF9EEE794F81680B8F1000FEED0B9F161
S214009628000F09D1DFB10123E375637E002B4FD10C
S214009638012F42D1677614E06B6C06EB0A015A429A
S21400964886EA010010421CBF0022A2755A1E0A4074
S2140096589B1A9945D0D8A37D002BE3D1CEE7E37DAE
S21400966843B94FF000084B4652463146284627F085
S21400967817FFA060A27D12B123694B4423611A49E3
S214009688237E097899422AD901332376BBF1000F45
S21400969827D032B3E37D23B3B8F1000F21D1032FCF
S2140096A81FD0A1684B1C1CD0109B2246009328464E
S2140096B80123FFF7F9FEA07513E095F8343063B977
S2140096C8EB6A0133CFD1032FCDD10123A376C8E7A8
S2140096D8012FCFD0032FC4D1F7E79846C3E700235E
S2140096E8A375A07DFFE600BF0C5004002DE9F04FDF
S2140096F80E46984600238BB004464FF0FF311046BE
S21400970817468DF8133001F0A7FBB6F5801F20D258
S214009718314605AA04F1080028F0C9F8451C014698
S21400972803D1237CBBB92D2010E0384601F094FB0A
S2140097380122394620460DF1130327F003FF0028BF
S214009748EFD09DF8133088F8003000200BB0BDE845
S214009758F08FB01CE5D1E56A691C36D12046616AEF
S21400976827F0E4FD0546B31C18BF0123DFF8CC90AC
S2140097780193636A626C0293236805A902FB053AA3
S214009788E36B05225B695046984705A828F0D8F988
S21400979828F0FBF9504628F003FA4FF0000B8246F3
S2140097A801464B1C05D0636C81EA0A025B421342F1
S2140097B811D02946204627F0B9FD029BAB422CD093
S2140097C8BBF1000F2CD10546D3E72368ED1A636C6E
S2140097D8B5FBF3F5C7E7484601F03EFB0DF113036A
S2140097E849462046019A27F0ADFE034690B1B21CC2
S2140097F803D0D9F80020B2420CD19DF81320039369
S2140098080D4B88F8002049461A68384613F05AF96E
S214009818039B9B46D9F80810C3E7BBF1000F82D01C
S214009828B6F5801F91D2314698F800307A6804F170
S214009838080001F03FFA88E7085004008436002044
S2140098482DE9F3410446174698460E46184D816A98
S214009858E36A8B4201D04B1C02D102B0BDE8F0810E
S214009868284601F0F9FA0122294620460DF1070399
S21400987827F068FE38B14346294620469DF807205B
S214009888B8470028E9D0A9684A1C04D16968204668
S21400989827F0D9FD0146012EDAD16B6881EA03026A
S2140098A8636C5B421A4218BF4FF0FF31D0E700BF27
S2140098B8583600202DE9F04F4FF0FF334FF6FF7271
S2140098C80025044600F10806C0E909238BB0C362E8
S2140098D8056205633046884627F0BAFF204627F01B
S2140098E8F5FC60BB2046414627F070FD204627F071
S2140098F8EDFC60BB5E200BB0BDE8F08F2368E26B22
S214009908606C576900FB0530052205A9B84705A80D
S21400991828F016F9012807460CD12946204627F0D4
S21400992826FD012F024600D101322946204627F09F
S214009938ECFC03E028F02EF90028EED10135E369A7
S2140099489D42DBD3204627F0C1FC0028CAD000255C
S2140099584FF0FF394FF6FF73CA46A846C4E90853C6
S214009968E36998450AD3A5EB0905012D2CD84FF6CF
S214009978FF72636A93423CD16720BCE72368E26BB8
S214009988606C576900FB0830052205A9B84705A88A
S21400999828F0D6F8834605A828F0A9F807465846BA
S2140099A828F0F3F868B1574538BFC4F82480B9459D
S2140099B828BFB946BD4238BF3D46BA46236A01337A
S2140099C8236208F10108CBE74FF6FF7300256362B0
S2140099D8E3699D42CBD2676C2068E36B052207FBE0
S2140099E805005B6905A9984705A828F080F80135A1
S2140099F8EEE7E26B676C2068694607FB030055696B
S214009A080522A847684628F072F8626A2368606CE0
S214009A184B4D00FB023028F0C3F84FF0FF33A0622E
S214009A28E3622A466FF00101204605ABFFF75EFEAB
S214009A38002846D1AD6829462046E56227F022FC74
S214009A48206320B92046E16A27F0FDFCE06229463B
S214009A58204627F0F8FC0546A36A9D4233D12046E7
S214009A6827F0E3FB00278046B946E36999453CD3CF
S214009A78B84559D92046616A27F058FC002605469D
S214009A8804F1400AB74212D8626C2368694602FBA2
S214009A980539E36B05225B6948469847684628F00F
S214009AA826F8534602464946E06B28F07BF82946D6
S214009AB8204627F03BFC0136B0450546E2D1642037
S214009AC819E7A56AB7E72946204627F0DBFB236B8C
S214009AD82946034407462363204627F0B4FC054678
S214009AE8002FB9D1C4E90B07B6E7636C25680522D1
S214009AF803FB0955E36B05A95B692846984705A843
S214009B0828F01EF828F041F858B1284628F048F8FA
S214009B180146204627F0B6FB636C143B984208BF04
S214009B28013709F10109A0E7304627F091FE002326
S214009B3820461946034AFFF783FE0020DBE600BFEF
S214009B48B03600203B1503002DE9F041036B904624
S214009B58826B07689A4288BF8363426C436A90B0F8
S214009B6802FB0377C36B0E46052201A95B69044610
S214009B783846984701A827F0E3FF012801463070C9
S214009B8857D0656CE26B2368606AD2F814C005FB90
S214009B980030052206A9E04706A827F0D1FF0128CD
S214009BA84FF0000523D0D4E90A3201219342CDE9CB
S214009BB80B458DF834800E958DF83C102AD1194641
S214009BC8204627F040FC236B626C14339B1AE06235
S214009BD823630C9B53B99DF83C303BB1626A616CB9
S214009BE82368E06B01FB023127F062FF0C9DE36BF4
S214009BF805225B6901A93846984701A827F0A0FF07
S214009C0830702846236BA26B9A4288BFA36310B0B5
S214009C18BDE8F081237C33B91C490BAA04F108007F
S214009C2801F096F8D5E72046194A0BABFFF708FE71
S214009C38CFE7237C23BB2246164904F1080001F02F
S214009C4887F8616A204627F092FB616A421C204624
S214009C5827F05BFB054620B9236B626C1344143B64
S214009C6823632046A16A27F0EEFB2368A062C01A89
S214009C78636CB0FBF3F06062204627F027FCB6E77B
S214009C8800232046044AFFF7DBFDDAE7F5A30000C9
S214009C9871A30000D51503007115030073B50D46B2
S214009CA8D11E4A421C461B7E4A419A4226D1296842
S214009CB82368994222D3636899421FD8114E0DF142
S214009CC807033246FFF712FDC0B972686B689A42FE
S214009CD814D19DF80730DA1E53425341227E934230
S214009CE80CD1636901336361D4E90323934205D237
S214009CF82968A26842F8231001332361012002B0C4
S214009D0870BD00BFB03600202DE9F04F9B4689B0E5
S214009D189DF848309046514A0193136907465B45BB
S214009D280D46C0F09580D94653680093B9F1000FE8
S214009D387BD0FB6B01225B6905A90098984705A8AC
S214009D4827F070FE454B1B68984240F0848005A8B3
S214009D5827F074FE0428064615D105A827F075FED8
S214009D68009B04461E44019B002B3ED1804512D919
S214009D781C46A8EB00083846009927F064FBA9EBB8
S214009D8804090090D2E7FB6B02225B69009806A9DB
S214009D98984706A8E2E7A0EB08045C4528BF5C469F
S214009DA8032C4644ABEB040B1DD9FB6B2946304607
S214009DB85B69A208984724F0030304F0030A1E44CC
S214009DC81D44DDF80480BAF1000FD4D0FB6B0122E5
S214009DD806A930465B6998475246284606A912F0F7
S214009DE871FE5544C7E7A246EBE7824600F0030338
S214009DF802932B1803930644039BA6EB0A00A3EBD7
S214009E080A05029B9A4514D1BAF1000FB3D0FB6B32
S214009E18012206A95B6998475246284606A913F008
S214009E280DF80028DDD04FF03609484609B0BDE8E1
S214009E38F08FFB6B012206A95B6998470422284627
S214009E4806A912F0FBFF0028EDD1AAF1040AD3E711
S214009E584FF06309E9E74FF06F09E6E7DC360020C4
S214009E682DE9F0410F4616469846044688B060B37A
S214009E7890F83450FDB1012127F01DFA00210E9B01
S214009E88CDE90511CDE902379DF83C30CDF80480C0
S214009E988DF81C30237C04968BB90D4901AA04F171
S214009EA8080000F055FFDDE90553E06B002E08BFFB
S214009EB81D4627F099FB284608B0BDE8F0812046E5
S214009EC8044A01ABFFF7BCFCEDE70546F3E700BF25
S214009ED89F150300A59C00007FB590F842600446D5
S214009EE801920DF10B030A463046114927F084FB10
S214009EF8012E0546E36B17D132465B6903A99847DE
S214009F089DF80B10039B019A59B19BB243EA024392
S214009F18012228460393E36B03A99B69984704B07C
S214009F2870BD62F30F03F3E701229B6901A9F5E709
S214009F38DC3600202DE9F04F99B00E460D920A69DE
S214009F48416C0B931439D31DB3FBF1F3013302EBC9
S214009F58C302036B04469342C0F001820023DFF875
S214009F6804940893E36A48461946059300F074FF7C
S214009F78D6E9033707930B9B022B4DD1CC2F40F025
S214009F88D7810D9B3BB13146204627F08BFB656C8D
S214009F981490012044E00120079B656C1B6814930D
S214009FA800F0010000280CBF04230823782F0E9326
S214009FB849D8059A6B1E1340ED1A3B1D9D423CD2AC
S214009FC8002F3DD0082D3ED80023042506934FF0D9
S214009FD8040A336806990B98C9F80030C9F8107057
S214009FE827F046FD4FEA9A030F93059B89F814005D
S214009FF80393002309930C9304930A93616C039BC1
S21400A0084A1E1A408B1A27B35544AB4223D8236BF3
S21400A0185B1A134423632FE1782F656CB9D8F07D5B
S21400A0280D9B002BBCD0E36B01225B69706816A9F8
S21400A038984716A827F0FAFCB4E700250695C6E761
S21400A04804250697C3E7012300254FF0080A069360
S21400A058BFE75345DBD3A3EB0A029742039BB846F8
S21400A06828BF90469742534428D90122D9F81010A1
S21400A07889F817208F4226D10399C9F8041004924C
S21400A08899F817200AB399F818100398CA1C09EB10
S21400A098C202506004980131A2F80880907289F8CC
S21400A0A81810B8F1000F07D00B9A022A40F08180EA
S21400A0B8099A72B1012209929B46ABE0049A002ADB
S21400A0C818BF0322DBE70222D9E7039AC9F804205F
S21400A0D8E7E70C9A4244032AEED9E26B18469569DC
S21400A0E814A901220993A847099B05460028E1D030
S21400A0F83D2D40F01E8104F1080303932368059A5A
S21400A108606CA2EB030ABAFBF0FA00FB0A3027F0F1
S21400A11847FDE16A8046204627F095F9A26A824202
S21400A12800F00F81626CD9F80830511E0B40216B85
S21400A1382768891A0B442363089BE062DF1BB7FB7A
S21400A148F2F7BA4540F0FA80059BB3EB080A12D03E
S21400A158E36B4FEA9A0241469B6998478346E36A4F
S21400A168059A5344E362236B03989B1A434423637C
S21400A17827F06EFBDA462368616CE06B01FB07315B
S21400A18827F083FC204627F0A1F8204627F09EF902
S21400A1982063BAF1000F00F0D4803269616CD31DD9
S21400A1A81439B3FBF1F3013302EBC3029042A5D294
S21400A1B8BFE00D9A002A77D1B8F1030F4FEA98024C
S21400A1C86ED9E16B18468D6907991093A847109BBE
S21400A1D80546C0B918F0030515D0079A28F0030BF2
S21400A1E802EB0B019B444FF0FF3215A815922A4646
S21400A1F8109312F067FCE26B5846956915A9012280
S21400A208A8470546109B9B46079A42440792002D8E
S21400A21840F08B80049B16A80193069B009399F840
S21400A22814204346316800F0CDFDE36B0F9A9B6916
S21400A238039816A99847039A051E089B18BF134645
S21400A2480893434652462046039927F029F9236B7C
S21400A25808F10302A3EB0A0322F003029B1AC9F8CB
S21400A26808002363002D7FF443AF0C9BA7EB080779
S21400A27843440C93CDF80CB02046039927F0E3F836
S21400A28800250390002F7FF4B9AE364A31689368EC
S21400A29804F10800E36252680B9B00F00BFD49E0EE
S21400A2A89B46454607999EE79B4606F12002109274
S21400A2B8F27D7068A2B1002296F818C00A99D5B245
S21400A2C8AC4511D9109D02F1010E35F832508D4279
S21400A2D828D90E9806EBC2020144D069084403E068
S21400A2E80E9A0A990A441044E26B15A95569012288
S21400A2F81193A847159A0A9B1392E26B0433956943
S21400A3085846012213A90A93A847119B054603EB52
S21400A3180802A2EB0B02042A7FF679AF28B90BF1E4
S21400A328040BC5E77246491BC9E7CDF820B088E795
S21400A33870252F46384619B0BDE8F08F4FF0000A52
S21400A34819E73269616CD31D1439B3FBF1F3013395
S21400A35802EBC302236B9342BFF404AEE9E71C2763
S21400A368E8E700BF84360020032A2DE9F3410646B5
S21400A3780D4617461C4606D1237A012B23D001200A
S21400A38802B0BDE8F081DFF86080096842460DF14A
S21400A3980703FFF7ABF960600028EDD19DF80720AA
S21400A3A8237A032AE8D0D8F804106A689142E3D1E1
S21400A3B8012B2969D4F80CC007D172690CEB01038C
S21400A3C8934202D92074207CDAE708316144E160C0
S21400A3D83B46012229463046FFF7ACFD6060002860
S21400A3E8CAD00020CCE700BFB03600202DE9F341E4
S21400A3F8089C032A1746266806D1237A012B24D000
S21400A408012002B0BDE8F081DFF890803046424671
S21400A4180DF10703FFF76AF960600028EDD125689B
S21400A428D8F80400A96AD5F844C04840CCF100031F
S21400A4381840227AE1D1012A09D1E268D8F810300A
S21400A44813447269934202D92074207CD9E728689D
S21400A458EB6A1B1A081AB3FBFCF3B0FBFCF083424A
S21400A4680BD1706CF36A421E1340326B121A1344F7
S21400A4782846336326F0E7FFE862D8F81020E3683A
S21400A48808321344E36001223B4604492068FFF77C
S21400A49851FD60600028B0D00020B2E7B03600203A
S21400A4A82DE9F0410025604B0E46D3F8008004469F
S21400A4B81D6018B921252846BDE8F08190F834704B
S21400A4C807B30A6803689A4240F0A3804A6843685C
S21400A4D89A4240F09E808A6883689A4240F0998043
S21400A4E8CA68C3689A4240F094800A6943699A42E7
S21400A4F840F08F808A69C36B9A4240F08A804B6925
S21400A5088361D8E768223946856B12F04BF9D6E99D
S21400A5180212336804F1080023607368A563636059
S21400A528336963617369A36127F0A4F9B36904F119
S21400A5384000E3639B68984720B9676C17B1636867
S21400A548B3FBF7F794F84330E761002BB2D000234B
S21400A558656C2366002D64D0002F62D02368B3FB99
S21400A568F5F205FB1233002B55D16668B6FBF5F3FA
S21400A57805FB1363002B4ED1204626F073FEA36915
S21400A588043303449E4248D340F634726369CC3B96
S21400A598934244D8B5F5805F43D30321204626F07E
S21400A5A88AFED4E90001E36B1B6898470546E36B0F
S21400A5B80220DB689847CDB941462046FFF77AF96E
S21400A5C86428054604D141462046FFF773F9054638
S21400A5D8666C5DB9236A2046143E5E4326F042FE4A
S21400A5E8A369043303449E4238BF5A25002D0CBF86
S21400A5F80123002384F8343007D1D4E900010B4A3C
S21400A60813680133136027F0CFF9E06B26F0ECFFF0
S21400A61851E75D254FE759254DE75A254BE75F2556
S21400A62849E75B2547E700BF1430002010300020BC
S21400A6382DE9FF410C4616461F46054680B390F89E
S21400A64834307BB3B1F5801F2ED2DFF8608001214D
S21400A65826F031FE2146424628460DF10F03FFF745
S21400A66845F8044670B99DF80F30012B11D1D8F87B
S21400A6781030BB4212D10246009031462846FFF7FA
S21400A68843FB0446E86B26F0AFFF204604B0BDE85F
S21400A698F081022B14BF2D246024F3E76324F1E72E
S21400A6A82124F2E71124F0E72924EEE7DC3600201F
S21400A6B82DE9F04385B00C4617461E460546DDF8DC
S21400A6C8308098B390F8343093B3B1F5801F31D208
S21400A6D8DFF86490012126F0EEFD21464A4628461A
S21400A6E80DF10F03FFF702F8044688B99DF80F30FE
S21400A6F8012B14D1D9F8102006EB08039A4213D37D
S21400A70800904346324639462846FFF7FDFA044687
S21400A718E86B26F069FF204605B0BDE8F083022BFB
S21400A72814BF2D246024F3E76324F1E72124F2E71D
S21400A7381124F0E72924EEE7DC36002073B50C4632
S21400A7481646054630B390F834302BB3B1F5801F63
S21400A75824D2012126F0AFFD21462846104A0DF1E5
S21400A7680703FEF7C3FF044680B99DF80730032B9E
S21400A7780CD0022B0CD12846094926F093FF3060EE
S21400A788E86B26F031FF204602B070BD2D24F7E7AF
S21400A7986124F5E72124F6E71124F4E72924F2E7F3
S21400A7A8DC3600202DE9F3411E4600230C461746EA
S21400A7B80546336050B390F834304BB3B1F5801F7C
S21400A7C828D2DFF85480012126F075FD214642463E
S21400A7D828460DF10703FEF789FF0446A0B99DF841
S21400A7E80730032B10D0022B03BF01233B60042342
S21400A7F8D8F8103018BF38603360E86B26F0F4FEDF
S21400A808204602B0BDE8F0812D24F6E72124F7E7BC
S21400A8181124F5E72924F3E7DC36002073B504464F
S21400A828056B26F01FFD636E03449D422CBF002374
S21400A8380123854294BF00252D1A207C84F85030C9
S21400A848656584F85800A8B100230C4E1A461946C8
S21400A8582046009626F0EAFF002305461A461946C3
S21400A8682046009626F0EBFFE3682844984294BFFB
S21400A8780020C01AE06502B070BD00BFFFFF0F00E1
S21400A8882DE9F3471E4643690446B34288461746F1
S21400A8989DF828904ED300258DF80750204626F0C0
S21400A8A8E1FCD4F830A082450AD2236AB5EB430F00
S21400A8B806D2002220460DF10701FFF745F9B8B386
S21400A8C89DF80730012B05D1002220460DF107011F
S21400A8D8FFF73AF9B9F1030F06D03146204626F0BD
S21400A8E8B1FC256B854227D3144D4FF0FF3128461F
S21400A8F800F0B2FA4B46294600222046C5E9037600
S21400A908C5F80080FFF716FB236E054663B12046A0
S21400A918FFF784FF94F8503013B994F858301BB1F9
S21400A928236E04F150009847284602B0BDE8F08729
S21400A9380135B3E76225F7E71C25F5E7B0360020B2
S21400A9482DE9FF410F4690461E46054698B390F8F7
S21400A958343093B3B1F5801F31D21A4C022126F059
S21400A968AAFC2246394628460DF10F03FEF7BEFE1E
S21400A978024678B1012342460093394633462846B4
S21400A988FFF77EFF0446E86B26F02EFE204604B04E
S21400A998BDE8F0819DF80F30012BEBD12169B1425B
S21400A9A8E8D10093414633462846FFF7ADF90446FA
S21400A9B80028DFD1E7E72124E8E71124E6E7292481
S21400A9C8E4E700BFDC3600202DE9F04790F8423077
S21400A9D886B0012B05460391A1EB020740F0AA803A
S21400A9E8FF2F03D81E464FF0640807E00226012B07
S21400A9F814BF4FF032084FF06408013600244FF6B3
S21400AA08FF79DFF844A195F84230012B14BF3223B2
S21400AA1864239C4202D35FFA88F40DE005AB224615
S21400AA285146284626F01CFE95F84230012B059B19
S21400AA3834D14B452DD1E4B295F84230012B14BFE2
S21400AA4832226422121BB24217D3012E39D10022B9
S21400AA58012B05978DF8132027D1082205A90DF19B
S21400AA68130027F0B9F89DF81330059A42EA032236
S21400AA7821462846FFF730FA40B1022332490093B0
S21400AA882846CC23096803AAFFF7FAFE06B0BDE8F5
S21400AA98F087DBB203B902340134B4E7591CCAD0D4
S21400AAA89BB2002BF8D10134F6E7102205A90DF168
S21400AAB8130027F091F89DF81330059A42EA0342EE
S21400AAC8D6E7039A012B059223D10823202205A94D
S21400AAD80DF113008DF8133027F07EF89DF813203B
S21400AAE8120221462846FFF7F7F995F84230611C0E
S21400AAF8012BC9B21AD10028BFD12846BDF81420A8
S21400AB08FFF7EAF90028B8D10234BDF81620E1B2FA
S21400AB18AFE71023202205A90DF113008DF8133096
S21400AB2827F05AF89DF813201204DAE70028A4D173
S21400AB38059A9EE7B7F5803F4FF00106BFF457AF7A
S21400AB484FF032085AE700BFDC36002070B586B0F2
S21400AB580E4605460392A0B390F834309BB3B1F581
S21400AB68801F32D2022126F0A6FB31462846184A14
S21400AB780DF11703FEF7BAFD044618B99DF817300D
S21400AB88032B0ED10223314600932846CC2303AA72
S21400AB98FFF776FE0446E86B26F026FD204606B04C
S21400ABA870BD022B0BD10A49284626F07BFD039977
S21400ABB802468142EFD02846FFF706FFEAE76124FF
S21400ABC8E9E72124EAE71124E8E72924E6E700BFB5
S21400ABD8DC360020F7B50C461646054668B390F8EE
S21400ABE8343063B3B1F5801F2BD2022126F063FB05
S21400ABF821462846144A0DF10703FEF777FDC0B92B
S21400AC089DF80730032B14D0022B14D10E49284682
S21400AC1826F048FD471C024639462846FFF7D4FE6C
S21400AC28044606B13760E86B26F0DEFC204603B023
S21400AC38F0BD2D24F7E76124F5E72124F6E7112473
S21400AC48F4E72924F2E700BFDC36002030B50C46CE
S21400AC58054685B028B390F8343023B3B1F5801F85
S21400AC6823D2022126F027FB0DF10F0321462846A2
S21400AC780F4AFEF73BFD034688B99DF80F20032AC6
S21400AC880DD003222146009202462846FFF7F8FD1B
S21400AC980446E86B26F0A8FC204605B030BD2D24F7
S21400ACA8F7E72124F8E71124F6E72924F4E700BF9C
S21400ACB8DC3600202DE9F043466886B305689846DA
S21400ACC84FF0000CA946AE4655F83C400CF1010C76
S21400ACD8C4F31307013401D0B94217D0B4450EF1B6
S21400ACE8080EF1D12F46002403E0B44207F1080706
S21400ACF812D055F8343001340133F6D1C1F31301BC
S21400AD0841EA0851C7E90012BDE8F08341EA085154
S21400AD18CEE90012BDE8F083B8F1030F03D1012392
S21400AD280372BDE8F083002303E0B34209F1080983
S21400AD38F5D055F833400133C4F30754032CF4D147
S21400AD48C1F3130343EA0853C9E90032BDE8F083A8
S21400AD582DE9F0410646406882B0B8B10F469046E5
S21400AD680024336853F8345003EBC403C5F3075282
S21400AD78C5F31301013506D05B683046CDF8008070
S21400AD88B84718B1706801348442EAD302B0BDE807
S21400AD98F08100BF024B1968024B1868FFF780BBAA
S21400ADA8785F0020985F002008B530F002F8014B65
S21400ADB8186008BD08370020014B18682FF0F4BF4C
S21400ADC80837002073B504462248012A00EAC11154
S21400ADD89DF8185023F07C4007D9961E012E28D9D6
S21400ADE8073303F07F03194308E09DF81C300A4335
S21400ADF8DB0603F0C053134343F060410023C4E965
S21400AE0800108DF80730B5B1202221460DF1070055
S21400AE1826F0E2FE1A220DF10700211D26F0DCFEC0
S21400AE28082063689DF8072043EA8263636002B0DF
S21400AE3870BD1143E2E71B220DF10700214626F0FC
S21400AE48CBFE23689DF80720042043EAC2632360EC
S21400AE58EDE700BF80FFFF0738B5094B0D461A68B7
S21400AE680021044611F09EFC00234FF0FF32238396
S21400AE78C4E900252361A260E382A37638BD00BF3B
S21400AE88085004000138C0B205289ABF014B185C68
S21400AE98012070470D5004002DE9F041074615467D
S21400AEA800240E46596888B0490A012922464FEA06
S21400AEB8510104F10104F8D8DC78997824031B883A
S21400AEC8C90201F4006104F480540C43C3F30A0376
S21400AED85203234492B24FF000089C18274B6FEA9F
S21400AEE80444039325F07843ED4302A90DF10700C7
S21400AEF81B2202938DF8078026F06EFE9DF8072029
S21400AF08029B02A943EAC2630DF107001B2225F043
S21400AF187845049302958DF8078026F05DFE9DF827
S21400AF280720029B6FEA144443EAC26305934FF076
S21400AF38FF330794069307A9BB69012206F11000A0
S21400AF489847BB6905A90446012206F108009847F8
S21400AF58BB69404518BF044604A90122301D98471E
S21400AF680122404518BF0446BB69304603A99847E6
S21400AF78404508BF204608B0BDE8F08101009AB2F7
S21400AF88044BD3F88420D206FBD4D3F88400C0F34D
S21400AF98811070470040005038B5184B0546D3F866
S21400AFA824010C4600F00700062823D8DFE800F046
S21400AFB8040A121A1E0E1600012305B1286004B1F1
S21400AFC8236038BD2EF02EF80523F6E72EF02AF873
S21400AFD80623F2E72EF060F80323EEE72EF05CF87F
S21400AFE80423EAE72EF054F80223E6E72FF0F4FEEF
S21400AFF80723E2E700231846DFE700BF008000507B
S21400B00838B5104B0546D3F800310C4603F0030359
S21400B018022B0BD0032B0DD0012B0FD12EF03CF8B2
S21400B028032305B1286004B1236038BD2EF03AF832
S21400B0380823F6E72FF0D0FE0723F2E701230020C7
S21400B048EFE700BF0080005038B5104B0546D3F830
S21400B05820310C4603F00303022B0BD0032B0DD034
S21400B068012B0FD12DF0DEFF052305B1286004B1B2
S21400B078236038BD2EF010F80323F6E72EF008F804
S21400B0880223F2E701230020EFE700BF008000500C
S21400B09838B5104B0546D3F840310C4603F0030389
S21400B0A8022B0BD0032B0DD0012B0FD12FF096FEC1
S21400B0B8092305B1286004B1236038BD2DF0F2FFDE
S21400B0C80823F6E72FF08DFE0B23F2E70123002076
S21400B0D8EFE700BF0080005038B5104B0546D3F8A0
S21400B0E860310C4603F00303022B0BD0032B0DD064
S21400B0F8012B0FD12FF072FE092305B1286004B189
S21400B108236038BD2DF0CEFF0823F6E72FF069FE42
S21400B1180B23F2E701230020EFE700BF0080005072
S21400B12873B50D4600210E4B0191D3F880410646B3
S21400B13804F00304012C09D0022C0CD00C460EB1E6
S21400B148019B336005B12C6002B070BD01A8FFF703
S21400B1587BFF0F24F3E72DF09BFF0190EFE700BF7E
S21400B1680080005038B5104B0546D3F840320C46E0
S21400B17803F00303022B0BD0032B0DD0012B0FD1AA
S21400B1882FF02CFE092305B1286004B1236038BDD2
S21400B1982DF088FF0823F6E72FF023FE0B23F2E7AF
S21400B1A800231846EFE700BF0080005038B5144B60
S21400B1B80546D3F800020C4600F0070004281BD802
S21400B1C8DFE800F003090D111500012305B128601A
S21400B1D804B1236038BD2FF001FE0923F6E72DF0F1
S21400B1E861FF0823F2E72FF0FCFD0B23EEE72DF0B6
S21400B1F839FF0E23800AE9E700231846E6E700BF72
S21400B2080080005010B40D4C0B46D4F8204204F0D1
S21400B2180304012C0AD0022C0CD008B100210160CE
S21400B2280BB100221A605DF8044B70475DF8044BBA
S21400B238FFF70ABF5DF8044BFFF72ABF00800050EF
S21400B248B0F5207F1FD009D8B0F5007F15D003D8F9
S21400B25868B1B0F5C07F0AD000200CE0B0F5607F7A
S21400B268FAD10B4BD3F88000C0F3011003E0084B6B
S21400B278186FC0F3033001307047054BD3F89000C1
S21400B288C0F30460F7E7024B186FC0F38020F2E7BC
S21400B298008000504FF400320E4B014610B50020D7
S21400B2A89A66FFF7CDFF484341F671320A490B4BC1
S21400B2B8884294BF00200120DC69DA639A6822F489
S21400B2C8401242EA00529A60E20344BF0022DA6360
S21400B2D810BD00BF00900050005A620200000350E4
S21400B2E85F2898BF094B4FEA501294BF53F8223094
S21400B2F8074B00F01F0029B103F580530122824056
S21400B3081A60704703F50053F8E700BF14500400AE
S21400B318608200501FB50021B0F5807F0446019179
S21400B32800F0068100F29D80612800F295801F28B3
S21400B33805D8002840F092802DF094FEDCE0A0F1BD
S21400B3482004412C00F28A8001A353F824F000BFA1
S21400B35841B3000005B5000041B3000005B5000084
S21400B36825B5000025B5000025B5000025B5000068
S21400B37805B5000005B50000DFB4000099B400006C
S21400B3885BB5000065B5000099B4000005B500007F
S21400B39805B5000005B5000065B4000065B40000FA
S21400B3A865B4000065B4000065B4000065B400002C
S21400B3B82FB50000BBB4000005B5000005B50000B9
S21400B3C805B5000079B500006FB5000005B50000AA
S21400B3D865B4000065B4000065B4000065B40000FC
S21400B3E865B4000065B4000065B4000065B40000EC
S21400B3F865B4000065B4000065B4000065B40000DC
S21400B40865B4000041B3000065B4000041B3000015
S21400B41841B3000041B3000025B5000065B4000044
S21400B42865B4000065B4000065B4000065B40000AB
S21400B43865B4000065B4000065B4000065B400009B
S21400B44865B4000065B4000065B4000065B400008B
S21400B45841B3000041B3000080284BD0019804B0E7
S21400B46810BDB0F5A06F5ED028D8B0F5607F50D07C
S21400B47819D8B0F5007F4CD004D8B0F5C07F3FF49B
S21400B4885BAFEBE7B0F5207F38D0B0F5407FE5D16D
S21400B4982DF0E8FD02464FF42070FFF7D1FEB2FB10
S21400B4A8F0F2520833E0B0F5806F37D0B0F5906F01
S21400B4B8D4D1002101A8FFF76FFDCFE7B0F5E06F04
S21400B4C851D00DD8B0F5C06F43D0B0F5D06F45D089
S21400B4D8B0F5B06FC2D1002101A8FFF721FEBDE785
S21400B4E8B0F5F06F44D0B0F5086FB7D101A8FFF7F4
S21400B4F887FDB3E72DF09CFD0190AFE72DF0B2FD78
S21400B50802464FF42070FFF79BFEB2FBF0F2019262
S21400B518A4E72DF08DFD02462046F4E7002101A899
S21400B528FFF792FD9AE7002101A8FFF76BFE95E763
S21400B5384FF0E02302911B695B0705D52DF092FDBD
S21400B5480290029B019389E703A902A8FFF7A0FDD2
S21400B558F7E7002101A8FFF79BFD7FE7002101A878
S21400B568FFF724FE7AE7002101A8FFF7FBFD75E741
S21400B578002101A8FFF7B0FD70E700BF08B58020DE
S21400B588FFF7C8FE034B98429EBF4FF48032024B2B
S21400B5981A6708BD005A620200A000501FB503468D
S21400B5A80020B3F5807F01906FD027D8382B00F0A5
S21400B5B882800BD8243B092B0FD8092B0DD8DFE83F
S21400B5C803F05F5F5F5F0C0C5A0C3675522B57D032
S21400B5D807D83D2B3AD03E2B72D0019805B05DF8BF
S21400B5E804FB802BF9D1394B1B6F03F00703013B93
S21400B5F8032BF2D8DFE803F03D36393BB3F5D06FBE
S21400B60854D019D8B3F5A06F55D00AD8B3F5806FC3
S21400B61836D0B3F5906FE0D1002001A9FFF7BCFC47
S21400B628DBE7B3F5B06F26D0B3F5C06FD5D10020F1
S21400B63801A9FFF72DFDD0E7B3F5006FECD00AD8C7
S21400B648B3F5E06F3CD0B3F5F06FC6D1002001A982
S21400B658FFF742FDC1E7B3F5086FBED101A9FFF7B2
S21400B668CFFCBAE705230193B7E70323FBE70723D5
S21400B678F9E70223F7E7002001A9FFF751FDACE739
S21400B688002001A9FFF7E0FCA7E74FF0E0230290AF
S21400B6981B695B0705D52DF0E5FC0C230393039B7C
S21400B6A8E1E703A902A8FFF7F3FCF8E7002001A9E1
S21400B6B8FFF77CFD91E7002001A9FFF7A3FD8CE7C3
S21400B6C8002001A9FFF74EFD87E700BF0080005065
S21400B6D84FF40022034B5A66012203F580439A6210
S21400B6E8704700BF0090005070B504468020FFF7F2
S21400B6F855FF032800F082804FF40022444B0221B5
S21400B7085A6645F60E03434AC2F88030424B9962A1
S21400B718012103F580539962936DD903FCD4D4E9CB
S21400B72800131B0543EA0163E17B94F823500B439F
S21400B738217B43EA0143617B43EA0133A17B43EA69
S21400B748811313619169D4E904031B0643EA8063F5
S21400B75801F000410B43A17EE07E0B43217E43EAC5
S21400B7680143617E43EA01239361E169136A002974
S21400B77823F00D0343EA010314BF0121002143EA25
S21400B788800343EAC103136294F8203094F8220039
S21400B798916A4FEA431332D194F8216021F03301BD
S21400B7A843EA06130B4343F0010393621B49194B04
S21400B7B89A6D31EA0202FBD1022217498A621A659B
S21400B7C89A6D5200FCD41A69A16822F4700242EA03
S21400B7D801521A614FF000420F4B9A6118B90222C3
S21400B7E803F580539A6215B901220D4B9A6294F8B4
S21400B7F824301BB1074B0B4AC3F8802070BD21F0DC
S21400B808330129430B4343EA40039362EFE700BF43
S21400B8180090005000C0005000D0005003000140C7
S21400B82800E00050F1A7FFFF014B93F900007047B6
S21400B8384E550020014B1880704700BF90640020CA
S21400B848B0F5207F10B50C4642D008D8B0F5007F7A
S21400B85833D003D888B1B0F5C07F0ED010BDB0F590
S21400B868607FFBD11F4A4C1ED2F8803023F030038D
S21400B87843EA0413C2F88030F0E726F0CBF926F046
S21400B888D7F94FF48031184B164A1967136F013CE5
S21400B89823F4704343EA043313672DF0E3FB0446AE
S21400B8A8FFF76EFBC0F10201204626F0BBF900F058
S21400B8B835F8BDE81040FFF761BE0A4A4C1ED2F8BC
